{
	"Umbra-Cash/contracts/Umbra.sol": {
		"Umbra": {
			"abi": [
				{
					"inputs": [
						{
							"internalType": "uint256",
							"name": "_toll",
							"type": "uint256"
						},
						{
							"internalType": "address",
							"name": "_tollCollector",
							"type": "address"
						},
						{
							"internalType": "address payable",
							"name": "_tollReceiver",
							"type": "address"
						}
					],
					"stateMutability": "nonpayable",
					"type": "constructor"
				},
				{
					"anonymous": false,
					"inputs": [
						{
							"indexed": true,
							"internalType": "address",
							"name": "receiver",
							"type": "address"
						},
						{
							"indexed": false,
							"internalType": "uint256",
							"name": "amount",
							"type": "uint256"
						},
						{
							"indexed": true,
							"internalType": "address",
							"name": "token",
							"type": "address"
						},
						{
							"indexed": false,
							"internalType": "bytes32",
							"name": "pkx",
							"type": "bytes32"
						},
						{
							"indexed": false,
							"internalType": "bytes32",
							"name": "ciphertext",
							"type": "bytes32"
						}
					],
					"name": "Announcement",
					"type": "event"
				},
				{
					"anonymous": false,
					"inputs": [
						{
							"indexed": true,
							"internalType": "address",
							"name": "previousOwner",
							"type": "address"
						},
						{
							"indexed": true,
							"internalType": "address",
							"name": "newOwner",
							"type": "address"
						}
					],
					"name": "OwnershipTransferred",
					"type": "event"
				},
				{
					"anonymous": false,
					"inputs": [
						{
							"indexed": true,
							"internalType": "address",
							"name": "receiver",
							"type": "address"
						},
						{
							"indexed": true,
							"internalType": "address",
							"name": "acceptor",
							"type": "address"
						},
						{
							"indexed": false,
							"internalType": "uint256",
							"name": "amount",
							"type": "uint256"
						},
						{
							"indexed": true,
							"internalType": "address",
							"name": "token",
							"type": "address"
						}
					],
					"name": "TokenWithdrawal",
					"type": "event"
				},
				{
					"inputs": [],
					"name": "collectTolls",
					"outputs": [],
					"stateMutability": "nonpayable",
					"type": "function"
				},
				{
					"inputs": [],
					"name": "owner",
					"outputs": [
						{
							"internalType": "address",
							"name": "",
							"type": "address"
						}
					],
					"stateMutability": "view",
					"type": "function"
				},
				{
					"inputs": [],
					"name": "renounceOwnership",
					"outputs": [],
					"stateMutability": "nonpayable",
					"type": "function"
				},
				{
					"inputs": [
						{
							"internalType": "address payable",
							"name": "_receiver",
							"type": "address"
						},
						{
							"internalType": "uint256",
							"name": "_tollCommitment",
							"type": "uint256"
						},
						{
							"internalType": "bytes32",
							"name": "_pkx",
							"type": "bytes32"
						},
						{
							"internalType": "bytes32",
							"name": "_ciphertext",
							"type": "bytes32"
						}
					],
					"name": "sendEth",
					"outputs": [],
					"stateMutability": "payable",
					"type": "function"
				},
				{
					"inputs": [
						{
							"internalType": "address",
							"name": "_receiver",
							"type": "address"
						},
						{
							"internalType": "address",
							"name": "_tokenAddr",
							"type": "address"
						},
						{
							"internalType": "uint256",
							"name": "_amount",
							"type": "uint256"
						},
						{
							"internalType": "bytes32",
							"name": "_pkx",
							"type": "bytes32"
						},
						{
							"internalType": "bytes32",
							"name": "_ciphertext",
							"type": "bytes32"
						}
					],
					"name": "sendToken",
					"outputs": [],
					"stateMutability": "payable",
					"type": "function"
				},
				{
					"inputs": [
						{
							"internalType": "uint256",
							"name": "_newToll",
							"type": "uint256"
						}
					],
					"name": "setToll",
					"outputs": [],
					"stateMutability": "nonpayable",
					"type": "function"
				},
				{
					"inputs": [
						{
							"internalType": "address",
							"name": "_newTollCollector",
							"type": "address"
						}
					],
					"name": "setTollCollector",
					"outputs": [],
					"stateMutability": "nonpayable",
					"type": "function"
				},
				{
					"inputs": [
						{
							"internalType": "address payable",
							"name": "_newTollReceiver",
							"type": "address"
						}
					],
					"name": "setTollReceiver",
					"outputs": [],
					"stateMutability": "nonpayable",
					"type": "function"
				},
				{
					"inputs": [
						{
							"internalType": "address",
							"name": "",
							"type": "address"
						},
						{
							"internalType": "address",
							"name": "",
							"type": "address"
						}
					],
					"name": "tokenPayments",
					"outputs": [
						{
							"internalType": "uint256",
							"name": "",
							"type": "uint256"
						}
					],
					"stateMutability": "view",
					"type": "function"
				},
				{
					"inputs": [],
					"name": "toll",
					"outputs": [
						{
							"internalType": "uint256",
							"name": "",
							"type": "uint256"
						}
					],
					"stateMutability": "view",
					"type": "function"
				},
				{
					"inputs": [],
					"name": "tollCollector",
					"outputs": [
						{
							"internalType": "address",
							"name": "",
							"type": "address"
						}
					],
					"stateMutability": "view",
					"type": "function"
				},
				{
					"inputs": [],
					"name": "tollReceiver",
					"outputs": [
						{
							"internalType": "address payable",
							"name": "",
							"type": "address"
						}
					],
					"stateMutability": "view",
					"type": "function"
				},
				{
					"inputs": [
						{
							"internalType": "address",
							"name": "newOwner",
							"type": "address"
						}
					],
					"name": "transferOwnership",
					"outputs": [],
					"stateMutability": "nonpayable",
					"type": "function"
				},
				{
					"inputs": [
						{
							"internalType": "address",
							"name": "_acceptor",
							"type": "address"
						},
						{
							"internalType": "address",
							"name": "_tokenAddr",
							"type": "address"
						}
					],
					"name": "withdrawToken",
					"outputs": [],
					"stateMutability": "nonpayable",
					"type": "function"
				},
				{
					"inputs": [
						{
							"internalType": "address",
							"name": "_acceptor",
							"type": "address"
						},
						{
							"internalType": "address",
							"name": "_tokenAddr",
							"type": "address"
						},
						{
							"internalType": "contract IUmbraHookReceiver",
							"name": "_hook",
							"type": "address"
						},
						{
							"internalType": "bytes",
							"name": "_data",
							"type": "bytes"
						}
					],
					"name": "withdrawTokenAndCall",
					"outputs": [],
					"stateMutability": "nonpayable",
					"type": "function"
				},
				{
					"inputs": [
						{
							"internalType": "address",
							"name": "_stealthAddr",
							"type": "address"
						},
						{
							"internalType": "address",
							"name": "_acceptor",
							"type": "address"
						},
						{
							"internalType": "address",
							"name": "_tokenAddr",
							"type": "address"
						},
						{
							"internalType": "address",
							"name": "_sponsor",
							"type": "address"
						},
						{
							"internalType": "uint256",
							"name": "_sponsorFee",
							"type": "uint256"
						},
						{
							"internalType": "contract IUmbraHookReceiver",
							"name": "_hook",
							"type": "address"
						},
						{
							"internalType": "bytes",
							"name": "_data",
							"type": "bytes"
						},
						{
							"internalType": "uint8",
							"name": "_v",
							"type": "uint8"
						},
						{
							"internalType": "bytes32",
							"name": "_r",
							"type": "bytes32"
						},
						{
							"internalType": "bytes32",
							"name": "_s",
							"type": "bytes32"
						}
					],
					"name": "withdrawTokenAndCallOnBehalf",
					"outputs": [],
					"stateMutability": "nonpayable",
					"type": "function"
				},
				{
					"inputs": [
						{
							"internalType": "address",
							"name": "_stealthAddr",
							"type": "address"
						},
						{
							"internalType": "address",
							"name": "_acceptor",
							"type": "address"
						},
						{
							"internalType": "address",
							"name": "_tokenAddr",
							"type": "address"
						},
						{
							"internalType": "address",
							"name": "_sponsor",
							"type": "address"
						},
						{
							"internalType": "uint256",
							"name": "_sponsorFee",
							"type": "uint256"
						},
						{
							"internalType": "uint8",
							"name": "_v",
							"type": "uint8"
						},
						{
							"internalType": "bytes32",
							"name": "_r",
							"type": "bytes32"
						},
						{
							"internalType": "bytes32",
							"name": "_s",
							"type": "bytes32"
						}
					],
					"name": "withdrawTokenOnBehalf",
					"outputs": [],
					"stateMutability": "nonpayable",
					"type": "function"
				}
			],
			"devdoc": {
				"kind": "dev",
				"methods": {
					"constructor": {
						"params": {
							"_toll": "Amount of ETH required per send",
							"_tollCollector": "Address that can sweep collected funds",
							"_tollReceiver": "Address that receives collected funds"
						}
					},
					"owner()": {
						"details": "Returns the address of the current owner."
					},
					"renounceOwnership()": {
						"details": "Leaves the contract without owner. It will not be possible to call `onlyOwner` functions anymore. Can only be called by the current owner. NOTE: Renouncing ownership will leave the contract without an owner, thereby removing any functionality that is only available to the owner."
					},
					"sendEth(address,uint256,bytes32,bytes32)": {
						"params": {
							"_ciphertext": "Encrypted entropy (used to generated the stealth address) and payload extension",
							"_pkx": "X-coordinate of the ephemeral public key used to encrypt the payload",
							"_receiver": "Stealth address receiving the payment",
							"_tollCommitment": "Exact toll the sender is paying; should equal contract toll; the committment is used to prevent frontrunning attacks by the owner; see https://github.com/ScopeLift/umbra-protocol/issues/54 for more information"
						}
					},
					"sendToken(address,address,uint256,bytes32,bytes32)": {
						"params": {
							"_amount": "Amount of the token to send, in its own base units",
							"_ciphertext": "Encrypted entropy (used to generated the stealth address) and payload extension",
							"_pkx": "X-coordinate of the ephemeral public key used to encrypt the payload",
							"_receiver": "Stealth address receiving the payment",
							"_tokenAddr": "Address of the ERC20 token being sent"
						}
					},
					"setToll(uint256)": {
						"params": {
							"_newToll": "New ETH toll in wei"
						}
					},
					"setTollCollector(address)": {
						"params": {
							"_newTollCollector": "New address which has fund sweeping privileges"
						}
					},
					"setTollReceiver(address)": {
						"params": {
							"_newTollReceiver": "New address which receives collected funds"
						}
					},
					"transferOwnership(address)": {
						"details": "Transfers ownership of the contract to a new account (`newOwner`). Can only be called by the current owner."
					},
					"withdrawToken(address,address)": {
						"details": "This method must be directly called by the stealth address",
						"params": {
							"_acceptor": "Address where withdrawn funds should be sent",
							"_tokenAddr": "Address of the ERC20 token being withdrawn"
						}
					},
					"withdrawTokenAndCall(address,address,address,bytes)": {
						"details": "This method must be directly called by the stealth address",
						"params": {
							"_acceptor": "Address where withdrawn funds should be sent",
							"_data": "Arbitrary data that will be passed to the post-withdraw hook contract",
							"_hook": "Contract that will be called after the token withdrawal has completed",
							"_tokenAddr": "Address of the ERC20 token being withdrawn"
						}
					},
					"withdrawTokenAndCallOnBehalf(address,address,address,address,uint256,address,bytes,uint8,bytes32,bytes32)": {
						"params": {
							"_acceptor": "Address where withdrawn funds should be sent",
							"_data": "Arbitrary data that will be passed to the post-withdraw hook contract",
							"_hook": "Contract that will be called after the token withdrawal has completed",
							"_r": "ECDSA signature component: x-coordinate of `R`",
							"_s": "ECDSA signature component: `s` value of the signature",
							"_sponsor": "Address which is compensated for submitting the withdrawal tx",
							"_sponsorFee": "Amount of the token to pay to the sponsor",
							"_stealthAddr": "The stealth address whose token balance will be withdrawn",
							"_tokenAddr": "Address of the ERC20 token being withdrawn",
							"_v": "ECDSA signature component: Parity of the `y` coordinate of point `R`"
						}
					},
					"withdrawTokenOnBehalf(address,address,address,address,uint256,uint8,bytes32,bytes32)": {
						"params": {
							"_acceptor": "Address where withdrawn funds should be sent",
							"_r": "ECDSA signature component: x-coordinate of `R`",
							"_s": "ECDSA signature component: `s` value of the signature",
							"_sponsor": "Address which is compensated for submitting the withdrawal tx",
							"_sponsorFee": "Amount of the token to pay to the sponsor",
							"_stealthAddr": "The stealth address whose token balance will be withdrawn",
							"_tokenAddr": "Address of the ERC20 token being withdrawn",
							"_v": "ECDSA signature component: Parity of the `y` coordinate of point `R`"
						}
					}
				},
				"stateVariables": {
					"ETH_TOKEN_PLACHOLDER": {
						"details": "Placeholder address used to identify transfer of native ETH"
					}
				},
				"version": 1
			},
			"evm": {
				"assembly": "    /* \"Umbra-Cash/contracts/Umbra.sol\":1500:13936  contract Umbra is Ownable {... */\n  mstore(0x40, 0x80)\n    /* \"Umbra-Cash/contracts/Umbra.sol\":3323:3514  constructor(... */\n  callvalue\n  dup1\n  iszero\n  tag_1\n  jumpi\n  0x00\n  dup1\n  revert\ntag_1:\n  pop\n  mload(0x40)\n  sub(codesize, bytecodeSize)\n  dup1\n  bytecodeSize\n  dup4\n  codecopy\n  dup2\n  dup2\n  add\n  0x40\n  mstore\n  0x60\n  dup2\n  lt\n  iszero\n  tag_2\n  jumpi\n  0x00\n  dup1\n  revert\ntag_2:\n  dup2\n  add\n  swap1\n  dup1\n  dup1\n  mload\n  swap1\n  0x20\n  add\n  swap1\n  swap3\n  swap2\n  swap1\n  dup1\n  mload\n  swap1\n  0x20\n  add\n  swap1\n  swap3\n  swap2\n  swap1\n  dup1\n  mload\n  swap1\n  0x20\n  add\n  swap1\n  swap3\n  swap2\n  swap1\n  pop\n  pop\n  pop\n    /* \"Umbra-Cash/@openzeppelin/contracts/access/Ownable.sol\":2155:2172  address msgSender */\n  0x00\n    /* \"Umbra-Cash/@openzeppelin/contracts/access/Ownable.sol\":2175:2187  _msgSender() */\n  tag_6\n    /* \"Umbra-Cash/@openzeppelin/contracts/access/Ownable.sol\":2175:2185  _msgSender */\n  shl(0x20, tag_7)\n    /* \"Umbra-Cash/@openzeppelin/contracts/access/Ownable.sol\":2175:2187  _msgSender() */\n  0x20\n  shr\n  jump\t// in\ntag_6:\n    /* \"Umbra-Cash/@openzeppelin/contracts/access/Ownable.sol\":2155:2187  address msgSender = _msgSender() */\n  swap1\n  pop\n    /* \"Umbra-Cash/@openzeppelin/contracts/access/Ownable.sol\":2206:2215  msgSender */\n  dup1\n    /* \"Umbra-Cash/@openzeppelin/contracts/access/Ownable.sol\":2197:2203  _owner */\n  0x00\n  dup1\n    /* \"Umbra-Cash/@openzeppelin/contracts/access/Ownable.sol\":2197:2215  _owner = msgSender */\n  0x0100\n  exp\n  dup2\n  sload\n  dup2\n  0xffffffffffffffffffffffffffffffffffffffff\n  mul\n  not\n  and\n  swap1\n  dup4\n  0xffffffffffffffffffffffffffffffffffffffff\n  and\n  mul\n  or\n  swap1\n  sstore\n  pop\n    /* \"Umbra-Cash/@openzeppelin/contracts/access/Ownable.sol\":2263:2272  msgSender */\n  dup1\n    /* \"Umbra-Cash/@openzeppelin/contracts/access/Ownable.sol\":2230:2273  OwnershipTransferred(address(0), msgSender) */\n  0xffffffffffffffffffffffffffffffffffffffff\n  and\n    /* \"Umbra-Cash/@openzeppelin/contracts/access/Ownable.sol\":2259:2260  0 */\n  0x00\n    /* \"Umbra-Cash/@openzeppelin/contracts/access/Ownable.sol\":2230:2273  OwnershipTransferred(address(0), msgSender) */\n  0xffffffffffffffffffffffffffffffffffffffff\n  and\n  0x8be0079c531659141344cd1fd0a4f28419497f9722a3daafe3b4186f6b6457e0\n  mload(0x40)\n  mload(0x40)\n  dup1\n  swap2\n  sub\n  swap1\n  log3\n    /* \"Umbra-Cash/@openzeppelin/contracts/access/Ownable.sol\":2121:2280  constructor () internal {... */\n  pop\n    /* \"Umbra-Cash/contracts/Umbra.sol\":3434:3439  _toll */\n  dup3\n    /* \"Umbra-Cash/contracts/Umbra.sol\":3427:3431  toll */\n  0x01\n    /* \"Umbra-Cash/contracts/Umbra.sol\":3427:3439  toll = _toll */\n  dup2\n  swap1\n  sstore\n  pop\n    /* \"Umbra-Cash/contracts/Umbra.sol\":3461:3475  _tollCollector */\n  dup2\n    /* \"Umbra-Cash/contracts/Umbra.sol\":3445:3458  tollCollector */\n  0x02\n  0x00\n    /* \"Umbra-Cash/contracts/Umbra.sol\":3445:3475  tollCollector = _tollCollector */\n  0x0100\n  exp\n  dup2\n  sload\n  dup2\n  0xffffffffffffffffffffffffffffffffffffffff\n  mul\n  not\n  and\n  swap1\n  dup4\n  0xffffffffffffffffffffffffffffffffffffffff\n  and\n  mul\n  or\n  swap1\n  sstore\n  pop\n    /* \"Umbra-Cash/contracts/Umbra.sol\":3496:3509  _tollReceiver */\n  dup1\n    /* \"Umbra-Cash/contracts/Umbra.sol\":3481:3493  tollReceiver */\n  0x03\n  0x00\n    /* \"Umbra-Cash/contracts/Umbra.sol\":3481:3509  tollReceiver = _tollReceiver */\n  0x0100\n  exp\n  dup2\n  sload\n  dup2\n  0xffffffffffffffffffffffffffffffffffffffff\n  mul\n  not\n  and\n  swap1\n  dup4\n  0xffffffffffffffffffffffffffffffffffffffff\n  and\n  mul\n  or\n  swap1\n  sstore\n  pop\n    /* \"Umbra-Cash/contracts/Umbra.sol\":3323:3514  constructor(... */\n  pop\n  pop\n  pop\n    /* \"Umbra-Cash/contracts/Umbra.sol\":1500:13936  contract Umbra is Ownable {... */\n  jump(tag_9)\n    /* \"Umbra-Cash/@openzeppelin/contracts/utils/Context.sol\":1869:1973  function _msgSender() internal view virtual returns (address payable) {... */\ntag_7:\n    /* \"Umbra-Cash/@openzeppelin/contracts/utils/Context.sol\":1922:1937  address payable */\n  0x00\n    /* \"Umbra-Cash/@openzeppelin/contracts/utils/Context.sol\":1956:1966  msg.sender */\n  caller\n    /* \"Umbra-Cash/@openzeppelin/contracts/utils/Context.sol\":1949:1966  return msg.sender */\n  swap1\n  pop\n    /* \"Umbra-Cash/@openzeppelin/contracts/utils/Context.sol\":1869:1973  function _msgSender() internal view virtual returns (address payable) {... */\n  swap1\n  jump\t// out\n    /* \"Umbra-Cash/contracts/Umbra.sol\":1500:13936  contract Umbra is Ownable {... */\ntag_9:\n  dataSize(sub_0)\n  dup1\n  dataOffset(sub_0)\n  0x00\n  codecopy\n  0x00\n  return\nstop\n\nsub_0: assembly {\n        /* \"Umbra-Cash/contracts/Umbra.sol\":1500:13936  contract Umbra is Ownable {... */\n      mstore(0x40, 0x80)\n      jumpi(tag_1, lt(calldatasize, 0x04))\n      shr(0xe0, calldataload(0x00))\n      dup1\n      0x81ab0fcd\n      gt\n      tag_19\n      jumpi\n      dup1\n      0xb400ee46\n      gt\n      tag_20\n      jumpi\n      dup1\n      0xb400ee46\n      eq\n      tag_14\n      jumpi\n      dup1\n      0xb9bfabe1\n      eq\n      tag_15\n      jumpi\n      dup1\n      0xbeb9addf\n      eq\n      tag_16\n      jumpi\n      dup1\n      0xc0b9b4ea\n      eq\n      tag_17\n      jumpi\n      dup1\n      0xf2fde38b\n      eq\n      tag_18\n      jumpi\n      jump(tag_1)\n    tag_20:\n      dup1\n      0x81ab0fcd\n      eq\n      tag_10\n      jumpi\n      dup1\n      0x8da5cb5b\n      eq\n      tag_11\n      jumpi\n      dup1\n      0x8ef490b0\n      eq\n      tag_12\n      jumpi\n      dup1\n      0xa3dace5d\n      eq\n      tag_13\n      jumpi\n      jump(tag_1)\n    tag_19:\n      dup1\n      0x285aaa20\n      gt\n      tag_21\n      jumpi\n      dup1\n      0x285aaa20\n      eq\n      tag_6\n      jumpi\n      dup1\n      0x3aeac4e1\n      eq\n      tag_7\n      jumpi\n      dup1\n      0x715018a6\n      eq\n      tag_8\n      jumpi\n      dup1\n      0x7e8c2f94\n      eq\n      tag_9\n      jumpi\n      jump(tag_1)\n    tag_21:\n      dup1\n      0x059ca2f5\n      eq\n      tag_2\n      jumpi\n      dup1\n      0x0c6b7067\n      eq\n      tag_3\n      jumpi\n      dup1\n      0x185ad0a5\n      eq\n      tag_4\n      jumpi\n      dup1\n      0x23d0e7a1\n      eq\n      tag_5\n      jumpi\n    tag_1:\n      0x00\n      dup1\n      revert\n        /* \"Umbra-Cash/contracts/Umbra.sol\":7804:8045  function withdrawTokenAndCall(... */\n    tag_2:\n      callvalue\n      dup1\n      iszero\n      tag_22\n      jumpi\n      0x00\n      dup1\n      revert\n    tag_22:\n      pop\n      tag_23\n      0x04\n      dup1\n      calldatasize\n      sub\n      0x80\n      dup2\n      lt\n      iszero\n      tag_24\n      jumpi\n      0x00\n      dup1\n      revert\n    tag_24:\n      dup2\n      add\n      swap1\n      dup1\n      dup1\n      calldataload\n      0xffffffffffffffffffffffffffffffffffffffff\n      and\n      swap1\n      0x20\n      add\n      swap1\n      swap3\n      swap2\n      swap1\n      dup1\n      calldataload\n      0xffffffffffffffffffffffffffffffffffffffff\n      and\n      swap1\n      0x20\n      add\n      swap1\n      swap3\n      swap2\n      swap1\n      dup1\n      calldataload\n      0xffffffffffffffffffffffffffffffffffffffff\n      and\n      swap1\n      0x20\n      add\n      swap1\n      swap3\n      swap2\n      swap1\n      dup1\n      calldataload\n      swap1\n      0x20\n      add\n      swap1\n      0x0100000000\n      dup2\n      gt\n      iszero\n      tag_25\n      jumpi\n      0x00\n      dup1\n      revert\n    tag_25:\n      dup3\n      add\n      dup4\n      0x20\n      dup3\n      add\n      gt\n      iszero\n      tag_26\n      jumpi\n      0x00\n      dup1\n      revert\n    tag_26:\n      dup1\n      calldataload\n      swap1\n      0x20\n      add\n      swap2\n      dup5\n      0x01\n      dup4\n      mul\n      dup5\n      add\n      gt\n      0x0100000000\n      dup4\n      gt\n      or\n      iszero\n      tag_27\n      jumpi\n      0x00\n      dup1\n      revert\n    tag_27:\n      swap2\n      swap1\n      dup1\n      dup1\n      0x1f\n      add\n      0x20\n      dup1\n      swap2\n      div\n      mul\n      0x20\n      add\n      mload(0x40)\n      swap1\n      dup2\n      add\n      0x40\n      mstore\n      dup1\n      swap4\n      swap3\n      swap2\n      swap1\n      dup2\n      dup2\n      mstore\n      0x20\n      add\n      dup4\n      dup4\n      dup1\n      dup3\n      dup5\n      calldatacopy\n      0x00\n      dup2\n      dup5\n      add\n      mstore\n      not(0x1f)\n      0x1f\n      dup3\n      add\n      and\n      swap1\n      pop\n      dup1\n      dup4\n      add\n      swap3\n      pop\n      pop\n      pop\n      pop\n      pop\n      pop\n      pop\n      swap2\n      swap3\n      swap2\n      swap3\n      swap1\n      pop\n      pop\n      pop\n      tag_28\n      jump\t// in\n    tag_23:\n      stop\n        /* \"Umbra-Cash/contracts/Umbra.sol\":3858:3974  function setTollCollector(address _newTollCollector) external onlyOwner {... */\n    tag_3:\n      callvalue\n      dup1\n      iszero\n      tag_29\n      jumpi\n      0x00\n      dup1\n      revert\n    tag_29:\n      pop\n      tag_30\n      0x04\n      dup1\n      calldatasize\n      sub\n      0x20\n      dup2\n      lt\n      iszero\n      tag_31\n      jumpi\n      0x00\n      dup1\n      revert\n    tag_31:\n      dup2\n      add\n      swap1\n      dup1\n      dup1\n      calldataload\n      0xffffffffffffffffffffffffffffffffffffffff\n      and\n      swap1\n      0x20\n      add\n      swap1\n      swap3\n      swap2\n      swap1\n      pop\n      pop\n      pop\n      tag_32\n      jump\t// in\n    tag_30:\n      stop\n        /* \"Umbra-Cash/contracts/Umbra.sol\":4350:4509  function collectTolls() external {... */\n    tag_4:\n      callvalue\n      dup1\n      iszero\n      tag_33\n      jumpi\n      0x00\n      dup1\n      revert\n    tag_33:\n      pop\n      tag_34\n      tag_35\n      jump\t// in\n    tag_34:\n      stop\n        /* \"Umbra-Cash/contracts/Umbra.sol\":10142:10638  function withdrawTokenAndCallOnBehalf(... */\n    tag_5:\n      callvalue\n      dup1\n      iszero\n      tag_36\n      jumpi\n      0x00\n      dup1\n      revert\n    tag_36:\n      pop\n      tag_37\n      0x04\n      dup1\n      calldatasize\n      sub\n      0x0140\n      dup2\n      lt\n      iszero\n      tag_38\n      jumpi\n      0x00\n      dup1\n      revert\n    tag_38:\n      dup2\n      add\n      swap1\n      dup1\n      dup1\n      calldataload\n      0xffffffffffffffffffffffffffffffffffffffff\n      and\n      swap1\n      0x20\n      add\n      swap1\n      swap3\n      swap2\n      swap1\n      dup1\n      calldataload\n      0xffffffffffffffffffffffffffffffffffffffff\n      and\n      swap1\n      0x20\n      add\n      swap1\n      swap3\n      swap2\n      swap1\n      dup1\n      calldataload\n      0xffffffffffffffffffffffffffffffffffffffff\n      and\n      swap1\n      0x20\n      add\n      swap1\n      swap3\n      swap2\n      swap1\n      dup1\n      calldataload\n      0xffffffffffffffffffffffffffffffffffffffff\n      and\n      swap1\n      0x20\n      add\n      swap1\n      swap3\n      swap2\n      swap1\n      dup1\n      calldataload\n      swap1\n      0x20\n      add\n      swap1\n      swap3\n      swap2\n      swap1\n      dup1\n      calldataload\n      0xffffffffffffffffffffffffffffffffffffffff\n      and\n      swap1\n      0x20\n      add\n      swap1\n      swap3\n      swap2\n      swap1\n      dup1\n      calldataload\n      swap1\n      0x20\n      add\n      swap1\n      0x0100000000\n      dup2\n      gt\n      iszero\n      tag_39\n      jumpi\n      0x00\n      dup1\n      revert\n    tag_39:\n      dup3\n      add\n      dup4\n      0x20\n      dup3\n      add\n      gt\n      iszero\n      tag_40\n      jumpi\n      0x00\n      dup1\n      revert\n    tag_40:\n      dup1\n      calldataload\n      swap1\n      0x20\n      add\n      swap2\n      dup5\n      0x01\n      dup4\n      mul\n      dup5\n      add\n      gt\n      0x0100000000\n      dup4\n      gt\n      or\n      iszero\n      tag_41\n      jumpi\n      0x00\n      dup1\n      revert\n    tag_41:\n      swap2\n      swap1\n      dup1\n      dup1\n      0x1f\n      add\n      0x20\n      dup1\n      swap2\n      div\n      mul\n      0x20\n      add\n      mload(0x40)\n      swap1\n      dup2\n      add\n      0x40\n      mstore\n      dup1\n      swap4\n      swap3\n      swap2\n      swap1\n      dup2\n      dup2\n      mstore\n      0x20\n      add\n      dup4\n      dup4\n      dup1\n      dup3\n      dup5\n      calldatacopy\n      0x00\n      dup2\n      dup5\n      add\n      mstore\n      not(0x1f)\n      0x1f\n      dup3\n      add\n      and\n      swap1\n      pop\n      dup1\n      dup4\n      add\n      swap3\n      pop\n      pop\n      pop\n      pop\n      pop\n      pop\n      pop\n      swap2\n      swap3\n      swap2\n      swap3\n      swap1\n      dup1\n      calldataload\n      0xff\n      and\n      swap1\n      0x20\n      add\n      swap1\n      swap3\n      swap2\n      swap1\n      dup1\n      calldataload\n      swap1\n      0x20\n      add\n      swap1\n      swap3\n      swap2\n      swap1\n      dup1\n      calldataload\n      swap1\n      0x20\n      add\n      swap1\n      swap3\n      swap2\n      swap1\n      pop\n      pop\n      pop\n      tag_42\n      jump\t// in\n    tag_37:\n      stop\n        /* \"Umbra-Cash/contracts/Umbra.sol\":2588:2607  uint256 public toll */\n    tag_6:\n      callvalue\n      dup1\n      iszero\n      tag_43\n      jumpi\n      0x00\n      dup1\n      revert\n    tag_43:\n      pop\n      tag_44\n      tag_45\n      jump\t// in\n    tag_44:\n      mload(0x40)\n      dup1\n      dup3\n      dup2\n      mstore\n      0x20\n      add\n      swap2\n      pop\n      pop\n      mload(0x40)\n      dup1\n      swap2\n      sub\n      swap1\n      return\n        /* \"Umbra-Cash/contracts/Umbra.sol\":7158:7339  function withdrawToken(address _acceptor, address _tokenAddr) external {... */\n    tag_7:\n      callvalue\n      dup1\n      iszero\n      tag_46\n      jumpi\n      0x00\n      dup1\n      revert\n    tag_46:\n      pop\n      tag_47\n      0x04\n      dup1\n      calldatasize\n      sub\n      0x40\n      dup2\n      lt\n      iszero\n      tag_48\n      jumpi\n      0x00\n      dup1\n      revert\n    tag_48:\n      dup2\n      add\n      swap1\n      dup1\n      dup1\n      calldataload\n      0xffffffffffffffffffffffffffffffffffffffff\n      and\n      swap1\n      0x20\n      add\n      swap1\n      swap3\n      swap2\n      swap1\n      dup1\n      calldataload\n      0xffffffffffffffffffffffffffffffffffffffff\n      and\n      swap1\n      0x20\n      add\n      swap1\n      swap3\n      swap2\n      swap1\n      pop\n      pop\n      pop\n      tag_49\n      jump\t// in\n    tag_47:\n      stop\n        /* \"Umbra-Cash/@openzeppelin/contracts/access/Ownable.sol\":2988:3133  function renounceOwnership() public virtual onlyOwner {... */\n    tag_8:\n      callvalue\n      dup1\n      iszero\n      tag_50\n      jumpi\n      0x00\n      dup1\n      revert\n    tag_50:\n      pop\n      tag_51\n      tag_52\n      jump\t// in\n    tag_51:\n      stop\n        /* \"Umbra-Cash/contracts/Umbra.sol\":2705:2733  address public tollCollector */\n    tag_9:\n      callvalue\n      dup1\n      iszero\n      tag_53\n      jumpi\n      0x00\n      dup1\n      revert\n    tag_53:\n      pop\n      tag_54\n      tag_55\n      jump\t// in\n    tag_54:\n      mload(0x40)\n      dup1\n      dup3\n      0xffffffffffffffffffffffffffffffffffffffff\n      and\n      dup2\n      mstore\n      0x20\n      add\n      swap2\n      pop\n      pop\n      mload(0x40)\n      dup1\n      swap2\n      sub\n      swap1\n      return\n        /* \"Umbra-Cash/contracts/Umbra.sol\":8742:9269  function withdrawTokenOnBehalf(... */\n    tag_10:\n      callvalue\n      dup1\n      iszero\n      tag_56\n      jumpi\n      0x00\n      dup1\n      revert\n    tag_56:\n      pop\n      tag_57\n      0x04\n      dup1\n      calldatasize\n      sub\n      0x0100\n      dup2\n      lt\n      iszero\n      tag_58\n      jumpi\n      0x00\n      dup1\n      revert\n    tag_58:\n      dup2\n      add\n      swap1\n      dup1\n      dup1\n      calldataload\n      0xffffffffffffffffffffffffffffffffffffffff\n      and\n      swap1\n      0x20\n      add\n      swap1\n      swap3\n      swap2\n      swap1\n      dup1\n      calldataload\n      0xffffffffffffffffffffffffffffffffffffffff\n      and\n      swap1\n      0x20\n      add\n      swap1\n      swap3\n      swap2\n      swap1\n      dup1\n      calldataload\n      0xffffffffffffffffffffffffffffffffffffffff\n      and\n      swap1\n      0x20\n      add\n      swap1\n      swap3\n      swap2\n      swap1\n      dup1\n      calldataload\n      0xffffffffffffffffffffffffffffffffffffffff\n      and\n      swap1\n      0x20\n      add\n      swap1\n      swap3\n      swap2\n      swap1\n      dup1\n      calldataload\n      swap1\n      0x20\n      add\n      swap1\n      swap3\n      swap2\n      swap1\n      dup1\n      calldataload\n      0xff\n      and\n      swap1\n      0x20\n      add\n      swap1\n      swap3\n      swap2\n      swap1\n      dup1\n      calldataload\n      swap1\n      0x20\n      add\n      swap1\n      swap3\n      swap2\n      swap1\n      dup1\n      calldataload\n      swap1\n      0x20\n      add\n      swap1\n      swap3\n      swap2\n      swap1\n      pop\n      pop\n      pop\n      tag_59\n      jump\t// in\n    tag_57:\n      stop\n        /* \"Umbra-Cash/@openzeppelin/contracts/access/Ownable.sol\":2356:2441  function owner() public view virtual returns (address) {... */\n    tag_11:\n      callvalue\n      dup1\n      iszero\n      tag_60\n      jumpi\n      0x00\n      dup1\n      revert\n    tag_60:\n      pop\n      tag_61\n      tag_62\n      jump\t// in\n    tag_61:\n      mload(0x40)\n      dup1\n      dup3\n      0xffffffffffffffffffffffffffffffffffffffff\n      and\n      dup2\n      mstore\n      0x20\n      add\n      swap2\n      pop\n      pop\n      mload(0x40)\n      dup1\n      swap2\n      sub\n      swap1\n      return\n        /* \"Umbra-Cash/contracts/Umbra.sol\":2957:3025  mapping(address => mapping(address => uint256)) public tokenPayments */\n    tag_12:\n      callvalue\n      dup1\n      iszero\n      tag_63\n      jumpi\n      0x00\n      dup1\n      revert\n    tag_63:\n      pop\n      tag_64\n      0x04\n      dup1\n      calldatasize\n      sub\n      0x40\n      dup2\n      lt\n      iszero\n      tag_65\n      jumpi\n      0x00\n      dup1\n      revert\n    tag_65:\n      dup2\n      add\n      swap1\n      dup1\n      dup1\n      calldataload\n      0xffffffffffffffffffffffffffffffffffffffff\n      and\n      swap1\n      0x20\n      add\n      swap1\n      swap3\n      swap2\n      swap1\n      dup1\n      calldataload\n      0xffffffffffffffffffffffffffffffffffffffff\n      and\n      swap1\n      0x20\n      add\n      swap1\n      swap3\n      swap2\n      swap1\n      pop\n      pop\n      pop\n      tag_66\n      jump\t// in\n    tag_64:\n      mload(0x40)\n      dup1\n      dup3\n      dup2\n      mstore\n      0x20\n      add\n      swap2\n      pop\n      pop\n      mload(0x40)\n      dup1\n      swap2\n      sub\n      swap1\n      return\n        /* \"Umbra-Cash/contracts/Umbra.sol\":3623:3703  function setToll(uint256 _newToll) external onlyOwner {... */\n    tag_13:\n      callvalue\n      dup1\n      iszero\n      tag_67\n      jumpi\n      0x00\n      dup1\n      revert\n    tag_67:\n      pop\n      tag_68\n      0x04\n      dup1\n      calldatasize\n      sub\n      0x20\n      dup2\n      lt\n      iszero\n      tag_69\n      jumpi\n      0x00\n      dup1\n      revert\n    tag_69:\n      dup2\n      add\n      swap1\n      dup1\n      dup1\n      calldataload\n      swap1\n      0x20\n      add\n      swap1\n      swap3\n      swap2\n      swap1\n      pop\n      pop\n      pop\n      tag_70\n      jump\t// in\n    tag_68:\n      stop\n        /* \"Umbra-Cash/contracts/Umbra.sol\":2825:2860  address payable public tollReceiver */\n    tag_14:\n      callvalue\n      dup1\n      iszero\n      tag_71\n      jumpi\n      0x00\n      dup1\n      revert\n    tag_71:\n      pop\n      tag_72\n      tag_73\n      jump\t// in\n    tag_72:\n      mload(0x40)\n      dup1\n      dup3\n      0xffffffffffffffffffffffffffffffffffffffff\n      and\n      dup2\n      mstore\n      0x20\n      add\n      swap2\n      pop\n      pop\n      mload(0x40)\n      dup1\n      swap2\n      sub\n      swap1\n      return\n        /* \"Umbra-Cash/contracts/Umbra.sol\":6184:6768  function sendToken(... */\n    tag_15:\n      tag_74\n      0x04\n      dup1\n      calldatasize\n      sub\n      0xa0\n      dup2\n      lt\n      iszero\n      tag_75\n      jumpi\n      0x00\n      dup1\n      revert\n    tag_75:\n      dup2\n      add\n      swap1\n      dup1\n      dup1\n      calldataload\n      0xffffffffffffffffffffffffffffffffffffffff\n      and\n      swap1\n      0x20\n      add\n      swap1\n      swap3\n      swap2\n      swap1\n      dup1\n      calldataload\n      0xffffffffffffffffffffffffffffffffffffffff\n      and\n      swap1\n      0x20\n      add\n      swap1\n      swap3\n      swap2\n      swap1\n      dup1\n      calldataload\n      swap1\n      0x20\n      add\n      swap1\n      swap3\n      swap2\n      swap1\n      dup1\n      calldataload\n      swap1\n      0x20\n      add\n      swap1\n      swap3\n      swap2\n      swap1\n      dup1\n      calldataload\n      swap1\n      0x20\n      add\n      swap1\n      swap3\n      swap2\n      swap1\n      pop\n      pop\n      pop\n      tag_76\n      jump\t// in\n    tag_74:\n      stop\n        /* \"Umbra-Cash/contracts/Umbra.sol\":5188:5717  function sendEth(... */\n    tag_16:\n      tag_77\n      0x04\n      dup1\n      calldatasize\n      sub\n      0x80\n      dup2\n      lt\n      iszero\n      tag_78\n      jumpi\n      0x00\n      dup1\n      revert\n    tag_78:\n      dup2\n      add\n      swap1\n      dup1\n      dup1\n      calldataload\n      0xffffffffffffffffffffffffffffffffffffffff\n      and\n      swap1\n      0x20\n      add\n      swap1\n      swap3\n      swap2\n      swap1\n      dup1\n      calldataload\n      swap1\n      0x20\n      add\n      swap1\n      swap3\n      swap2\n      swap1\n      dup1\n      calldataload\n      swap1\n      0x20\n      add\n      swap1\n      swap3\n      swap2\n      swap1\n      dup1\n      calldataload\n      swap1\n      0x20\n      add\n      swap1\n      swap3\n      swap2\n      swap1\n      pop\n      pop\n      pop\n      tag_79\n      jump\t// in\n    tag_77:\n      stop\n        /* \"Umbra-Cash/contracts/Umbra.sol\":4123:4243  function setTollReceiver(address payable _newTollReceiver) external onlyOwner {... */\n    tag_17:\n      callvalue\n      dup1\n      iszero\n      tag_80\n      jumpi\n      0x00\n      dup1\n      revert\n    tag_80:\n      pop\n      tag_81\n      0x04\n      dup1\n      calldatasize\n      sub\n      0x20\n      dup2\n      lt\n      iszero\n      tag_82\n      jumpi\n      0x00\n      dup1\n      revert\n    tag_82:\n      dup2\n      add\n      swap1\n      dup1\n      dup1\n      calldataload\n      0xffffffffffffffffffffffffffffffffffffffff\n      and\n      swap1\n      0x20\n      add\n      swap1\n      swap3\n      swap2\n      swap1\n      pop\n      pop\n      pop\n      tag_83\n      jump\t// in\n    tag_81:\n      stop\n        /* \"Umbra-Cash/@openzeppelin/contracts/access/Ownable.sol\":3282:3522  function transferOwnership(address newOwner) public virtual onlyOwner {... */\n    tag_18:\n      callvalue\n      dup1\n      iszero\n      tag_84\n      jumpi\n      0x00\n      dup1\n      revert\n    tag_84:\n      pop\n      tag_85\n      0x04\n      dup1\n      calldatasize\n      sub\n      0x20\n      dup2\n      lt\n      iszero\n      tag_86\n      jumpi\n      0x00\n      dup1\n      revert\n    tag_86:\n      dup2\n      add\n      swap1\n      dup1\n      dup1\n      calldataload\n      0xffffffffffffffffffffffffffffffffffffffff\n      and\n      swap1\n      0x20\n      add\n      swap1\n      swap3\n      swap2\n      swap1\n      pop\n      pop\n      pop\n      tag_87\n      jump\t// in\n    tag_85:\n      stop\n        /* \"Umbra-Cash/contracts/Umbra.sol\":7804:8045  function withdrawTokenAndCall(... */\n    tag_28:\n        /* \"Umbra-Cash/contracts/Umbra.sol\":7954:8040  _withdrawTokenInternal(msg.sender, _acceptor, _tokenAddr, address(0), 0, _hook, _data) */\n      tag_89\n        /* \"Umbra-Cash/contracts/Umbra.sol\":7977:7987  msg.sender */\n      caller\n        /* \"Umbra-Cash/contracts/Umbra.sol\":7989:7998  _acceptor */\n      dup6\n        /* \"Umbra-Cash/contracts/Umbra.sol\":8000:8010  _tokenAddr */\n      dup6\n        /* \"Umbra-Cash/contracts/Umbra.sol\":8020:8021  0 */\n      0x00\n        /* \"Umbra-Cash/contracts/Umbra.sol\":8024:8025  0 */\n      dup1\n        /* \"Umbra-Cash/contracts/Umbra.sol\":8027:8032  _hook */\n      dup8\n        /* \"Umbra-Cash/contracts/Umbra.sol\":8034:8039  _data */\n      dup8\n        /* \"Umbra-Cash/contracts/Umbra.sol\":7954:7976  _withdrawTokenInternal */\n      tag_90\n        /* \"Umbra-Cash/contracts/Umbra.sol\":7954:8040  _withdrawTokenInternal(msg.sender, _acceptor, _tokenAddr, address(0), 0, _hook, _data) */\n      jump\t// in\n    tag_89:\n        /* \"Umbra-Cash/contracts/Umbra.sol\":7804:8045  function withdrawTokenAndCall(... */\n      pop\n      pop\n      pop\n      pop\n      jump\t// out\n        /* \"Umbra-Cash/contracts/Umbra.sol\":3858:3974  function setTollCollector(address _newTollCollector) external onlyOwner {... */\n    tag_32:\n        /* \"Umbra-Cash/@openzeppelin/contracts/access/Ownable.sol\":2579:2591  _msgSender() */\n      tag_92\n        /* \"Umbra-Cash/@openzeppelin/contracts/access/Ownable.sol\":2579:2589  _msgSender */\n      tag_93\n        /* \"Umbra-Cash/@openzeppelin/contracts/access/Ownable.sol\":2579:2591  _msgSender() */\n      jump\t// in\n    tag_92:\n        /* \"Umbra-Cash/@openzeppelin/contracts/access/Ownable.sol\":2568:2591  owner() == _msgSender() */\n      0xffffffffffffffffffffffffffffffffffffffff\n      and\n        /* \"Umbra-Cash/@openzeppelin/contracts/access/Ownable.sol\":2568:2575  owner() */\n      tag_94\n        /* \"Umbra-Cash/@openzeppelin/contracts/access/Ownable.sol\":2568:2573  owner */\n      tag_62\n        /* \"Umbra-Cash/@openzeppelin/contracts/access/Ownable.sol\":2568:2575  owner() */\n      jump\t// in\n    tag_94:\n        /* \"Umbra-Cash/@openzeppelin/contracts/access/Ownable.sol\":2568:2591  owner() == _msgSender() */\n      0xffffffffffffffffffffffffffffffffffffffff\n      and\n      eq\n        /* \"Umbra-Cash/@openzeppelin/contracts/access/Ownable.sol\":2560:2628  require(owner() == _msgSender(), \"Ownable: caller is not the owner\") */\n      tag_95\n      jumpi\n      mload(0x40)\n      0x08c379a000000000000000000000000000000000000000000000000000000000\n      dup2\n      mstore\n      0x04\n      add\n      dup1\n      dup1\n      0x20\n      add\n      dup3\n      dup2\n      sub\n      dup3\n      mstore\n      0x20\n      dup2\n      mstore\n      0x20\n      add\n      dup1\n      0x4f776e61626c653a2063616c6c6572206973206e6f7420746865206f776e6572\n      dup2\n      mstore\n      pop\n      0x20\n      add\n      swap2\n      pop\n      pop\n      mload(0x40)\n      dup1\n      swap2\n      sub\n      swap1\n      revert\n    tag_95:\n        /* \"Umbra-Cash/contracts/Umbra.sol\":3952:3969  _newTollCollector */\n      dup1\n        /* \"Umbra-Cash/contracts/Umbra.sol\":3936:3949  tollCollector */\n      0x02\n      0x00\n        /* \"Umbra-Cash/contracts/Umbra.sol\":3936:3969  tollCollector = _newTollCollector */\n      0x0100\n      exp\n      dup2\n      sload\n      dup2\n      0xffffffffffffffffffffffffffffffffffffffff\n      mul\n      not\n      and\n      swap1\n      dup4\n      0xffffffffffffffffffffffffffffffffffffffff\n      and\n      mul\n      or\n      swap1\n      sstore\n      pop\n        /* \"Umbra-Cash/contracts/Umbra.sol\":3858:3974  function setTollCollector(address _newTollCollector) external onlyOwner {... */\n      pop\n      jump\t// out\n        /* \"Umbra-Cash/contracts/Umbra.sol\":4350:4509  function collectTolls() external {... */\n    tag_35:\n        /* \"Umbra-Cash/contracts/Umbra.sol\":4411:4424  tollCollector */\n      0x02\n      0x00\n      swap1\n      sload\n      swap1\n      0x0100\n      exp\n      swap1\n      div\n      0xffffffffffffffffffffffffffffffffffffffff\n      and\n        /* \"Umbra-Cash/contracts/Umbra.sol\":4397:4424  msg.sender == tollCollector */\n      0xffffffffffffffffffffffffffffffffffffffff\n      and\n        /* \"Umbra-Cash/contracts/Umbra.sol\":4397:4407  msg.sender */\n      caller\n        /* \"Umbra-Cash/contracts/Umbra.sol\":4397:4424  msg.sender == tollCollector */\n      0xffffffffffffffffffffffffffffffffffffffff\n      and\n      eq\n        /* \"Umbra-Cash/contracts/Umbra.sol\":4389:4454  require(msg.sender == tollCollector, \"Umbra: Not toll collector\") */\n      tag_98\n      jumpi\n      mload(0x40)\n      0x08c379a000000000000000000000000000000000000000000000000000000000\n      dup2\n      mstore\n      0x04\n      add\n      dup1\n      dup1\n      0x20\n      add\n      dup3\n      dup2\n      sub\n      dup3\n      mstore\n      0x19\n      dup2\n      mstore\n      0x20\n      add\n      dup1\n      0x556d6272613a204e6f7420746f6c6c20636f6c6c6563746f7200000000000000\n      dup2\n      mstore\n      pop\n      0x20\n      add\n      swap2\n      pop\n      pop\n      mload(0x40)\n      dup1\n      swap2\n      sub\n      swap1\n      revert\n    tag_98:\n        /* \"Umbra-Cash/contracts/Umbra.sol\":4460:4472  tollReceiver */\n      0x03\n      0x00\n      swap1\n      sload\n      swap1\n      0x0100\n      exp\n      swap1\n      div\n      0xffffffffffffffffffffffffffffffffffffffff\n      and\n        /* \"Umbra-Cash/contracts/Umbra.sol\":4460:4481  tollReceiver.transfer */\n      0xffffffffffffffffffffffffffffffffffffffff\n      and\n        /* \"Umbra-Cash/contracts/Umbra.sol\":4460:4504  tollReceiver.transfer(address(this).balance) */\n      0x08fc\n        /* \"Umbra-Cash/contracts/Umbra.sol\":4482:4503  address(this).balance */\n      selfbalance\n        /* \"Umbra-Cash/contracts/Umbra.sol\":4460:4504  tollReceiver.transfer(address(this).balance) */\n      swap1\n      dup2\n      iszero\n      mul\n      swap1\n      mload(0x40)\n      0x00\n      mload(0x40)\n      dup1\n      dup4\n      sub\n      dup2\n      dup6\n      dup9\n      dup9\n      call\n      swap4\n      pop\n      pop\n      pop\n      pop\n      iszero\n      dup1\n      iszero\n      tag_100\n      jumpi\n      returndatasize\n      0x00\n      dup1\n      returndatacopy\n      revert(0x00, returndatasize)\n    tag_100:\n      pop\n        /* \"Umbra-Cash/contracts/Umbra.sol\":4350:4509  function collectTolls() external {... */\n      jump\t// out\n        /* \"Umbra-Cash/contracts/Umbra.sol\":10142:10638  function withdrawTokenAndCallOnBehalf(... */\n    tag_42:\n        /* \"Umbra-Cash/contracts/Umbra.sol\":10419:10531  _validateWithdrawSignature(_stealthAddr, _acceptor, _tokenAddr, _sponsor, _sponsorFee, _hook, _data, _v, _r, _s) */\n      tag_102\n        /* \"Umbra-Cash/contracts/Umbra.sol\":10446:10458  _stealthAddr */\n      dup11\n        /* \"Umbra-Cash/contracts/Umbra.sol\":10460:10469  _acceptor */\n      dup11\n        /* \"Umbra-Cash/contracts/Umbra.sol\":10471:10481  _tokenAddr */\n      dup11\n        /* \"Umbra-Cash/contracts/Umbra.sol\":10483:10491  _sponsor */\n      dup11\n        /* \"Umbra-Cash/contracts/Umbra.sol\":10493:10504  _sponsorFee */\n      dup11\n        /* \"Umbra-Cash/contracts/Umbra.sol\":10506:10511  _hook */\n      dup11\n        /* \"Umbra-Cash/contracts/Umbra.sol\":10513:10518  _data */\n      dup11\n        /* \"Umbra-Cash/contracts/Umbra.sol\":10520:10522  _v */\n      dup11\n        /* \"Umbra-Cash/contracts/Umbra.sol\":10524:10526  _r */\n      dup11\n        /* \"Umbra-Cash/contracts/Umbra.sol\":10528:10530  _s */\n      dup11\n        /* \"Umbra-Cash/contracts/Umbra.sol\":10419:10445  _validateWithdrawSignature */\n      tag_103\n        /* \"Umbra-Cash/contracts/Umbra.sol\":10419:10531  _validateWithdrawSignature(_stealthAddr, _acceptor, _tokenAddr, _sponsor, _sponsorFee, _hook, _data, _v, _r, _s) */\n      jump\t// in\n    tag_102:\n        /* \"Umbra-Cash/contracts/Umbra.sol\":10537:10633  _withdrawTokenInternal(_stealthAddr, _acceptor, _tokenAddr, _sponsor, _sponsorFee, _hook, _data) */\n      tag_104\n        /* \"Umbra-Cash/contracts/Umbra.sol\":10560:10572  _stealthAddr */\n      dup11\n        /* \"Umbra-Cash/contracts/Umbra.sol\":10574:10583  _acceptor */\n      dup11\n        /* \"Umbra-Cash/contracts/Umbra.sol\":10585:10595  _tokenAddr */\n      dup11\n        /* \"Umbra-Cash/contracts/Umbra.sol\":10597:10605  _sponsor */\n      dup11\n        /* \"Umbra-Cash/contracts/Umbra.sol\":10607:10618  _sponsorFee */\n      dup11\n        /* \"Umbra-Cash/contracts/Umbra.sol\":10620:10625  _hook */\n      dup11\n        /* \"Umbra-Cash/contracts/Umbra.sol\":10627:10632  _data */\n      dup11\n        /* \"Umbra-Cash/contracts/Umbra.sol\":10537:10559  _withdrawTokenInternal */\n      tag_90\n        /* \"Umbra-Cash/contracts/Umbra.sol\":10537:10633  _withdrawTokenInternal(_stealthAddr, _acceptor, _tokenAddr, _sponsor, _sponsorFee, _hook, _data) */\n      jump\t// in\n    tag_104:\n        /* \"Umbra-Cash/contracts/Umbra.sol\":10142:10638  function withdrawTokenAndCallOnBehalf(... */\n      pop\n      pop\n      pop\n      pop\n      pop\n      pop\n      pop\n      pop\n      pop\n      pop\n      jump\t// out\n        /* \"Umbra-Cash/contracts/Umbra.sol\":2588:2607  uint256 public toll */\n    tag_45:\n      sload(0x01)\n      dup2\n      jump\t// out\n        /* \"Umbra-Cash/contracts/Umbra.sol\":7158:7339  function withdrawToken(address _acceptor, address _tokenAddr) external {... */\n    tag_49:\n        /* \"Umbra-Cash/contracts/Umbra.sol\":7235:7334  _withdrawTokenInternal(msg.sender, _acceptor, _tokenAddr, address(0), 0, IUmbraHookReceiver(0), \"\") */\n      tag_106\n        /* \"Umbra-Cash/contracts/Umbra.sol\":7258:7268  msg.sender */\n      caller\n        /* \"Umbra-Cash/contracts/Umbra.sol\":7270:7279  _acceptor */\n      dup4\n        /* \"Umbra-Cash/contracts/Umbra.sol\":7281:7291  _tokenAddr */\n      dup4\n        /* \"Umbra-Cash/contracts/Umbra.sol\":7301:7302  0 */\n      0x00\n        /* \"Umbra-Cash/contracts/Umbra.sol\":7305:7306  0 */\n      dup1\n        /* \"Umbra-Cash/contracts/Umbra.sol\":7327:7328  0 */\n      0x00\n        /* \"Umbra-Cash/contracts/Umbra.sol\":7235:7334  _withdrawTokenInternal(msg.sender, _acceptor, _tokenAddr, address(0), 0, IUmbraHookReceiver(0), \"\") */\n      mload(0x40)\n      dup1\n      0x20\n      add\n      0x40\n      mstore\n      dup1\n      0x00\n      dup2\n      mstore\n      pop\n        /* \"Umbra-Cash/contracts/Umbra.sol\":7235:7257  _withdrawTokenInternal */\n      tag_90\n        /* \"Umbra-Cash/contracts/Umbra.sol\":7235:7334  _withdrawTokenInternal(msg.sender, _acceptor, _tokenAddr, address(0), 0, IUmbraHookReceiver(0), \"\") */\n      jump\t// in\n    tag_106:\n        /* \"Umbra-Cash/contracts/Umbra.sol\":7158:7339  function withdrawToken(address _acceptor, address _tokenAddr) external {... */\n      pop\n      pop\n      jump\t// out\n        /* \"Umbra-Cash/@openzeppelin/contracts/access/Ownable.sol\":2988:3133  function renounceOwnership() public virtual onlyOwner {... */\n    tag_52:\n        /* \"Umbra-Cash/@openzeppelin/contracts/access/Ownable.sol\":2579:2591  _msgSender() */\n      tag_108\n        /* \"Umbra-Cash/@openzeppelin/contracts/access/Ownable.sol\":2579:2589  _msgSender */\n      tag_93\n        /* \"Umbra-Cash/@openzeppelin/contracts/access/Ownable.sol\":2579:2591  _msgSender() */\n      jump\t// in\n    tag_108:\n        /* \"Umbra-Cash/@openzeppelin/contracts/access/Ownable.sol\":2568:2591  owner() == _msgSender() */\n      0xffffffffffffffffffffffffffffffffffffffff\n      and\n        /* \"Umbra-Cash/@openzeppelin/contracts/access/Ownable.sol\":2568:2575  owner() */\n      tag_109\n        /* \"Umbra-Cash/@openzeppelin/contracts/access/Ownable.sol\":2568:2573  owner */\n      tag_62\n        /* \"Umbra-Cash/@openzeppelin/contracts/access/Ownable.sol\":2568:2575  owner() */\n      jump\t// in\n    tag_109:\n        /* \"Umbra-Cash/@openzeppelin/contracts/access/Ownable.sol\":2568:2591  owner() == _msgSender() */\n      0xffffffffffffffffffffffffffffffffffffffff\n      and\n      eq\n        /* \"Umbra-Cash/@openzeppelin/contracts/access/Ownable.sol\":2560:2628  require(owner() == _msgSender(), \"Ownable: caller is not the owner\") */\n      tag_110\n      jumpi\n      mload(0x40)\n      0x08c379a000000000000000000000000000000000000000000000000000000000\n      dup2\n      mstore\n      0x04\n      add\n      dup1\n      dup1\n      0x20\n      add\n      dup3\n      dup2\n      sub\n      dup3\n      mstore\n      0x20\n      dup2\n      mstore\n      0x20\n      add\n      dup1\n      0x4f776e61626c653a2063616c6c6572206973206e6f7420746865206f776e6572\n      dup2\n      mstore\n      pop\n      0x20\n      add\n      swap2\n      pop\n      pop\n      mload(0x40)\n      dup1\n      swap2\n      sub\n      swap1\n      revert\n    tag_110:\n        /* \"Umbra-Cash/@openzeppelin/contracts/access/Ownable.sol\":3094:3095  0 */\n      0x00\n        /* \"Umbra-Cash/@openzeppelin/contracts/access/Ownable.sol\":3057:3097  OwnershipTransferred(_owner, address(0)) */\n      0xffffffffffffffffffffffffffffffffffffffff\n      and\n        /* \"Umbra-Cash/@openzeppelin/contracts/access/Ownable.sol\":3078:3084  _owner */\n      0x00\n      dup1\n      sload\n      swap1\n      0x0100\n      exp\n      swap1\n      div\n      0xffffffffffffffffffffffffffffffffffffffff\n      and\n        /* \"Umbra-Cash/@openzeppelin/contracts/access/Ownable.sol\":3057:3097  OwnershipTransferred(_owner, address(0)) */\n      0xffffffffffffffffffffffffffffffffffffffff\n      and\n      0x8be0079c531659141344cd1fd0a4f28419497f9722a3daafe3b4186f6b6457e0\n      mload(0x40)\n      mload(0x40)\n      dup1\n      swap2\n      sub\n      swap1\n      log3\n        /* \"Umbra-Cash/@openzeppelin/contracts/access/Ownable.sol\":3124:3125  0 */\n      0x00\n        /* \"Umbra-Cash/@openzeppelin/contracts/access/Ownable.sol\":3107:3113  _owner */\n      dup1\n      0x00\n        /* \"Umbra-Cash/@openzeppelin/contracts/access/Ownable.sol\":3107:3126  _owner = address(0) */\n      0x0100\n      exp\n      dup2\n      sload\n      dup2\n      0xffffffffffffffffffffffffffffffffffffffff\n      mul\n      not\n      and\n      swap1\n      dup4\n      0xffffffffffffffffffffffffffffffffffffffff\n      and\n      mul\n      or\n      swap1\n      sstore\n      pop\n        /* \"Umbra-Cash/@openzeppelin/contracts/access/Ownable.sol\":2988:3133  function renounceOwnership() public virtual onlyOwner {... */\n      jump\t// out\n        /* \"Umbra-Cash/contracts/Umbra.sol\":2705:2733  address public tollCollector */\n    tag_55:\n      0x02\n      0x00\n      swap1\n      sload\n      swap1\n      0x0100\n      exp\n      swap1\n      div\n      0xffffffffffffffffffffffffffffffffffffffff\n      and\n      dup2\n      jump\t// out\n        /* \"Umbra-Cash/contracts/Umbra.sol\":8742:9269  function withdrawTokenOnBehalf(... */\n    tag_59:\n        /* \"Umbra-Cash/contracts/Umbra.sol\":8958:9149  _validateWithdrawSignature(... */\n      tag_113\n        /* \"Umbra-Cash/contracts/Umbra.sol\":8992:9004  _stealthAddr */\n      dup9\n        /* \"Umbra-Cash/contracts/Umbra.sol\":9012:9021  _acceptor */\n      dup9\n        /* \"Umbra-Cash/contracts/Umbra.sol\":9029:9039  _tokenAddr */\n      dup9\n        /* \"Umbra-Cash/contracts/Umbra.sol\":9047:9055  _sponsor */\n      dup9\n        /* \"Umbra-Cash/contracts/Umbra.sol\":9063:9074  _sponsorFee */\n      dup9\n        /* \"Umbra-Cash/contracts/Umbra.sol\":9101:9102  0 */\n      0x00\n        /* \"Umbra-Cash/contracts/Umbra.sol\":8958:9149  _validateWithdrawSignature(... */\n      mload(0x40)\n      dup1\n      0x20\n      add\n      0x40\n      mstore\n      dup1\n      0x00\n      dup2\n      mstore\n      pop\n        /* \"Umbra-Cash/contracts/Umbra.sol\":9121:9123  _v */\n      dup11\n        /* \"Umbra-Cash/contracts/Umbra.sol\":9131:9133  _r */\n      dup11\n        /* \"Umbra-Cash/contracts/Umbra.sol\":9141:9143  _s */\n      dup11\n        /* \"Umbra-Cash/contracts/Umbra.sol\":8958:8984  _validateWithdrawSignature */\n      tag_103\n        /* \"Umbra-Cash/contracts/Umbra.sol\":8958:9149  _validateWithdrawSignature(... */\n      jump\t// in\n    tag_113:\n        /* \"Umbra-Cash/contracts/Umbra.sol\":9155:9264  _withdrawTokenInternal(_stealthAddr, _acceptor, _tokenAddr, _sponsor, _sponsorFee, IUmbraHookReceiver(0), \"\") */\n      tag_114\n        /* \"Umbra-Cash/contracts/Umbra.sol\":9178:9190  _stealthAddr */\n      dup9\n        /* \"Umbra-Cash/contracts/Umbra.sol\":9192:9201  _acceptor */\n      dup9\n        /* \"Umbra-Cash/contracts/Umbra.sol\":9203:9213  _tokenAddr */\n      dup9\n        /* \"Umbra-Cash/contracts/Umbra.sol\":9215:9223  _sponsor */\n      dup9\n        /* \"Umbra-Cash/contracts/Umbra.sol\":9225:9236  _sponsorFee */\n      dup9\n        /* \"Umbra-Cash/contracts/Umbra.sol\":9257:9258  0 */\n      0x00\n        /* \"Umbra-Cash/contracts/Umbra.sol\":9155:9264  _withdrawTokenInternal(_stealthAddr, _acceptor, _tokenAddr, _sponsor, _sponsorFee, IUmbraHookReceiver(0), \"\") */\n      mload(0x40)\n      dup1\n      0x20\n      add\n      0x40\n      mstore\n      dup1\n      0x00\n      dup2\n      mstore\n      pop\n        /* \"Umbra-Cash/contracts/Umbra.sol\":9155:9177  _withdrawTokenInternal */\n      tag_90\n        /* \"Umbra-Cash/contracts/Umbra.sol\":9155:9264  _withdrawTokenInternal(_stealthAddr, _acceptor, _tokenAddr, _sponsor, _sponsorFee, IUmbraHookReceiver(0), \"\") */\n      jump\t// in\n    tag_114:\n        /* \"Umbra-Cash/contracts/Umbra.sol\":8742:9269  function withdrawTokenOnBehalf(... */\n      pop\n      pop\n      pop\n      pop\n      pop\n      pop\n      pop\n      pop\n      jump\t// out\n        /* \"Umbra-Cash/@openzeppelin/contracts/access/Ownable.sol\":2356:2441  function owner() public view virtual returns (address) {... */\n    tag_62:\n        /* \"Umbra-Cash/@openzeppelin/contracts/access/Ownable.sol\":2402:2409  address */\n      0x00\n        /* \"Umbra-Cash/@openzeppelin/contracts/access/Ownable.sol\":2428:2434  _owner */\n      dup1\n      0x00\n      swap1\n      sload\n      swap1\n      0x0100\n      exp\n      swap1\n      div\n      0xffffffffffffffffffffffffffffffffffffffff\n      and\n        /* \"Umbra-Cash/@openzeppelin/contracts/access/Ownable.sol\":2421:2434  return _owner */\n      swap1\n      pop\n        /* \"Umbra-Cash/@openzeppelin/contracts/access/Ownable.sol\":2356:2441  function owner() public view virtual returns (address) {... */\n      swap1\n      jump\t// out\n        /* \"Umbra-Cash/contracts/Umbra.sol\":2957:3025  mapping(address => mapping(address => uint256)) public tokenPayments */\n    tag_66:\n      mstore(0x20, 0x04)\n      dup2\n      0x00\n      mstore\n      mstore(0x20, keccak256(0x00, 0x40))\n      dup1\n      0x00\n      mstore\n      keccak256(0x00, 0x40)\n      0x00\n      swap2\n      pop\n      swap2\n      pop\n      pop\n      sload\n      dup2\n      jump\t// out\n        /* \"Umbra-Cash/contracts/Umbra.sol\":3623:3703  function setToll(uint256 _newToll) external onlyOwner {... */\n    tag_70:\n        /* \"Umbra-Cash/@openzeppelin/contracts/access/Ownable.sol\":2579:2591  _msgSender() */\n      tag_117\n        /* \"Umbra-Cash/@openzeppelin/contracts/access/Ownable.sol\":2579:2589  _msgSender */\n      tag_93\n        /* \"Umbra-Cash/@openzeppelin/contracts/access/Ownable.sol\":2579:2591  _msgSender() */\n      jump\t// in\n    tag_117:\n        /* \"Umbra-Cash/@openzeppelin/contracts/access/Ownable.sol\":2568:2591  owner() == _msgSender() */\n      0xffffffffffffffffffffffffffffffffffffffff\n      and\n        /* \"Umbra-Cash/@openzeppelin/contracts/access/Ownable.sol\":2568:2575  owner() */\n      tag_118\n        /* \"Umbra-Cash/@openzeppelin/contracts/access/Ownable.sol\":2568:2573  owner */\n      tag_62\n        /* \"Umbra-Cash/@openzeppelin/contracts/access/Ownable.sol\":2568:2575  owner() */\n      jump\t// in\n    tag_118:\n        /* \"Umbra-Cash/@openzeppelin/contracts/access/Ownable.sol\":2568:2591  owner() == _msgSender() */\n      0xffffffffffffffffffffffffffffffffffffffff\n      and\n      eq\n        /* \"Umbra-Cash/@openzeppelin/contracts/access/Ownable.sol\":2560:2628  require(owner() == _msgSender(), \"Ownable: caller is not the owner\") */\n      tag_119\n      jumpi\n      mload(0x40)\n      0x08c379a000000000000000000000000000000000000000000000000000000000\n      dup2\n      mstore\n      0x04\n      add\n      dup1\n      dup1\n      0x20\n      add\n      dup3\n      dup2\n      sub\n      dup3\n      mstore\n      0x20\n      dup2\n      mstore\n      0x20\n      add\n      dup1\n      0x4f776e61626c653a2063616c6c6572206973206e6f7420746865206f776e6572\n      dup2\n      mstore\n      pop\n      0x20\n      add\n      swap2\n      pop\n      pop\n      mload(0x40)\n      dup1\n      swap2\n      sub\n      swap1\n      revert\n    tag_119:\n        /* \"Umbra-Cash/contracts/Umbra.sol\":3690:3698  _newToll */\n      dup1\n        /* \"Umbra-Cash/contracts/Umbra.sol\":3683:3687  toll */\n      0x01\n        /* \"Umbra-Cash/contracts/Umbra.sol\":3683:3698  toll = _newToll */\n      dup2\n      swap1\n      sstore\n      pop\n        /* \"Umbra-Cash/contracts/Umbra.sol\":3623:3703  function setToll(uint256 _newToll) external onlyOwner {... */\n      pop\n      jump\t// out\n        /* \"Umbra-Cash/contracts/Umbra.sol\":2825:2860  address payable public tollReceiver */\n    tag_73:\n      0x03\n      0x00\n      swap1\n      sload\n      swap1\n      0x0100\n      exp\n      swap1\n      div\n      0xffffffffffffffffffffffffffffffffffffffff\n      and\n      dup2\n      jump\t// out\n        /* \"Umbra-Cash/contracts/Umbra.sol\":6184:6768  function sendToken(... */\n    tag_76:\n        /* \"Umbra-Cash/contracts/Umbra.sol\":6399:6403  toll */\n      sload(0x01)\n        /* \"Umbra-Cash/contracts/Umbra.sol\":6386:6395  msg.value */\n      callvalue\n        /* \"Umbra-Cash/contracts/Umbra.sol\":6386:6403  msg.value == toll */\n      eq\n        /* \"Umbra-Cash/contracts/Umbra.sol\":6378:6438  require(msg.value == toll, \"Umbra: Must pay the exact toll\") */\n      tag_122\n      jumpi\n      mload(0x40)\n      0x08c379a000000000000000000000000000000000000000000000000000000000\n      dup2\n      mstore\n      0x04\n      add\n      dup1\n      dup1\n      0x20\n      add\n      dup3\n      dup2\n      sub\n      dup3\n      mstore\n      0x1e\n      dup2\n      mstore\n      0x20\n      add\n      dup1\n      0x556d6272613a204d757374207061792074686520657861637420746f6c6c0000\n      dup2\n      mstore\n      pop\n      0x20\n      add\n      swap2\n      pop\n      pop\n      mload(0x40)\n      dup1\n      swap2\n      sub\n      swap1\n      revert\n    tag_122:\n        /* \"Umbra-Cash/contracts/Umbra.sol\":6492:6493  0 */\n      0x00\n        /* \"Umbra-Cash/contracts/Umbra.sol\":6452:6465  tokenPayments */\n      0x04\n        /* \"Umbra-Cash/contracts/Umbra.sol\":6452:6476  tokenPayments[_receiver] */\n      0x00\n        /* \"Umbra-Cash/contracts/Umbra.sol\":6466:6475  _receiver */\n      dup8\n        /* \"Umbra-Cash/contracts/Umbra.sol\":6452:6476  tokenPayments[_receiver] */\n      0xffffffffffffffffffffffffffffffffffffffff\n      and\n      0xffffffffffffffffffffffffffffffffffffffff\n      and\n      dup2\n      mstore\n      0x20\n      add\n      swap1\n      dup2\n      mstore\n      0x20\n      add\n      0x00\n      keccak256\n        /* \"Umbra-Cash/contracts/Umbra.sol\":6452:6488  tokenPayments[_receiver][_tokenAddr] */\n      0x00\n        /* \"Umbra-Cash/contracts/Umbra.sol\":6477:6487  _tokenAddr */\n      dup7\n        /* \"Umbra-Cash/contracts/Umbra.sol\":6452:6488  tokenPayments[_receiver][_tokenAddr] */\n      0xffffffffffffffffffffffffffffffffffffffff\n      and\n      0xffffffffffffffffffffffffffffffffffffffff\n      and\n      dup2\n      mstore\n      0x20\n      add\n      swap1\n      dup2\n      mstore\n      0x20\n      add\n      0x00\n      keccak256\n      sload\n        /* \"Umbra-Cash/contracts/Umbra.sol\":6452:6493  tokenPayments[_receiver][_tokenAddr] == 0 */\n      eq\n        /* \"Umbra-Cash/contracts/Umbra.sol\":6444:6547  require(tokenPayments[_receiver][_tokenAddr] == 0, \"Umbra: Cannot send more tokens to stealth address\") */\n      tag_123\n      jumpi\n      mload(0x40)\n      0x08c379a000000000000000000000000000000000000000000000000000000000\n      dup2\n      mstore\n      0x04\n      add\n      dup1\n      dup1\n      0x20\n      add\n      dup3\n      dup2\n      sub\n      dup3\n      mstore\n      0x31\n      dup2\n      mstore\n      0x20\n      add\n      dup1\n      data_91b974c51d0aa6487a00d9c7a5b1a24d189aa620f85343b127c7cf92d6abc644\n      0x31\n      swap2\n      codecopy\n      0x40\n      add\n      swap2\n      pop\n      pop\n      mload(0x40)\n      dup1\n      swap2\n      sub\n      swap1\n      revert\n    tag_123:\n        /* \"Umbra-Cash/contracts/Umbra.sol\":6593:6600  _amount */\n      dup3\n        /* \"Umbra-Cash/contracts/Umbra.sol\":6554:6567  tokenPayments */\n      0x04\n        /* \"Umbra-Cash/contracts/Umbra.sol\":6554:6578  tokenPayments[_receiver] */\n      0x00\n        /* \"Umbra-Cash/contracts/Umbra.sol\":6568:6577  _receiver */\n      dup8\n        /* \"Umbra-Cash/contracts/Umbra.sol\":6554:6578  tokenPayments[_receiver] */\n      0xffffffffffffffffffffffffffffffffffffffff\n      and\n      0xffffffffffffffffffffffffffffffffffffffff\n      and\n      dup2\n      mstore\n      0x20\n      add\n      swap1\n      dup2\n      mstore\n      0x20\n      add\n      0x00\n      keccak256\n        /* \"Umbra-Cash/contracts/Umbra.sol\":6554:6590  tokenPayments[_receiver][_tokenAddr] */\n      0x00\n        /* \"Umbra-Cash/contracts/Umbra.sol\":6579:6589  _tokenAddr */\n      dup7\n        /* \"Umbra-Cash/contracts/Umbra.sol\":6554:6590  tokenPayments[_receiver][_tokenAddr] */\n      0xffffffffffffffffffffffffffffffffffffffff\n      and\n      0xffffffffffffffffffffffffffffffffffffffff\n      and\n      dup2\n      mstore\n      0x20\n      add\n      swap1\n      dup2\n      mstore\n      0x20\n      add\n      0x00\n      keccak256\n        /* \"Umbra-Cash/contracts/Umbra.sol\":6554:6600  tokenPayments[_receiver][_tokenAddr] = _amount */\n      dup2\n      swap1\n      sstore\n      pop\n        /* \"Umbra-Cash/contracts/Umbra.sol\":6644:6654  _tokenAddr */\n      dup4\n        /* \"Umbra-Cash/contracts/Umbra.sol\":6611:6674  Announcement(_receiver, _amount, _tokenAddr, _pkx, _ciphertext) */\n      0xffffffffffffffffffffffffffffffffffffffff\n      and\n        /* \"Umbra-Cash/contracts/Umbra.sol\":6624:6633  _receiver */\n      dup6\n        /* \"Umbra-Cash/contracts/Umbra.sol\":6611:6674  Announcement(_receiver, _amount, _tokenAddr, _pkx, _ciphertext) */\n      0xffffffffffffffffffffffffffffffffffffffff\n      and\n      0x29877766fa2bfe3b90008d6d92f965eca91cbc5757ed775740e460799fb92219\n        /* \"Umbra-Cash/contracts/Umbra.sol\":6635:6642  _amount */\n      dup6\n        /* \"Umbra-Cash/contracts/Umbra.sol\":6656:6660  _pkx */\n      dup6\n        /* \"Umbra-Cash/contracts/Umbra.sol\":6662:6673  _ciphertext */\n      dup6\n        /* \"Umbra-Cash/contracts/Umbra.sol\":6611:6674  Announcement(_receiver, _amount, _tokenAddr, _pkx, _ciphertext) */\n      mload(0x40)\n      dup1\n      dup5\n      dup2\n      mstore\n      0x20\n      add\n      dup4\n      dup2\n      mstore\n      0x20\n      add\n      dup3\n      dup2\n      mstore\n      0x20\n      add\n      swap4\n      pop\n      pop\n      pop\n      pop\n      mload(0x40)\n      dup1\n      swap2\n      sub\n      swap1\n      log3\n        /* \"Umbra-Cash/contracts/Umbra.sol\":6681:6763  SafeERC20.safeTransferFrom(IERC20(_tokenAddr), msg.sender, address(this), _amount) */\n      tag_124\n        /* \"Umbra-Cash/contracts/Umbra.sol\":6715:6725  _tokenAddr */\n      dup5\n        /* \"Umbra-Cash/contracts/Umbra.sol\":6728:6738  msg.sender */\n      caller\n        /* \"Umbra-Cash/contracts/Umbra.sol\":6748:6752  this */\n      address\n        /* \"Umbra-Cash/contracts/Umbra.sol\":6755:6762  _amount */\n      dup7\n        /* \"Umbra-Cash/contracts/Umbra.sol\":6681:6707  SafeERC20.safeTransferFrom */\n      tag_125\n        /* \"Umbra-Cash/contracts/Umbra.sol\":6681:6763  SafeERC20.safeTransferFrom(IERC20(_tokenAddr), msg.sender, address(this), _amount) */\n      jump\t// in\n    tag_124:\n        /* \"Umbra-Cash/contracts/Umbra.sol\":6184:6768  function sendToken(... */\n      pop\n      pop\n      pop\n      pop\n      pop\n      jump\t// out\n        /* \"Umbra-Cash/contracts/Umbra.sol\":5188:5717  function sendEth(... */\n    tag_79:\n        /* \"Umbra-Cash/contracts/Umbra.sol\":5399:5403  toll */\n      sload(0x01)\n        /* \"Umbra-Cash/contracts/Umbra.sol\":5380:5395  _tollCommitment */\n      dup4\n        /* \"Umbra-Cash/contracts/Umbra.sol\":5380:5403  _tollCommitment == toll */\n      eq\n        /* \"Umbra-Cash/contracts/Umbra.sol\":5372:5450  require(_tollCommitment == toll, \"Umbra: Invalid or outdated toll commitment\") */\n      tag_127\n      jumpi\n      mload(0x40)\n      0x08c379a000000000000000000000000000000000000000000000000000000000\n      dup2\n      mstore\n      0x04\n      add\n      dup1\n      dup1\n      0x20\n      add\n      dup3\n      dup2\n      sub\n      dup3\n      mstore\n      0x2a\n      dup2\n      mstore\n      0x20\n      add\n      dup1\n      data_3ba2500259aaf08c491d20e45c71e26c1f3d2f4807d550af7cccfc731dcbadcb\n      0x2a\n      swap2\n      codecopy\n      0x40\n      add\n      swap2\n      pop\n      pop\n      mload(0x40)\n      dup1\n      swap2\n      sub\n      swap1\n      revert\n    tag_127:\n        /* \"Umbra-Cash/contracts/Umbra.sol\":5513:5517  toll */\n      sload(0x01)\n        /* \"Umbra-Cash/contracts/Umbra.sol\":5501:5510  msg.value */\n      callvalue\n        /* \"Umbra-Cash/contracts/Umbra.sol\":5501:5517  msg.value > toll */\n      gt\n        /* \"Umbra-Cash/contracts/Umbra.sol\":5493:5556  require(msg.value > toll, \"Umbra: Must pay more than the toll\") */\n      tag_128\n      jumpi\n      mload(0x40)\n      0x08c379a000000000000000000000000000000000000000000000000000000000\n      dup2\n      mstore\n      0x04\n      add\n      dup1\n      dup1\n      0x20\n      add\n      dup3\n      dup2\n      sub\n      dup3\n      mstore\n      0x22\n      dup2\n      mstore\n      0x20\n      add\n      dup1\n      data_00ca1233b01abaabbdb94e9011f33e8aa8820481688dcdb39c067911cae56dfa\n      0x22\n      swap2\n      codecopy\n      0x40\n      add\n      swap2\n      pop\n      pop\n      mload(0x40)\n      dup1\n      swap2\n      sub\n      swap1\n      revert\n    tag_128:\n        /* \"Umbra-Cash/contracts/Umbra.sol\":5563:5577  uint256 amount */\n      0x00\n        /* \"Umbra-Cash/contracts/Umbra.sol\":5592:5596  toll */\n      sload(0x01)\n        /* \"Umbra-Cash/contracts/Umbra.sol\":5580:5589  msg.value */\n      callvalue\n        /* \"Umbra-Cash/contracts/Umbra.sol\":5580:5596  msg.value - toll */\n      sub\n        /* \"Umbra-Cash/contracts/Umbra.sol\":5563:5596  uint256 amount = msg.value - toll */\n      swap1\n      pop\n        /* \"Umbra-Cash/contracts/Umbra.sol\":2442:2484  0xEeeeeEeeeEeEeeEeEeEeeEEEeeeeEeeeeeeeEEeE */\n      0xeeeeeeeeeeeeeeeeeeeeeeeeeeeeeeeeeeeeeeee\n        /* \"Umbra-Cash/contracts/Umbra.sol\":5607:5679  Announcement(_receiver, amount, ETH_TOKEN_PLACHOLDER, _pkx, _ciphertext) */\n      0xffffffffffffffffffffffffffffffffffffffff\n      and\n        /* \"Umbra-Cash/contracts/Umbra.sol\":5620:5629  _receiver */\n      dup6\n        /* \"Umbra-Cash/contracts/Umbra.sol\":5607:5679  Announcement(_receiver, amount, ETH_TOKEN_PLACHOLDER, _pkx, _ciphertext) */\n      0xffffffffffffffffffffffffffffffffffffffff\n      and\n      0x29877766fa2bfe3b90008d6d92f965eca91cbc5757ed775740e460799fb92219\n        /* \"Umbra-Cash/contracts/Umbra.sol\":5631:5637  amount */\n      dup4\n        /* \"Umbra-Cash/contracts/Umbra.sol\":5661:5665  _pkx */\n      dup7\n        /* \"Umbra-Cash/contracts/Umbra.sol\":5667:5678  _ciphertext */\n      dup7\n        /* \"Umbra-Cash/contracts/Umbra.sol\":5607:5679  Announcement(_receiver, amount, ETH_TOKEN_PLACHOLDER, _pkx, _ciphertext) */\n      mload(0x40)\n      dup1\n      dup5\n      dup2\n      mstore\n      0x20\n      add\n      dup4\n      dup2\n      mstore\n      0x20\n      add\n      dup3\n      dup2\n      mstore\n      0x20\n      add\n      swap4\n      pop\n      pop\n      pop\n      pop\n      mload(0x40)\n      dup1\n      swap2\n      sub\n      swap1\n      log3\n        /* \"Umbra-Cash/contracts/Umbra.sol\":5686:5695  _receiver */\n      dup5\n        /* \"Umbra-Cash/contracts/Umbra.sol\":5686:5704  _receiver.transfer */\n      0xffffffffffffffffffffffffffffffffffffffff\n      and\n        /* \"Umbra-Cash/contracts/Umbra.sol\":5686:5712  _receiver.transfer(amount) */\n      0x08fc\n        /* \"Umbra-Cash/contracts/Umbra.sol\":5705:5711  amount */\n      dup3\n        /* \"Umbra-Cash/contracts/Umbra.sol\":5686:5712  _receiver.transfer(amount) */\n      swap1\n      dup2\n      iszero\n      mul\n      swap1\n      mload(0x40)\n      0x00\n      mload(0x40)\n      dup1\n      dup4\n      sub\n      dup2\n      dup6\n      dup9\n      dup9\n      call\n      swap4\n      pop\n      pop\n      pop\n      pop\n      iszero\n      dup1\n      iszero\n      tag_130\n      jumpi\n      returndatasize\n      0x00\n      dup1\n      returndatacopy\n      revert(0x00, returndatasize)\n    tag_130:\n      pop\n        /* \"Umbra-Cash/contracts/Umbra.sol\":5188:5717  function sendEth(... */\n      pop\n      pop\n      pop\n      pop\n      pop\n      jump\t// out\n        /* \"Umbra-Cash/contracts/Umbra.sol\":4123:4243  function setTollReceiver(address payable _newTollReceiver) external onlyOwner {... */\n    tag_83:\n        /* \"Umbra-Cash/@openzeppelin/contracts/access/Ownable.sol\":2579:2591  _msgSender() */\n      tag_132\n        /* \"Umbra-Cash/@openzeppelin/contracts/access/Ownable.sol\":2579:2589  _msgSender */\n      tag_93\n        /* \"Umbra-Cash/@openzeppelin/contracts/access/Ownable.sol\":2579:2591  _msgSender() */\n      jump\t// in\n    tag_132:\n        /* \"Umbra-Cash/@openzeppelin/contracts/access/Ownable.sol\":2568:2591  owner() == _msgSender() */\n      0xffffffffffffffffffffffffffffffffffffffff\n      and\n        /* \"Umbra-Cash/@openzeppelin/contracts/access/Ownable.sol\":2568:2575  owner() */\n      tag_133\n        /* \"Umbra-Cash/@openzeppelin/contracts/access/Ownable.sol\":2568:2573  owner */\n      tag_62\n        /* \"Umbra-Cash/@openzeppelin/contracts/access/Ownable.sol\":2568:2575  owner() */\n      jump\t// in\n    tag_133:\n        /* \"Umbra-Cash/@openzeppelin/contracts/access/Ownable.sol\":2568:2591  owner() == _msgSender() */\n      0xffffffffffffffffffffffffffffffffffffffff\n      and\n      eq\n        /* \"Umbra-Cash/@openzeppelin/contracts/access/Ownable.sol\":2560:2628  require(owner() == _msgSender(), \"Ownable: caller is not the owner\") */\n      tag_134\n      jumpi\n      mload(0x40)\n      0x08c379a000000000000000000000000000000000000000000000000000000000\n      dup2\n      mstore\n      0x04\n      add\n      dup1\n      dup1\n      0x20\n      add\n      dup3\n      dup2\n      sub\n      dup3\n      mstore\n      0x20\n      dup2\n      mstore\n      0x20\n      add\n      dup1\n      0x4f776e61626c653a2063616c6c6572206973206e6f7420746865206f776e6572\n      dup2\n      mstore\n      pop\n      0x20\n      add\n      swap2\n      pop\n      pop\n      mload(0x40)\n      dup1\n      swap2\n      sub\n      swap1\n      revert\n    tag_134:\n        /* \"Umbra-Cash/contracts/Umbra.sol\":4222:4238  _newTollReceiver */\n      dup1\n        /* \"Umbra-Cash/contracts/Umbra.sol\":4207:4219  tollReceiver */\n      0x03\n      0x00\n        /* \"Umbra-Cash/contracts/Umbra.sol\":4207:4238  tollReceiver = _newTollReceiver */\n      0x0100\n      exp\n      dup2\n      sload\n      dup2\n      0xffffffffffffffffffffffffffffffffffffffff\n      mul\n      not\n      and\n      swap1\n      dup4\n      0xffffffffffffffffffffffffffffffffffffffff\n      and\n      mul\n      or\n      swap1\n      sstore\n      pop\n        /* \"Umbra-Cash/contracts/Umbra.sol\":4123:4243  function setTollReceiver(address payable _newTollReceiver) external onlyOwner {... */\n      pop\n      jump\t// out\n        /* \"Umbra-Cash/@openzeppelin/contracts/access/Ownable.sol\":3282:3522  function transferOwnership(address newOwner) public virtual onlyOwner {... */\n    tag_87:\n        /* \"Umbra-Cash/@openzeppelin/contracts/access/Ownable.sol\":2579:2591  _msgSender() */\n      tag_137\n        /* \"Umbra-Cash/@openzeppelin/contracts/access/Ownable.sol\":2579:2589  _msgSender */\n      tag_93\n        /* \"Umbra-Cash/@openzeppelin/contracts/access/Ownable.sol\":2579:2591  _msgSender() */\n      jump\t// in\n    tag_137:\n        /* \"Umbra-Cash/@openzeppelin/contracts/access/Ownable.sol\":2568:2591  owner() == _msgSender() */\n      0xffffffffffffffffffffffffffffffffffffffff\n      and\n        /* \"Umbra-Cash/@openzeppelin/contracts/access/Ownable.sol\":2568:2575  owner() */\n      tag_138\n        /* \"Umbra-Cash/@openzeppelin/contracts/access/Ownable.sol\":2568:2573  owner */\n      tag_62\n        /* \"Umbra-Cash/@openzeppelin/contracts/access/Ownable.sol\":2568:2575  owner() */\n      jump\t// in\n    tag_138:\n        /* \"Umbra-Cash/@openzeppelin/contracts/access/Ownable.sol\":2568:2591  owner() == _msgSender() */\n      0xffffffffffffffffffffffffffffffffffffffff\n      and\n      eq\n        /* \"Umbra-Cash/@openzeppelin/contracts/access/Ownable.sol\":2560:2628  require(owner() == _msgSender(), \"Ownable: caller is not the owner\") */\n      tag_139\n      jumpi\n      mload(0x40)\n      0x08c379a000000000000000000000000000000000000000000000000000000000\n      dup2\n      mstore\n      0x04\n      add\n      dup1\n      dup1\n      0x20\n      add\n      dup3\n      dup2\n      sub\n      dup3\n      mstore\n      0x20\n      dup2\n      mstore\n      0x20\n      add\n      dup1\n      0x4f776e61626c653a2063616c6c6572206973206e6f7420746865206f776e6572\n      dup2\n      mstore\n      pop\n      0x20\n      add\n      swap2\n      pop\n      pop\n      mload(0x40)\n      dup1\n      swap2\n      sub\n      swap1\n      revert\n    tag_139:\n        /* \"Umbra-Cash/@openzeppelin/contracts/access/Ownable.sol\":3390:3391  0 */\n      0x00\n        /* \"Umbra-Cash/@openzeppelin/contracts/access/Ownable.sol\":3370:3392  newOwner != address(0) */\n      0xffffffffffffffffffffffffffffffffffffffff\n      and\n        /* \"Umbra-Cash/@openzeppelin/contracts/access/Ownable.sol\":3370:3378  newOwner */\n      dup2\n        /* \"Umbra-Cash/@openzeppelin/contracts/access/Ownable.sol\":3370:3392  newOwner != address(0) */\n      0xffffffffffffffffffffffffffffffffffffffff\n      and\n      eq\n      iszero\n        /* \"Umbra-Cash/@openzeppelin/contracts/access/Ownable.sol\":3362:3435  require(newOwner != address(0), \"Ownable: new owner is the zero address\") */\n      tag_141\n      jumpi\n      mload(0x40)\n      0x08c379a000000000000000000000000000000000000000000000000000000000\n      dup2\n      mstore\n      0x04\n      add\n      dup1\n      dup1\n      0x20\n      add\n      dup3\n      dup2\n      sub\n      dup3\n      mstore\n      0x26\n      dup2\n      mstore\n      0x20\n      add\n      dup1\n      data_245f15ff17f551913a7a18385165551503906a406f905ac1c2437281a7cd0cfe\n      0x26\n      swap2\n      codecopy\n      0x40\n      add\n      swap2\n      pop\n      pop\n      mload(0x40)\n      dup1\n      swap2\n      sub\n      swap1\n      revert\n    tag_141:\n        /* \"Umbra-Cash/@openzeppelin/contracts/access/Ownable.sol\":3479:3487  newOwner */\n      dup1\n        /* \"Umbra-Cash/@openzeppelin/contracts/access/Ownable.sol\":3450:3488  OwnershipTransferred(_owner, newOwner) */\n      0xffffffffffffffffffffffffffffffffffffffff\n      and\n        /* \"Umbra-Cash/@openzeppelin/contracts/access/Ownable.sol\":3471:3477  _owner */\n      0x00\n      dup1\n      sload\n      swap1\n      0x0100\n      exp\n      swap1\n      div\n      0xffffffffffffffffffffffffffffffffffffffff\n      and\n        /* \"Umbra-Cash/@openzeppelin/contracts/access/Ownable.sol\":3450:3488  OwnershipTransferred(_owner, newOwner) */\n      0xffffffffffffffffffffffffffffffffffffffff\n      and\n      0x8be0079c531659141344cd1fd0a4f28419497f9722a3daafe3b4186f6b6457e0\n      mload(0x40)\n      mload(0x40)\n      dup1\n      swap2\n      sub\n      swap1\n      log3\n        /* \"Umbra-Cash/@openzeppelin/contracts/access/Ownable.sol\":3507:3515  newOwner */\n      dup1\n        /* \"Umbra-Cash/@openzeppelin/contracts/access/Ownable.sol\":3498:3504  _owner */\n      0x00\n      dup1\n        /* \"Umbra-Cash/@openzeppelin/contracts/access/Ownable.sol\":3498:3515  _owner = newOwner */\n      0x0100\n      exp\n      dup2\n      sload\n      dup2\n      0xffffffffffffffffffffffffffffffffffffffff\n      mul\n      not\n      and\n      swap1\n      dup4\n      0xffffffffffffffffffffffffffffffffffffffff\n      and\n      mul\n      or\n      swap1\n      sstore\n      pop\n        /* \"Umbra-Cash/@openzeppelin/contracts/access/Ownable.sol\":3282:3522  function transferOwnership(address newOwner) public virtual onlyOwner {... */\n      pop\n      jump\t// out\n        /* \"Umbra-Cash/contracts/Umbra.sol\":11285:12239  function _withdrawTokenInternal(... */\n    tag_90:\n        /* \"Umbra-Cash/contracts/Umbra.sol\":11510:11525  uint256 _amount */\n      0x00\n        /* \"Umbra-Cash/contracts/Umbra.sol\":11528:11541  tokenPayments */\n      0x04\n        /* \"Umbra-Cash/contracts/Umbra.sol\":11528:11555  tokenPayments[_stealthAddr] */\n      0x00\n        /* \"Umbra-Cash/contracts/Umbra.sol\":11542:11554  _stealthAddr */\n      dup10\n        /* \"Umbra-Cash/contracts/Umbra.sol\":11528:11555  tokenPayments[_stealthAddr] */\n      0xffffffffffffffffffffffffffffffffffffffff\n      and\n      0xffffffffffffffffffffffffffffffffffffffff\n      and\n      dup2\n      mstore\n      0x20\n      add\n      swap1\n      dup2\n      mstore\n      0x20\n      add\n      0x00\n      keccak256\n        /* \"Umbra-Cash/contracts/Umbra.sol\":11528:11567  tokenPayments[_stealthAddr][_tokenAddr] */\n      0x00\n        /* \"Umbra-Cash/contracts/Umbra.sol\":11556:11566  _tokenAddr */\n      dup8\n        /* \"Umbra-Cash/contracts/Umbra.sol\":11528:11567  tokenPayments[_stealthAddr][_tokenAddr] */\n      0xffffffffffffffffffffffffffffffffffffffff\n      and\n      0xffffffffffffffffffffffffffffffffffffffff\n      and\n      dup2\n      mstore\n      0x20\n      add\n      swap1\n      dup2\n      mstore\n      0x20\n      add\n      0x00\n      keccak256\n      sload\n        /* \"Umbra-Cash/contracts/Umbra.sol\":11510:11567  uint256 _amount = tokenPayments[_stealthAddr][_tokenAddr] */\n      swap1\n      pop\n        /* \"Umbra-Cash/contracts/Umbra.sol\":11628:11639  _sponsorFee */\n      dup4\n        /* \"Umbra-Cash/contracts/Umbra.sol\":11618:11625  _amount */\n      dup2\n        /* \"Umbra-Cash/contracts/Umbra.sol\":11618:11639  _amount > _sponsorFee */\n      gt\n        /* \"Umbra-Cash/contracts/Umbra.sol\":11610:11696  require(_amount > _sponsorFee, \"Umbra: No balance to withdraw or fee exceeds balance\") */\n      tag_143\n      jumpi\n      mload(0x40)\n      0x08c379a000000000000000000000000000000000000000000000000000000000\n      dup2\n      mstore\n      0x04\n      add\n      dup1\n      dup1\n      0x20\n      add\n      dup3\n      dup2\n      sub\n      dup3\n      mstore\n      0x34\n      dup2\n      mstore\n      0x20\n      add\n      dup1\n      data_328b8850d4c62d9ba870e891ed4b84c12bcfb70602a6a87db8f71bfe7c2b366f\n      0x34\n      swap2\n      codecopy\n      0x40\n      add\n      swap2\n      pop\n      pop\n      mload(0x40)\n      dup1\n      swap2\n      sub\n      swap1\n      revert\n    tag_143:\n        /* \"Umbra-Cash/contracts/Umbra.sol\":11703:11728  uint256 _withdrawalAmount */\n      0x00\n        /* \"Umbra-Cash/contracts/Umbra.sol\":11741:11752  _sponsorFee */\n      dup5\n        /* \"Umbra-Cash/contracts/Umbra.sol\":11731:11738  _amount */\n      dup3\n        /* \"Umbra-Cash/contracts/Umbra.sol\":11731:11752  _amount - _sponsorFee */\n      sub\n        /* \"Umbra-Cash/contracts/Umbra.sol\":11703:11752  uint256 _withdrawalAmount = _amount - _sponsorFee */\n      swap1\n      pop\n        /* \"Umbra-Cash/contracts/Umbra.sol\":11765:11778  tokenPayments */\n      0x04\n        /* \"Umbra-Cash/contracts/Umbra.sol\":11765:11792  tokenPayments[_stealthAddr] */\n      0x00\n        /* \"Umbra-Cash/contracts/Umbra.sol\":11779:11791  _stealthAddr */\n      dup11\n        /* \"Umbra-Cash/contracts/Umbra.sol\":11765:11792  tokenPayments[_stealthAddr] */\n      0xffffffffffffffffffffffffffffffffffffffff\n      and\n      0xffffffffffffffffffffffffffffffffffffffff\n      and\n      dup2\n      mstore\n      0x20\n      add\n      swap1\n      dup2\n      mstore\n      0x20\n      add\n      0x00\n      keccak256\n        /* \"Umbra-Cash/contracts/Umbra.sol\":11765:11804  tokenPayments[_stealthAddr][_tokenAddr] */\n      0x00\n        /* \"Umbra-Cash/contracts/Umbra.sol\":11793:11803  _tokenAddr */\n      dup9\n        /* \"Umbra-Cash/contracts/Umbra.sol\":11765:11804  tokenPayments[_stealthAddr][_tokenAddr] */\n      0xffffffffffffffffffffffffffffffffffffffff\n      and\n      0xffffffffffffffffffffffffffffffffffffffff\n      and\n      dup2\n      mstore\n      0x20\n      add\n      swap1\n      dup2\n      mstore\n      0x20\n      add\n      0x00\n      keccak256\n        /* \"Umbra-Cash/contracts/Umbra.sol\":11758:11804  delete tokenPayments[_stealthAddr][_tokenAddr] */\n      0x00\n      swap1\n      sstore\n        /* \"Umbra-Cash/contracts/Umbra.sol\":11875:11885  _tokenAddr */\n      dup7\n        /* \"Umbra-Cash/contracts/Umbra.sol\":11815:11886  TokenWithdrawal(_stealthAddr, _acceptor, _withdrawalAmount, _tokenAddr) */\n      0xffffffffffffffffffffffffffffffffffffffff\n      and\n        /* \"Umbra-Cash/contracts/Umbra.sol\":11845:11854  _acceptor */\n      dup9\n        /* \"Umbra-Cash/contracts/Umbra.sol\":11815:11886  TokenWithdrawal(_stealthAddr, _acceptor, _withdrawalAmount, _tokenAddr) */\n      0xffffffffffffffffffffffffffffffffffffffff\n      and\n        /* \"Umbra-Cash/contracts/Umbra.sol\":11831:11843  _stealthAddr */\n      dup11\n        /* \"Umbra-Cash/contracts/Umbra.sol\":11815:11886  TokenWithdrawal(_stealthAddr, _acceptor, _withdrawalAmount, _tokenAddr) */\n      0xffffffffffffffffffffffffffffffffffffffff\n      and\n      0x30eb3583ad09933b693a45452ab07512244cdbc5868701aa004c27b7b267c249\n        /* \"Umbra-Cash/contracts/Umbra.sol\":11856:11873  _withdrawalAmount */\n      dup5\n        /* \"Umbra-Cash/contracts/Umbra.sol\":11815:11886  TokenWithdrawal(_stealthAddr, _acceptor, _withdrawalAmount, _tokenAddr) */\n      mload(0x40)\n      dup1\n      dup3\n      dup2\n      mstore\n      0x20\n      add\n      swap2\n      pop\n      pop\n      mload(0x40)\n      dup1\n      swap2\n      sub\n      swap1\n      log4\n        /* \"Umbra-Cash/contracts/Umbra.sol\":11893:11965  SafeERC20.safeTransfer(IERC20(_tokenAddr), _acceptor, _withdrawalAmount) */\n      tag_144\n        /* \"Umbra-Cash/contracts/Umbra.sol\":11923:11933  _tokenAddr */\n      dup8\n        /* \"Umbra-Cash/contracts/Umbra.sol\":11936:11945  _acceptor */\n      dup10\n        /* \"Umbra-Cash/contracts/Umbra.sol\":11947:11964  _withdrawalAmount */\n      dup4\n        /* \"Umbra-Cash/contracts/Umbra.sol\":11893:11915  SafeERC20.safeTransfer */\n      tag_145\n        /* \"Umbra-Cash/contracts/Umbra.sol\":11893:11965  SafeERC20.safeTransfer(IERC20(_tokenAddr), _acceptor, _withdrawalAmount) */\n      jump\t// in\n    tag_144:\n        /* \"Umbra-Cash/contracts/Umbra.sol\":11990:11991  0 */\n      0x00\n        /* \"Umbra-Cash/contracts/Umbra.sol\":11976:11987  _sponsorFee */\n      dup6\n        /* \"Umbra-Cash/contracts/Umbra.sol\":11976:11991  _sponsorFee > 0 */\n      gt\n        /* \"Umbra-Cash/contracts/Umbra.sol\":11972:12073  if (_sponsorFee > 0) {... */\n      iszero\n      tag_146\n      jumpi\n        /* \"Umbra-Cash/contracts/Umbra.sol\":12001:12066  SafeERC20.safeTransfer(IERC20(_tokenAddr), _sponsor, _sponsorFee) */\n      tag_147\n        /* \"Umbra-Cash/contracts/Umbra.sol\":12031:12041  _tokenAddr */\n      dup8\n        /* \"Umbra-Cash/contracts/Umbra.sol\":12044:12052  _sponsor */\n      dup8\n        /* \"Umbra-Cash/contracts/Umbra.sol\":12054:12065  _sponsorFee */\n      dup8\n        /* \"Umbra-Cash/contracts/Umbra.sol\":12001:12023  SafeERC20.safeTransfer */\n      tag_145\n        /* \"Umbra-Cash/contracts/Umbra.sol\":12001:12066  SafeERC20.safeTransfer(IERC20(_tokenAddr), _sponsor, _sponsorFee) */\n      jump\t// in\n    tag_147:\n        /* \"Umbra-Cash/contracts/Umbra.sol\":11972:12073  if (_sponsorFee > 0) {... */\n    tag_146:\n        /* \"Umbra-Cash/contracts/Umbra.sol\":12109:12110  0 */\n      0x00\n        /* \"Umbra-Cash/contracts/Umbra.sol\":12083:12111  address(_hook) != address(0) */\n      0xffffffffffffffffffffffffffffffffffffffff\n      and\n        /* \"Umbra-Cash/contracts/Umbra.sol\":12091:12096  _hook */\n      dup5\n        /* \"Umbra-Cash/contracts/Umbra.sol\":12083:12111  address(_hook) != address(0) */\n      0xffffffffffffffffffffffffffffffffffffffff\n      and\n      eq\n        /* \"Umbra-Cash/contracts/Umbra.sol\":12079:12235  if (address(_hook) != address(0)) {... */\n      tag_148\n      jumpi\n        /* \"Umbra-Cash/contracts/Umbra.sol\":12121:12126  _hook */\n      dup4\n        /* \"Umbra-Cash/contracts/Umbra.sol\":12121:12142  _hook.tokensWithdrawn */\n      0xffffffffffffffffffffffffffffffffffffffff\n      and\n      0x579073de\n        /* \"Umbra-Cash/contracts/Umbra.sol\":12143:12160  _withdrawalAmount */\n      dup3\n        /* \"Umbra-Cash/contracts/Umbra.sol\":12162:12174  _stealthAddr */\n      dup12\n        /* \"Umbra-Cash/contracts/Umbra.sol\":12176:12185  _acceptor */\n      dup12\n        /* \"Umbra-Cash/contracts/Umbra.sol\":12187:12197  _tokenAddr */\n      dup12\n        /* \"Umbra-Cash/contracts/Umbra.sol\":12199:12207  _sponsor */\n      dup12\n        /* \"Umbra-Cash/contracts/Umbra.sol\":12209:12220  _sponsorFee */\n      dup12\n        /* \"Umbra-Cash/contracts/Umbra.sol\":12222:12227  _data */\n      dup11\n        /* \"Umbra-Cash/contracts/Umbra.sol\":12121:12228  _hook.tokensWithdrawn(_withdrawalAmount, _stealthAddr, _acceptor, _tokenAddr, _sponsor, _sponsorFee, _data) */\n      mload(0x40)\n      dup9\n      0xffffffff\n      and\n      0xe0\n      shl\n      dup2\n      mstore\n      0x04\n      add\n      dup1\n      dup9\n      dup2\n      mstore\n      0x20\n      add\n      dup8\n      0xffffffffffffffffffffffffffffffffffffffff\n      and\n      dup2\n      mstore\n      0x20\n      add\n      dup7\n      0xffffffffffffffffffffffffffffffffffffffff\n      and\n      dup2\n      mstore\n      0x20\n      add\n      dup6\n      0xffffffffffffffffffffffffffffffffffffffff\n      and\n      dup2\n      mstore\n      0x20\n      add\n      dup5\n      0xffffffffffffffffffffffffffffffffffffffff\n      and\n      dup2\n      mstore\n      0x20\n      add\n      dup4\n      dup2\n      mstore\n      0x20\n      add\n      dup1\n      0x20\n      add\n      dup3\n      dup2\n      sub\n      dup3\n      mstore\n      dup4\n      dup2\n      dup2\n      mload\n      dup2\n      mstore\n      0x20\n      add\n      swap2\n      pop\n      dup1\n      mload\n      swap1\n      0x20\n      add\n      swap1\n      dup1\n      dup4\n      dup4\n      0x00\n    tag_149:\n      dup4\n      dup2\n      lt\n      iszero\n      tag_151\n      jumpi\n      dup1\n      dup3\n      add\n      mload\n      dup2\n      dup5\n      add\n      mstore\n      0x20\n      dup2\n      add\n      swap1\n      pop\n      jump(tag_149)\n    tag_151:\n      pop\n      pop\n      pop\n      pop\n      swap1\n      pop\n      swap1\n      dup2\n      add\n      swap1\n      0x1f\n      and\n      dup1\n      iszero\n      tag_152\n      jumpi\n      dup1\n      dup3\n      sub\n      dup1\n      mload\n      0x01\n      dup4\n      0x20\n      sub\n      0x0100\n      exp\n      sub\n      not\n      and\n      dup2\n      mstore\n      0x20\n      add\n      swap2\n      pop\n    tag_152:\n      pop\n      swap9\n      pop\n      pop\n      pop\n      pop\n      pop\n      pop\n      pop\n      pop\n      pop\n      0x00\n      mload(0x40)\n      dup1\n      dup4\n      sub\n      dup2\n      0x00\n      dup8\n      dup1\n      extcodesize\n      iszero\n      dup1\n      iszero\n      tag_153\n      jumpi\n      0x00\n      dup1\n      revert\n    tag_153:\n      pop\n      gas\n      call\n      iszero\n      dup1\n      iszero\n      tag_155\n      jumpi\n      returndatasize\n      0x00\n      dup1\n      returndatacopy\n      revert(0x00, returndatasize)\n    tag_155:\n      pop\n      pop\n      pop\n      pop\n        /* \"Umbra-Cash/contracts/Umbra.sol\":12079:12235  if (address(_hook) != address(0)) {... */\n    tag_148:\n        /* \"Umbra-Cash/contracts/Umbra.sol\":11285:12239  function _withdrawTokenInternal(... */\n      pop\n      pop\n      pop\n      pop\n      pop\n      pop\n      pop\n      pop\n      pop\n      jump\t// out\n        /* \"Umbra-Cash/@openzeppelin/contracts/utils/Context.sol\":1869:1973  function _msgSender() internal view virtual returns (address payable) {... */\n    tag_93:\n        /* \"Umbra-Cash/@openzeppelin/contracts/utils/Context.sol\":1922:1937  address payable */\n      0x00\n        /* \"Umbra-Cash/@openzeppelin/contracts/utils/Context.sol\":1956:1966  msg.sender */\n      caller\n        /* \"Umbra-Cash/@openzeppelin/contracts/utils/Context.sol\":1949:1966  return msg.sender */\n      swap1\n      pop\n        /* \"Umbra-Cash/@openzeppelin/contracts/utils/Context.sol\":1869:1973  function _msgSender() internal view virtual returns (address payable) {... */\n      swap1\n      jump\t// out\n        /* \"Umbra-Cash/contracts/Umbra.sol\":13127:13934  function _validateWithdrawSignature(... */\n    tag_103:\n        /* \"Umbra-Cash/contracts/Umbra.sol\":13407:13423  uint256 _chainId */\n      0x00\n        /* \"Umbra-Cash/contracts/Umbra.sol\":13458:13467  chainid() */\n      chainid\n        /* \"Umbra-Cash/contracts/Umbra.sol\":13446:13467  _chainId := chainid() */\n      swap1\n      pop\n        /* \"Umbra-Cash/contracts/Umbra.sol\":13479:13494  bytes32 _digest */\n      0x00\n        /* \"Umbra-Cash/contracts/Umbra.sol\":13630:13638  _chainId */\n      dup2\n        /* \"Umbra-Cash/contracts/Umbra.sol\":13648:13652  this */\n      address\n        /* \"Umbra-Cash/contracts/Umbra.sol\":13655:13664  _acceptor */\n      dup13\n        /* \"Umbra-Cash/contracts/Umbra.sol\":13666:13676  _tokenAddr */\n      dup13\n        /* \"Umbra-Cash/contracts/Umbra.sol\":13678:13686  _sponsor */\n      dup13\n        /* \"Umbra-Cash/contracts/Umbra.sol\":13688:13699  _sponsorFee */\n      dup13\n        /* \"Umbra-Cash/contracts/Umbra.sol\":13709:13714  _hook */\n      dup13\n        /* \"Umbra-Cash/contracts/Umbra.sol\":13717:13722  _data */\n      dup13\n        /* \"Umbra-Cash/contracts/Umbra.sol\":13619:13723  abi.encode(_chainId, address(this), _acceptor, _tokenAddr, _sponsor, _sponsorFee, address(_hook), _data) */\n      add(0x20, mload(0x40))\n      dup1\n      dup10\n      dup2\n      mstore\n      0x20\n      add\n      dup9\n      0xffffffffffffffffffffffffffffffffffffffff\n      and\n      dup2\n      mstore\n      0x20\n      add\n      dup8\n      0xffffffffffffffffffffffffffffffffffffffff\n      and\n      dup2\n      mstore\n      0x20\n      add\n      dup7\n      0xffffffffffffffffffffffffffffffffffffffff\n      and\n      dup2\n      mstore\n      0x20\n      add\n      dup6\n      0xffffffffffffffffffffffffffffffffffffffff\n      and\n      dup2\n      mstore\n      0x20\n      add\n      dup5\n      dup2\n      mstore\n      0x20\n      add\n      dup4\n      0xffffffffffffffffffffffffffffffffffffffff\n      and\n      dup2\n      mstore\n      0x20\n      add\n      dup1\n      0x20\n      add\n      dup3\n      dup2\n      sub\n      dup3\n      mstore\n      dup4\n      dup2\n      dup2\n      mload\n      dup2\n      mstore\n      0x20\n      add\n      swap2\n      pop\n      dup1\n      mload\n      swap1\n      0x20\n      add\n      swap1\n      dup1\n      dup4\n      dup4\n      0x00\n    tag_158:\n      dup4\n      dup2\n      lt\n      iszero\n      tag_160\n      jumpi\n      dup1\n      dup3\n      add\n      mload\n      dup2\n      dup5\n      add\n      mstore\n      0x20\n      dup2\n      add\n      swap1\n      pop\n      jump(tag_158)\n    tag_160:\n      pop\n      pop\n      pop\n      pop\n      swap1\n      pop\n      swap1\n      dup2\n      add\n      swap1\n      0x1f\n      and\n      dup1\n      iszero\n      tag_161\n      jumpi\n      dup1\n      dup3\n      sub\n      dup1\n      mload\n      0x01\n      dup4\n      0x20\n      sub\n      0x0100\n      exp\n      sub\n      not\n      and\n      dup2\n      mstore\n      0x20\n      add\n      swap2\n      pop\n    tag_161:\n      pop\n      swap10\n      pop\n      pop\n      pop\n      pop\n      pop\n      pop\n      pop\n      pop\n      pop\n      pop\n      mload(0x40)\n      0x20\n      dup2\n      dup4\n      sub\n      sub\n      dup2\n      mstore\n      swap1\n      0x40\n      mstore\n        /* \"Umbra-Cash/contracts/Umbra.sol\":13596:13735  keccak256(... */\n      dup1\n      mload\n      swap1\n      0x20\n      add\n      keccak256\n        /* \"Umbra-Cash/contracts/Umbra.sol\":13522:13745  abi.encodePacked(... */\n      add(0x20, mload(0x40))\n      dup1\n      dup1\n      0x19457468657265756d205369676e6564204d6573736167653a0a333200000000\n      dup2\n      mstore\n      pop\n      0x1c\n      add\n      dup3\n      dup2\n      mstore\n      0x20\n      add\n      swap2\n      pop\n      pop\n      mload(0x40)\n      0x20\n      dup2\n      dup4\n      sub\n      sub\n      dup2\n      mstore\n      swap1\n      0x40\n      mstore\n        /* \"Umbra-Cash/contracts/Umbra.sol\":13503:13753  keccak256(... */\n      dup1\n      mload\n      swap1\n      0x20\n      add\n      keccak256\n        /* \"Umbra-Cash/contracts/Umbra.sol\":13479:13753  bytes32 _digest =... */\n      swap1\n      pop\n        /* \"Umbra-Cash/contracts/Umbra.sol\":13760:13785  address _recoveredAddress */\n      0x00\n        /* \"Umbra-Cash/contracts/Umbra.sol\":13788:13818  ecrecover(_digest, _v, _r, _s) */\n      0x01\n        /* \"Umbra-Cash/contracts/Umbra.sol\":13798:13805  _digest */\n      dup3\n        /* \"Umbra-Cash/contracts/Umbra.sol\":13807:13809  _v */\n      dup8\n        /* \"Umbra-Cash/contracts/Umbra.sol\":13811:13813  _r */\n      dup8\n        /* \"Umbra-Cash/contracts/Umbra.sol\":13815:13817  _s */\n      dup8\n        /* \"Umbra-Cash/contracts/Umbra.sol\":13788:13818  ecrecover(_digest, _v, _r, _s) */\n      mload(0x40)\n      0x00\n      dup2\n      mstore\n      0x20\n      add\n      0x40\n      mstore\n      mload(0x40)\n      dup1\n      dup6\n      dup2\n      mstore\n      0x20\n      add\n      dup5\n      0xff\n      and\n      dup2\n      mstore\n      0x20\n      add\n      dup4\n      dup2\n      mstore\n      0x20\n      add\n      dup3\n      dup2\n      mstore\n      0x20\n      add\n      swap5\n      pop\n      pop\n      pop\n      pop\n      pop\n      0x20\n      mload(0x40)\n      0x20\n      dup2\n      sub\n      swap1\n      dup1\n      dup5\n      sub\n      swap1\n      dup6\n      gas\n      staticcall\n      iszero\n      dup1\n      iszero\n      tag_163\n      jumpi\n      returndatasize\n      0x00\n      dup1\n      returndatacopy\n      revert(0x00, returndatasize)\n    tag_163:\n      pop\n      pop\n      pop\n      mload(sub(mload(0x40), 0x20))\n        /* \"Umbra-Cash/contracts/Umbra.sol\":13760:13818  address _recoveredAddress = ecrecover(_digest, _v, _r, _s) */\n      swap1\n      pop\n        /* \"Umbra-Cash/contracts/Umbra.sol\":13861:13862  0 */\n      0x00\n        /* \"Umbra-Cash/contracts/Umbra.sol\":13832:13863  _recoveredAddress != address(0) */\n      0xffffffffffffffffffffffffffffffffffffffff\n      and\n        /* \"Umbra-Cash/contracts/Umbra.sol\":13832:13849  _recoveredAddress */\n      dup2\n        /* \"Umbra-Cash/contracts/Umbra.sol\":13832:13863  _recoveredAddress != address(0) */\n      0xffffffffffffffffffffffffffffffffffffffff\n      and\n      eq\n      iszero\n        /* \"Umbra-Cash/contracts/Umbra.sol\":13832:13900  _recoveredAddress != address(0) && _recoveredAddress == _stealthAddr */\n      dup1\n      iszero\n      tag_164\n      jumpi\n      pop\n        /* \"Umbra-Cash/contracts/Umbra.sol\":13888:13900  _stealthAddr */\n      dup13\n        /* \"Umbra-Cash/contracts/Umbra.sol\":13867:13900  _recoveredAddress == _stealthAddr */\n      0xffffffffffffffffffffffffffffffffffffffff\n      and\n        /* \"Umbra-Cash/contracts/Umbra.sol\":13867:13884  _recoveredAddress */\n      dup2\n        /* \"Umbra-Cash/contracts/Umbra.sol\":13867:13900  _recoveredAddress == _stealthAddr */\n      0xffffffffffffffffffffffffffffffffffffffff\n      and\n      eq\n        /* \"Umbra-Cash/contracts/Umbra.sol\":13832:13900  _recoveredAddress != address(0) && _recoveredAddress == _stealthAddr */\n    tag_164:\n        /* \"Umbra-Cash/contracts/Umbra.sol\":13824:13929  require(_recoveredAddress != address(0) && _recoveredAddress == _stealthAddr, \"Umbra: Invalid Signature\") */\n      tag_165\n      jumpi\n      mload(0x40)\n      0x08c379a000000000000000000000000000000000000000000000000000000000\n      dup2\n      mstore\n      0x04\n      add\n      dup1\n      dup1\n      0x20\n      add\n      dup3\n      dup2\n      sub\n      dup3\n      mstore\n      0x18\n      dup2\n      mstore\n      0x20\n      add\n      dup1\n      0x556d6272613a20496e76616c6964205369676e61747572650000000000000000\n      dup2\n      mstore\n      pop\n      0x20\n      add\n      swap2\n      pop\n      pop\n      mload(0x40)\n      dup1\n      swap2\n      sub\n      swap1\n      revert\n    tag_165:\n        /* \"Umbra-Cash/contracts/Umbra.sol\":13127:13934  function _validateWithdrawSignature(... */\n      pop\n      pop\n      pop\n      pop\n      pop\n      pop\n      pop\n      pop\n      pop\n      pop\n      pop\n      pop\n      pop\n      jump\t// out\n        /* \"Umbra-Cash/@openzeppelin/contracts/token/ERC20/SafeERC20.sol\":2156:2359  function safeTransferFrom(IERC20 token, address from, address to, uint256 value) internal {... */\n    tag_125:\n        /* \"Umbra-Cash/@openzeppelin/contracts/token/ERC20/SafeERC20.sol\":2256:2352  _callOptionalReturn(token, abi.encodeWithSelector(token.transferFrom.selector, from, to, value)) */\n      tag_167\n        /* \"Umbra-Cash/@openzeppelin/contracts/token/ERC20/SafeERC20.sol\":2276:2281  token */\n      dup5\n        /* \"Umbra-Cash/@openzeppelin/contracts/token/ERC20/SafeERC20.sol\":2306:2333  token.transferFrom.selector */\n      shl(0xe0, 0x23b872dd)\n        /* \"Umbra-Cash/@openzeppelin/contracts/token/ERC20/SafeERC20.sol\":2335:2339  from */\n      dup6\n        /* \"Umbra-Cash/@openzeppelin/contracts/token/ERC20/SafeERC20.sol\":2341:2343  to */\n      dup6\n        /* \"Umbra-Cash/@openzeppelin/contracts/token/ERC20/SafeERC20.sol\":2345:2350  value */\n      dup6\n        /* \"Umbra-Cash/@openzeppelin/contracts/token/ERC20/SafeERC20.sol\":2283:2351  abi.encodeWithSelector(token.transferFrom.selector, from, to, value) */\n      add(0x24, mload(0x40))\n      dup1\n      dup5\n      0xffffffffffffffffffffffffffffffffffffffff\n      and\n      dup2\n      mstore\n      0x20\n      add\n      dup4\n      0xffffffffffffffffffffffffffffffffffffffff\n      and\n      dup2\n      mstore\n      0x20\n      add\n      dup3\n      dup2\n      mstore\n      0x20\n      add\n      swap4\n      pop\n      pop\n      pop\n      pop\n      mload(0x40)\n      0x20\n      dup2\n      dup4\n      sub\n      sub\n      dup2\n      mstore\n      swap1\n      0x40\n      mstore\n      swap1\n      not(0xffffffffffffffffffffffffffffffffffffffffffffffffffffffff)\n      and\n      0x20\n      dup3\n      add\n      dup1\n      mload\n      0xffffffffffffffffffffffffffffffffffffffffffffffffffffffff\n      dup4\n      dup2\n      dup4\n      and\n      or\n      dup4\n      mstore\n      pop\n      pop\n      pop\n      pop\n        /* \"Umbra-Cash/@openzeppelin/contracts/token/ERC20/SafeERC20.sol\":2256:2275  _callOptionalReturn */\n      tag_168\n        /* \"Umbra-Cash/@openzeppelin/contracts/token/ERC20/SafeERC20.sol\":2256:2352  _callOptionalReturn(token, abi.encodeWithSelector(token.transferFrom.selector, from, to, value)) */\n      jump\t// in\n    tag_167:\n        /* \"Umbra-Cash/@openzeppelin/contracts/token/ERC20/SafeERC20.sol\":2156:2359  function safeTransferFrom(IERC20 token, address from, address to, uint256 value) internal {... */\n      pop\n      pop\n      pop\n      pop\n      jump\t// out\n        /* \"Umbra-Cash/@openzeppelin/contracts/token/ERC20/SafeERC20.sol\":1975:2150  function safeTransfer(IERC20 token, address to, uint256 value) internal {... */\n    tag_145:\n        /* \"Umbra-Cash/@openzeppelin/contracts/token/ERC20/SafeERC20.sol\":2057:2143  _callOptionalReturn(token, abi.encodeWithSelector(token.transfer.selector, to, value)) */\n      tag_170\n        /* \"Umbra-Cash/@openzeppelin/contracts/token/ERC20/SafeERC20.sol\":2077:2082  token */\n      dup4\n        /* \"Umbra-Cash/@openzeppelin/contracts/token/ERC20/SafeERC20.sol\":2107:2130  token.transfer.selector */\n      shl(0xe0, 0xa9059cbb)\n        /* \"Umbra-Cash/@openzeppelin/contracts/token/ERC20/SafeERC20.sol\":2132:2134  to */\n      dup5\n        /* \"Umbra-Cash/@openzeppelin/contracts/token/ERC20/SafeERC20.sol\":2136:2141  value */\n      dup5\n        /* \"Umbra-Cash/@openzeppelin/contracts/token/ERC20/SafeERC20.sol\":2084:2142  abi.encodeWithSelector(token.transfer.selector, to, value) */\n      add(0x24, mload(0x40))\n      dup1\n      dup4\n      0xffffffffffffffffffffffffffffffffffffffff\n      and\n      dup2\n      mstore\n      0x20\n      add\n      dup3\n      dup2\n      mstore\n      0x20\n      add\n      swap3\n      pop\n      pop\n      pop\n      mload(0x40)\n      0x20\n      dup2\n      dup4\n      sub\n      sub\n      dup2\n      mstore\n      swap1\n      0x40\n      mstore\n      swap1\n      not(0xffffffffffffffffffffffffffffffffffffffffffffffffffffffff)\n      and\n      0x20\n      dup3\n      add\n      dup1\n      mload\n      0xffffffffffffffffffffffffffffffffffffffffffffffffffffffff\n      dup4\n      dup2\n      dup4\n      and\n      or\n      dup4\n      mstore\n      pop\n      pop\n      pop\n      pop\n        /* \"Umbra-Cash/@openzeppelin/contracts/token/ERC20/SafeERC20.sol\":2057:2076  _callOptionalReturn */\n      tag_168\n        /* \"Umbra-Cash/@openzeppelin/contracts/token/ERC20/SafeERC20.sol\":2057:2143  _callOptionalReturn(token, abi.encodeWithSelector(token.transfer.selector, to, value)) */\n      jump\t// in\n    tag_170:\n        /* \"Umbra-Cash/@openzeppelin/contracts/token/ERC20/SafeERC20.sol\":1975:2150  function safeTransfer(IERC20 token, address to, uint256 value) internal {... */\n      pop\n      pop\n      pop\n      jump\t// out\n        /* \"Umbra-Cash/@openzeppelin/contracts/token/ERC20/SafeERC20.sol\":4238:4989  function _callOptionalReturn(IERC20 token, bytes memory data) private {... */\n    tag_168:\n        /* \"Umbra-Cash/@openzeppelin/contracts/token/ERC20/SafeERC20.sol\":4657:4680  bytes memory returndata */\n      0x00\n        /* \"Umbra-Cash/@openzeppelin/contracts/token/ERC20/SafeERC20.sol\":4683:4752  address(token).functionCall(data, \"SafeERC20: low-level call failed\") */\n      tag_172\n        /* \"Umbra-Cash/@openzeppelin/contracts/token/ERC20/SafeERC20.sol\":4711:4715  data */\n      dup3\n        /* \"Umbra-Cash/@openzeppelin/contracts/token/ERC20/SafeERC20.sol\":4683:4752  address(token).functionCall(data, \"SafeERC20: low-level call failed\") */\n      mload(0x40)\n      dup1\n      0x40\n      add\n      0x40\n      mstore\n      dup1\n      0x20\n      dup2\n      mstore\n      0x20\n      add\n      0x5361666545524332303a206c6f772d6c6576656c2063616c6c206661696c6564\n      dup2\n      mstore\n      pop\n        /* \"Umbra-Cash/@openzeppelin/contracts/token/ERC20/SafeERC20.sol\":4691:4696  token */\n      dup6\n        /* \"Umbra-Cash/@openzeppelin/contracts/token/ERC20/SafeERC20.sol\":4683:4710  address(token).functionCall */\n      0xffffffffffffffffffffffffffffffffffffffff\n      and\n      tag_173\n      swap1\n        /* \"Umbra-Cash/@openzeppelin/contracts/token/ERC20/SafeERC20.sol\":4683:4752  address(token).functionCall(data, \"SafeERC20: low-level call failed\") */\n      swap3\n      swap2\n      swap1\n      0xffffffff\n      and\n      jump\t// in\n    tag_172:\n        /* \"Umbra-Cash/@openzeppelin/contracts/token/ERC20/SafeERC20.sol\":4657:4752  bytes memory returndata = address(token).functionCall(data, \"SafeERC20: low-level call failed\") */\n      swap1\n      pop\n        /* \"Umbra-Cash/@openzeppelin/contracts/token/ERC20/SafeERC20.sol\":4786:4787  0 */\n      0x00\n        /* \"Umbra-Cash/@openzeppelin/contracts/token/ERC20/SafeERC20.sol\":4766:4776  returndata */\n      dup2\n        /* \"Umbra-Cash/@openzeppelin/contracts/token/ERC20/SafeERC20.sol\":4766:4783  returndata.length */\n      mload\n        /* \"Umbra-Cash/@openzeppelin/contracts/token/ERC20/SafeERC20.sol\":4766:4787  returndata.length > 0 */\n      gt\n        /* \"Umbra-Cash/@openzeppelin/contracts/token/ERC20/SafeERC20.sol\":4762:4983  if (returndata.length > 0) { // Return data is optional... */\n      iszero\n      tag_174\n      jumpi\n        /* \"Umbra-Cash/@openzeppelin/contracts/token/ERC20/SafeERC20.sol\":4906:4916  returndata */\n      dup1\n        /* \"Umbra-Cash/@openzeppelin/contracts/token/ERC20/SafeERC20.sol\":4895:4925  abi.decode(returndata, (bool)) */\n      dup1\n      0x20\n      add\n      swap1\n      mload\n      0x20\n      dup2\n      lt\n      iszero\n      tag_175\n      jumpi\n      0x00\n      dup1\n      revert\n    tag_175:\n      dup2\n      add\n      swap1\n      dup1\n      dup1\n      mload\n      swap1\n      0x20\n      add\n      swap1\n      swap3\n      swap2\n      swap1\n      pop\n      pop\n      pop\n        /* \"Umbra-Cash/@openzeppelin/contracts/token/ERC20/SafeERC20.sol\":4887:4972  require(abi.decode(returndata, (bool)), \"SafeERC20: ERC20 operation did not succeed\") */\n      tag_176\n      jumpi\n      mload(0x40)\n      0x08c379a000000000000000000000000000000000000000000000000000000000\n      dup2\n      mstore\n      0x04\n      add\n      dup1\n      dup1\n      0x20\n      add\n      dup3\n      dup2\n      sub\n      dup3\n      mstore\n      0x2a\n      dup2\n      mstore\n      0x20\n      add\n      dup1\n      data_e11ad79d1e4a7f2e5f376964cb99e8e8f7904e3fc16a109f7a7ecb9aa7956dcd\n      0x2a\n      swap2\n      codecopy\n      0x40\n      add\n      swap2\n      pop\n      pop\n      mload(0x40)\n      dup1\n      swap2\n      sub\n      swap1\n      revert\n    tag_176:\n        /* \"Umbra-Cash/@openzeppelin/contracts/token/ERC20/SafeERC20.sol\":4762:4983  if (returndata.length > 0) { // Return data is optional... */\n    tag_174:\n        /* \"Umbra-Cash/@openzeppelin/contracts/token/ERC20/SafeERC20.sol\":4238:4989  function _callOptionalReturn(IERC20 token, bytes memory data) private {... */\n      pop\n      pop\n      pop\n      jump\t// out\n        /* \"Umbra-Cash/@openzeppelin/contracts/utils/Address.sol\":4852:5045  function functionCall(address target, bytes memory data, string memory errorMessage) internal returns (bytes memory) {... */\n    tag_173:\n        /* \"Umbra-Cash/@openzeppelin/contracts/utils/Address.sol\":4955:4967  bytes memory */\n      0x60\n        /* \"Umbra-Cash/@openzeppelin/contracts/utils/Address.sol\":4986:5038  functionCallWithValue(target, data, 0, errorMessage) */\n      tag_178\n        /* \"Umbra-Cash/@openzeppelin/contracts/utils/Address.sol\":5008:5014  target */\n      dup5\n        /* \"Umbra-Cash/@openzeppelin/contracts/utils/Address.sol\":5016:5020  data */\n      dup5\n        /* \"Umbra-Cash/@openzeppelin/contracts/utils/Address.sol\":5022:5023  0 */\n      0x00\n        /* \"Umbra-Cash/@openzeppelin/contracts/utils/Address.sol\":5025:5037  errorMessage */\n      dup6\n        /* \"Umbra-Cash/@openzeppelin/contracts/utils/Address.sol\":4986:5007  functionCallWithValue */\n      tag_179\n        /* \"Umbra-Cash/@openzeppelin/contracts/utils/Address.sol\":4986:5038  functionCallWithValue(target, data, 0, errorMessage) */\n      jump\t// in\n    tag_178:\n        /* \"Umbra-Cash/@openzeppelin/contracts/utils/Address.sol\":4979:5038  return functionCallWithValue(target, data, 0, errorMessage) */\n      swap1\n      pop\n        /* \"Umbra-Cash/@openzeppelin/contracts/utils/Address.sol\":4852:5045  function functionCall(address target, bytes memory data, string memory errorMessage) internal returns (bytes memory) {... */\n      swap4\n      swap3\n      pop\n      pop\n      pop\n      jump\t// out\n        /* \"Umbra-Cash/@openzeppelin/contracts/utils/Address.sol\":5879:6402  function functionCallWithValue(address target, bytes memory data, uint256 value, string memory errorMessage) internal returns (bytes memory) {... */\n    tag_179:\n        /* \"Umbra-Cash/@openzeppelin/contracts/utils/Address.sol\":6006:6018  bytes memory */\n      0x60\n        /* \"Umbra-Cash/@openzeppelin/contracts/utils/Address.sol\":6063:6068  value */\n      dup3\n        /* \"Umbra-Cash/@openzeppelin/contracts/utils/Address.sol\":6038:6059  address(this).balance */\n      selfbalance\n        /* \"Umbra-Cash/@openzeppelin/contracts/utils/Address.sol\":6038:6068  address(this).balance >= value */\n      lt\n      iszero\n        /* \"Umbra-Cash/@openzeppelin/contracts/utils/Address.sol\":6030:6111  require(address(this).balance >= value, \"Address: insufficient balance for call\") */\n      tag_181\n      jumpi\n      mload(0x40)\n      0x08c379a000000000000000000000000000000000000000000000000000000000\n      dup2\n      mstore\n      0x04\n      add\n      dup1\n      dup1\n      0x20\n      add\n      dup3\n      dup2\n      sub\n      dup3\n      mstore\n      0x26\n      dup2\n      mstore\n      0x20\n      add\n      dup1\n      data_565f1a77334fc4792800921178c71e4521acffab18ff9e7885b49377ee80ab4c\n      0x26\n      swap2\n      codecopy\n      0x40\n      add\n      swap2\n      pop\n      pop\n      mload(0x40)\n      dup1\n      swap2\n      sub\n      swap1\n      revert\n    tag_181:\n        /* \"Umbra-Cash/@openzeppelin/contracts/utils/Address.sol\":6129:6147  isContract(target) */\n      tag_182\n        /* \"Umbra-Cash/@openzeppelin/contracts/utils/Address.sol\":6140:6146  target */\n      dup6\n        /* \"Umbra-Cash/@openzeppelin/contracts/utils/Address.sol\":6129:6139  isContract */\n      tag_183\n        /* \"Umbra-Cash/@openzeppelin/contracts/utils/Address.sol\":6129:6147  isContract(target) */\n      jump\t// in\n    tag_182:\n        /* \"Umbra-Cash/@openzeppelin/contracts/utils/Address.sol\":6121:6181  require(isContract(target), \"Address: call to non-contract\") */\n      tag_184\n      jumpi\n      mload(0x40)\n      0x08c379a000000000000000000000000000000000000000000000000000000000\n      dup2\n      mstore\n      0x04\n      add\n      dup1\n      dup1\n      0x20\n      add\n      dup3\n      dup2\n      sub\n      dup3\n      mstore\n      0x1d\n      dup2\n      mstore\n      0x20\n      add\n      dup1\n      0x416464726573733a2063616c6c20746f206e6f6e2d636f6e7472616374000000\n      dup2\n      mstore\n      pop\n      0x20\n      add\n      swap2\n      pop\n      pop\n      mload(0x40)\n      dup1\n      swap2\n      sub\n      swap1\n      revert\n    tag_184:\n        /* \"Umbra-Cash/@openzeppelin/contracts/utils/Address.sol\":6252:6264  bool success */\n      0x00\n        /* \"Umbra-Cash/@openzeppelin/contracts/utils/Address.sol\":6266:6289  bytes memory returndata */\n      dup1\n        /* \"Umbra-Cash/@openzeppelin/contracts/utils/Address.sol\":6293:6299  target */\n      dup7\n        /* \"Umbra-Cash/@openzeppelin/contracts/utils/Address.sol\":6293:6304  target.call */\n      0xffffffffffffffffffffffffffffffffffffffff\n      and\n        /* \"Umbra-Cash/@openzeppelin/contracts/utils/Address.sol\":6313:6318  value */\n      dup6\n        /* \"Umbra-Cash/@openzeppelin/contracts/utils/Address.sol\":6321:6325  data */\n      dup8\n        /* \"Umbra-Cash/@openzeppelin/contracts/utils/Address.sol\":6293:6326  target.call{ value: value }(data) */\n      mload(0x40)\n      dup1\n      dup3\n      dup1\n      mload\n      swap1\n      0x20\n      add\n      swap1\n      dup1\n      dup4\n      dup4\n    tag_185:\n      0x20\n      dup4\n      lt\n      tag_187\n      jumpi\n      dup1\n      mload\n      dup3\n      mstore\n      0x20\n      dup3\n      add\n      swap2\n      pop\n      0x20\n      dup2\n      add\n      swap1\n      pop\n      0x20\n      dup4\n      sub\n      swap3\n      pop\n      jump(tag_185)\n    tag_187:\n      0x01\n      dup4\n      0x20\n      sub\n      0x0100\n      exp\n      sub\n      dup1\n      not\n      dup3\n      mload\n      and\n      dup2\n      dup5\n      mload\n      and\n      dup1\n      dup3\n      or\n      dup6\n      mstore\n      pop\n      pop\n      pop\n      pop\n      pop\n      pop\n      swap1\n      pop\n      add\n      swap2\n      pop\n      pop\n      0x00\n      mload(0x40)\n      dup1\n      dup4\n      sub\n      dup2\n      dup6\n      dup8\n      gas\n      call\n      swap3\n      pop\n      pop\n      pop\n      returndatasize\n      dup1\n      0x00\n      dup2\n      eq\n      tag_190\n      jumpi\n      mload(0x40)\n      swap2\n      pop\n      and(add(returndatasize, 0x3f), not(0x1f))\n      dup3\n      add\n      0x40\n      mstore\n      returndatasize\n      dup3\n      mstore\n      returndatasize\n      0x00\n      0x20\n      dup5\n      add\n      returndatacopy\n      jump(tag_189)\n    tag_190:\n      0x60\n      swap2\n      pop\n    tag_189:\n      pop\n        /* \"Umbra-Cash/@openzeppelin/contracts/utils/Address.sol\":6251:6326  (bool success, bytes memory returndata) = target.call{ value: value }(data) */\n      swap2\n      pop\n      swap2\n      pop\n        /* \"Umbra-Cash/@openzeppelin/contracts/utils/Address.sol\":6343:6395  _verifyCallResult(success, returndata, errorMessage) */\n      tag_191\n        /* \"Umbra-Cash/@openzeppelin/contracts/utils/Address.sol\":6361:6368  success */\n      dup3\n        /* \"Umbra-Cash/@openzeppelin/contracts/utils/Address.sol\":6370:6380  returndata */\n      dup3\n        /* \"Umbra-Cash/@openzeppelin/contracts/utils/Address.sol\":6382:6394  errorMessage */\n      dup7\n        /* \"Umbra-Cash/@openzeppelin/contracts/utils/Address.sol\":6343:6360  _verifyCallResult */\n      tag_192\n        /* \"Umbra-Cash/@openzeppelin/contracts/utils/Address.sol\":6343:6395  _verifyCallResult(success, returndata, errorMessage) */\n      jump\t// in\n    tag_191:\n        /* \"Umbra-Cash/@openzeppelin/contracts/utils/Address.sol\":6336:6395  return _verifyCallResult(success, returndata, errorMessage) */\n      swap3\n      pop\n      pop\n      pop\n        /* \"Umbra-Cash/@openzeppelin/contracts/utils/Address.sol\":5879:6402  function functionCallWithValue(address target, bytes memory data, uint256 value, string memory errorMessage) internal returns (bytes memory) {... */\n      swap5\n      swap4\n      pop\n      pop\n      pop\n      pop\n      jump\t// out\n        /* \"Umbra-Cash/@openzeppelin/contracts/utils/Address.sol\":1997:2410  function isContract(address account) internal view returns (bool) {... */\n    tag_183:\n        /* \"Umbra-Cash/@openzeppelin/contracts/utils/Address.sol\":2057:2061  bool */\n      0x00\n        /* \"Umbra-Cash/@openzeppelin/contracts/utils/Address.sol\":2260:2272  uint256 size */\n      dup1\n        /* \"Umbra-Cash/@openzeppelin/contracts/utils/Address.sol\":2369:2376  account */\n      dup3\n        /* \"Umbra-Cash/@openzeppelin/contracts/utils/Address.sol\":2357:2377  extcodesize(account) */\n      extcodesize\n        /* \"Umbra-Cash/@openzeppelin/contracts/utils/Address.sol\":2349:2377  size := extcodesize(account) */\n      swap1\n      pop\n        /* \"Umbra-Cash/@openzeppelin/contracts/utils/Address.sol\":2402:2403  0 */\n      0x00\n        /* \"Umbra-Cash/@openzeppelin/contracts/utils/Address.sol\":2395:2399  size */\n      dup2\n        /* \"Umbra-Cash/@openzeppelin/contracts/utils/Address.sol\":2395:2403  size > 0 */\n      gt\n        /* \"Umbra-Cash/@openzeppelin/contracts/utils/Address.sol\":2388:2403  return size > 0 */\n      swap2\n      pop\n      pop\n        /* \"Umbra-Cash/@openzeppelin/contracts/utils/Address.sol\":1997:2410  function isContract(address account) internal view returns (bool) {... */\n      swap2\n      swap1\n      pop\n      jump\t// out\n        /* \"Umbra-Cash/@openzeppelin/contracts/utils/Address.sol\":8362:9087  function _verifyCallResult(bool success, bytes memory returndata, string memory errorMessage) private pure returns(bytes memory) {... */\n    tag_192:\n        /* \"Umbra-Cash/@openzeppelin/contracts/utils/Address.sol\":8477:8489  bytes memory */\n      0x60\n        /* \"Umbra-Cash/@openzeppelin/contracts/utils/Address.sol\":8505:8512  success */\n      dup4\n        /* \"Umbra-Cash/@openzeppelin/contracts/utils/Address.sol\":8501:9081  if (success) {... */\n      iszero\n      tag_195\n      jumpi\n        /* \"Umbra-Cash/@openzeppelin/contracts/utils/Address.sol\":8535:8545  returndata */\n      dup3\n        /* \"Umbra-Cash/@openzeppelin/contracts/utils/Address.sol\":8528:8545  return returndata */\n      swap1\n      pop\n      jump(tag_194)\n        /* \"Umbra-Cash/@openzeppelin/contracts/utils/Address.sol\":8501:9081  if (success) {... */\n    tag_195:\n        /* \"Umbra-Cash/@openzeppelin/contracts/utils/Address.sol\":8666:8667  0 */\n      0x00\n        /* \"Umbra-Cash/@openzeppelin/contracts/utils/Address.sol\":8646:8656  returndata */\n      dup4\n        /* \"Umbra-Cash/@openzeppelin/contracts/utils/Address.sol\":8646:8663  returndata.length */\n      mload\n        /* \"Umbra-Cash/@openzeppelin/contracts/utils/Address.sol\":8646:8667  returndata.length > 0 */\n      gt\n        /* \"Umbra-Cash/@openzeppelin/contracts/utils/Address.sol\":8642:9071  if (returndata.length > 0) {... */\n      iszero\n      tag_197\n      jumpi\n        /* \"Umbra-Cash/@openzeppelin/contracts/utils/Address.sol\":8904:8914  returndata */\n      dup3\n        /* \"Umbra-Cash/@openzeppelin/contracts/utils/Address.sol\":8898:8915  mload(returndata) */\n      mload\n        /* \"Umbra-Cash/@openzeppelin/contracts/utils/Address.sol\":8964:8979  returndata_size */\n      dup1\n        /* \"Umbra-Cash/@openzeppelin/contracts/utils/Address.sol\":8951:8961  returndata */\n      dup5\n        /* \"Umbra-Cash/@openzeppelin/contracts/utils/Address.sol\":8947:8949  32 */\n      0x20\n        /* \"Umbra-Cash/@openzeppelin/contracts/utils/Address.sol\":8943:8962  add(32, returndata) */\n      add\n        /* \"Umbra-Cash/@openzeppelin/contracts/utils/Address.sol\":8936:8980  revert(add(32, returndata), returndata_size) */\n      revert\n        /* \"Umbra-Cash/@openzeppelin/contracts/utils/Address.sol\":8853:8998  {... */\n    tag_197:\n        /* \"Umbra-Cash/@openzeppelin/contracts/utils/Address.sol\":9043:9055  errorMessage */\n      dup2\n        /* \"Umbra-Cash/@openzeppelin/contracts/utils/Address.sol\":9036:9056  revert(errorMessage) */\n      mload(0x40)\n      0x08c379a000000000000000000000000000000000000000000000000000000000\n      dup2\n      mstore\n      0x04\n      add\n      dup1\n      dup1\n      0x20\n      add\n      dup3\n      dup2\n      sub\n      dup3\n      mstore\n      dup4\n      dup2\n      dup2\n      mload\n      dup2\n      mstore\n      0x20\n      add\n      swap2\n      pop\n      dup1\n      mload\n      swap1\n      0x20\n      add\n      swap1\n      dup1\n      dup4\n      dup4\n      0x00\n    tag_199:\n      dup4\n      dup2\n      lt\n      iszero\n      tag_201\n      jumpi\n      dup1\n      dup3\n      add\n      mload\n      dup2\n      dup5\n      add\n      mstore\n      0x20\n      dup2\n      add\n      swap1\n      pop\n      jump(tag_199)\n    tag_201:\n      pop\n      pop\n      pop\n      pop\n      swap1\n      pop\n      swap1\n      dup2\n      add\n      swap1\n      0x1f\n      and\n      dup1\n      iszero\n      tag_202\n      jumpi\n      dup1\n      dup3\n      sub\n      dup1\n      mload\n      0x01\n      dup4\n      0x20\n      sub\n      0x0100\n      exp\n      sub\n      not\n      and\n      dup2\n      mstore\n      0x20\n      add\n      swap2\n      pop\n    tag_202:\n      pop\n      swap3\n      pop\n      pop\n      pop\n      mload(0x40)\n      dup1\n      swap2\n      sub\n      swap1\n      revert\n        /* \"Umbra-Cash/@openzeppelin/contracts/utils/Address.sol\":8362:9087  function _verifyCallResult(bool success, bytes memory returndata, string memory errorMessage) private pure returns(bytes memory) {... */\n    tag_194:\n      swap4\n      swap3\n      pop\n      pop\n      pop\n      jump\t// out\n    stop\n    data_00ca1233b01abaabbdb94e9011f33e8aa8820481688dcdb39c067911cae56dfa 556d6272613a204d75737420706179206d6f7265207468616e2074686520746f6c6c\n    data_245f15ff17f551913a7a18385165551503906a406f905ac1c2437281a7cd0cfe 4f776e61626c653a206e6577206f776e657220697320746865207a65726f2061646472657373\n    data_328b8850d4c62d9ba870e891ed4b84c12bcfb70602a6a87db8f71bfe7c2b366f 556d6272613a204e6f2062616c616e636520746f207769746864726177206f722066656520657863656564732062616c616e6365\n    data_3ba2500259aaf08c491d20e45c71e26c1f3d2f4807d550af7cccfc731dcbadcb 556d6272613a20496e76616c6964206f72206f7574646174656420746f6c6c20636f6d6d69746d656e74\n    data_565f1a77334fc4792800921178c71e4521acffab18ff9e7885b49377ee80ab4c 416464726573733a20696e73756666696369656e742062616c616e636520666f722063616c6c\n    data_91b974c51d0aa6487a00d9c7a5b1a24d189aa620f85343b127c7cf92d6abc644 556d6272613a2043616e6e6f742073656e64206d6f726520746f6b656e7320746f20737465616c74682061646472657373\n    data_e11ad79d1e4a7f2e5f376964cb99e8e8f7904e3fc16a109f7a7ecb9aa7956dcd 5361666545524332303a204552433230206f7065726174696f6e20646964206e6f742073756363656564\n\n    auxdata: 0xa26469706673582212205e254d7b699170d9a1cf44ff06a3b68122013e708b2765b975079610b20853f264736f6c63430007060033\n}\n",
				"bytecode": {
					"linkReferences": {},
					"object": "608060405234801561001057600080fd5b506040516123993803806123998339818101604052606081101561003357600080fd5b81019080805190602001909291908051906020019092919080519060200190929190505050600061006861019760201b60201c565b9050806000806101000a81548173ffffffffffffffffffffffffffffffffffffffff021916908373ffffffffffffffffffffffffffffffffffffffff1602179055508073ffffffffffffffffffffffffffffffffffffffff16600073ffffffffffffffffffffffffffffffffffffffff167f8be0079c531659141344cd1fd0a4f28419497f9722a3daafe3b4186f6b6457e060405160405180910390a3508260018190555081600260006101000a81548173ffffffffffffffffffffffffffffffffffffffff021916908373ffffffffffffffffffffffffffffffffffffffff16021790555080600360006101000a81548173ffffffffffffffffffffffffffffffffffffffff021916908373ffffffffffffffffffffffffffffffffffffffff16021790555050505061019f565b600033905090565b6121eb806101ae6000396000f3fe6080604052600436106100fe5760003560e01c806381ab0fcd11610095578063b400ee4611610064578063b400ee46146106f9578063b9bfabe11461073a578063beb9addf146107bc578063c0b9b4ea1461081e578063f2fde38b1461086f576100fe565b806381ab0fcd1461051b5780638da5cb5b146105f85780638ef490b014610639578063a3dace5d146106be576100fe565b8063285aaa20116100d1578063285aaa20146104275780633aeac4e114610452578063715018a6146104c35780637e8c2f94146104da576100fe565b8063059ca2f5146101035780630c6b70671461022b578063185ad0a51461027c57806323d0e7a114610293575b600080fd5b34801561010f57600080fd5b506102296004803603608081101561012657600080fd5b81019080803573ffffffffffffffffffffffffffffffffffffffff169060200190929190803573ffffffffffffffffffffffffffffffffffffffff169060200190929190803573ffffffffffffffffffffffffffffffffffffffff169060200190929190803590602001906401000000008111156101a357600080fd5b8201836020820111156101b557600080fd5b803590602001918460018302840111640100000000831117156101d757600080fd5b91908080601f016020809104026020016040519081016040528093929190818152602001838380828437600081840152601f19601f8201169050808301925050505050505091929192905050506108c0565b005b34801561023757600080fd5b5061027a6004803603602081101561024e57600080fd5b81019080803573ffffffffffffffffffffffffffffffffffffffff1690602001909291905050506108d6565b005b34801561028857600080fd5b506102916109c9565b005b34801561029f57600080fd5b5061042560048036036101408110156102b757600080fd5b81019080803573ffffffffffffffffffffffffffffffffffffffff169060200190929190803573ffffffffffffffffffffffffffffffffffffffff169060200190929190803573ffffffffffffffffffffffffffffffffffffffff169060200190929190803573ffffffffffffffffffffffffffffffffffffffff16906020019092919080359060200190929190803573ffffffffffffffffffffffffffffffffffffffff1690602001909291908035906020019064010000000081111561037e57600080fd5b82018360208201111561039057600080fd5b803590602001918460018302840111640100000000831117156103b257600080fd5b91908080601f016020809104026020016040519081016040528093929190818152602001838380828437600081840152601f19601f820116905080830192505050505050509192919290803560ff1690602001909291908035906020019092919080359060200190929190505050610af7565b005b34801561043357600080fd5b5061043c610b24565b6040518082815260200191505060405180910390f35b34801561045e57600080fd5b506104c16004803603604081101561047557600080fd5b81019080803573ffffffffffffffffffffffffffffffffffffffff169060200190929190803573ffffffffffffffffffffffffffffffffffffffff169060200190929190505050610b2a565b005b3480156104cf57600080fd5b506104d8610b4e565b005b3480156104e657600080fd5b506104ef610cbb565b604051808273ffffffffffffffffffffffffffffffffffffffff16815260200191505060405180910390f35b34801561052757600080fd5b506105f6600480360361010081101561053f57600080fd5b81019080803573ffffffffffffffffffffffffffffffffffffffff169060200190929190803573ffffffffffffffffffffffffffffffffffffffff169060200190929190803573ffffffffffffffffffffffffffffffffffffffff169060200190929190803573ffffffffffffffffffffffffffffffffffffffff16906020019092919080359060200190929190803560ff1690602001909291908035906020019092919080359060200190929190505050610ce1565b005b34801561060457600080fd5b5061060d610d2c565b604051808273ffffffffffffffffffffffffffffffffffffffff16815260200191505060405180910390f35b34801561064557600080fd5b506106a86004803603604081101561065c57600080fd5b81019080803573ffffffffffffffffffffffffffffffffffffffff169060200190929190803573ffffffffffffffffffffffffffffffffffffffff169060200190929190505050610d55565b6040518082815260200191505060405180910390f35b3480156106ca57600080fd5b506106f7600480360360208110156106e157600080fd5b8101908080359060200190929190505050610d7a565b005b34801561070557600080fd5b5061070e610e33565b604051808273ffffffffffffffffffffffffffffffffffffffff16815260200191505060405180910390f35b6107ba600480360360a081101561075057600080fd5b81019080803573ffffffffffffffffffffffffffffffffffffffff169060200190929190803573ffffffffffffffffffffffffffffffffffffffff169060200190929190803590602001909291908035906020019092919080359060200190929190505050610e59565b005b61081c600480360360808110156107d257600080fd5b81019080803573ffffffffffffffffffffffffffffffffffffffff1690602001909291908035906020019092919080359060200190929190803590602001909291905050506110ae565b005b34801561082a57600080fd5b5061086d6004803603602081101561084157600080fd5b81019080803573ffffffffffffffffffffffffffffffffffffffff169060200190929190505050611242565b005b34801561087b57600080fd5b506108be6004803603602081101561089257600080fd5b81019080803573ffffffffffffffffffffffffffffffffffffffff169060200190929190505050611335565b005b6108d03385856000808787611527565b50505050565b6108de6118bb565b73ffffffffffffffffffffffffffffffffffffffff166108fc610d2c565b73ffffffffffffffffffffffffffffffffffffffff1614610985576040517f08c379a00000000000000000000000000000000000000000000000000000000081526004018080602001828103825260208152602001807f4f776e61626c653a2063616c6c6572206973206e6f7420746865206f776e657281525060200191505060405180910390fd5b80600260006101000a81548173ffffffffffffffffffffffffffffffffffffffff021916908373ffffffffffffffffffffffffffffffffffffffff16021790555050565b600260009054906101000a900473ffffffffffffffffffffffffffffffffffffffff1673ffffffffffffffffffffffffffffffffffffffff163373ffffffffffffffffffffffffffffffffffffffff1614610a8c576040517f08c379a00000000000000000000000000000000000000000000000000000000081526004018080602001828103825260198152602001807f556d6272613a204e6f7420746f6c6c20636f6c6c6563746f720000000000000081525060200191505060405180910390fd5b600360009054906101000a900473ffffffffffffffffffffffffffffffffffffffff1673ffffffffffffffffffffffffffffffffffffffff166108fc479081150290604051600060405180830381858888f19350505050158015610af4573d6000803e3d6000fd5b50565b610b098a8a8a8a8a8a8a8a8a8a6118c3565b610b188a8a8a8a8a8a8a611527565b50505050505050505050565b60015481565b610b4a338383600080600060405180602001604052806000815250611527565b5050565b610b566118bb565b73ffffffffffffffffffffffffffffffffffffffff16610b74610d2c565b73ffffffffffffffffffffffffffffffffffffffff1614610bfd576040517f08c379a00000000000000000000000000000000000000000000000000000000081526004018080602001828103825260208152602001807f4f776e61626c653a2063616c6c6572206973206e6f7420746865206f776e657281525060200191505060405180910390fd5b600073ffffffffffffffffffffffffffffffffffffffff1660008054906101000a900473ffffffffffffffffffffffffffffffffffffffff1673ffffffffffffffffffffffffffffffffffffffff167f8be0079c531659141344cd1fd0a4f28419497f9722a3daafe3b4186f6b6457e060405160405180910390a360008060006101000a81548173ffffffffffffffffffffffffffffffffffffffff021916908373ffffffffffffffffffffffffffffffffffffffff160217905550565b600260009054906101000a900473ffffffffffffffffffffffffffffffffffffffff1681565b610d0388888888886000604051806020016040528060008152508a8a8a6118c3565b610d228888888888600060405180602001604052806000815250611527565b5050505050505050565b60008060009054906101000a900473ffffffffffffffffffffffffffffffffffffffff16905090565b6004602052816000526040600020602052806000526040600020600091509150505481565b610d826118bb565b73ffffffffffffffffffffffffffffffffffffffff16610da0610d2c565b73ffffffffffffffffffffffffffffffffffffffff1614610e29576040517f08c379a00000000000000000000000000000000000000000000000000000000081526004018080602001828103825260208152602001807f4f776e61626c653a2063616c6c6572206973206e6f7420746865206f776e657281525060200191505060405180910390fd5b8060018190555050565b600360009054906101000a900473ffffffffffffffffffffffffffffffffffffffff1681565b6001543414610ed0576040517f08c379a000000000000000000000000000000000000000000000000000000000815260040180806020018281038252601e8152602001807f556d6272613a204d757374207061792074686520657861637420746f6c6c000081525060200191505060405180910390fd5b6000600460008773ffffffffffffffffffffffffffffffffffffffff1673ffffffffffffffffffffffffffffffffffffffff16815260200190815260200160002060008673ffffffffffffffffffffffffffffffffffffffff1673ffffffffffffffffffffffffffffffffffffffff1681526020019081526020016000205414610fa5576040517f08c379a000000000000000000000000000000000000000000000000000000000815260040180806020018281038252603181526020018061215b6031913960400191505060405180910390fd5b82600460008773ffffffffffffffffffffffffffffffffffffffff1673ffffffffffffffffffffffffffffffffffffffff16815260200190815260200160002060008673ffffffffffffffffffffffffffffffffffffffff1673ffffffffffffffffffffffffffffffffffffffff168152602001908152602001600020819055508373ffffffffffffffffffffffffffffffffffffffff168573ffffffffffffffffffffffffffffffffffffffff167f29877766fa2bfe3b90008d6d92f965eca91cbc5757ed775740e460799fb9221985858560405180848152602001838152602001828152602001935050505060405180910390a36110a784333086611b9d565b5050505050565b6001548314611108576040517f08c379a000000000000000000000000000000000000000000000000000000000815260040180806020018281038252602a81526020018061210b602a913960400191505060405180910390fd5b6001543411611162576040517f08c379a000000000000000000000000000000000000000000000000000000000815260040180806020018281038252602281526020018061208f6022913960400191505060405180910390fd5b60006001543403905073eeeeeeeeeeeeeeeeeeeeeeeeeeeeeeeeeeeeeeee73ffffffffffffffffffffffffffffffffffffffff168573ffffffffffffffffffffffffffffffffffffffff167f29877766fa2bfe3b90008d6d92f965eca91cbc5757ed775740e460799fb9221983868660405180848152602001838152602001828152602001935050505060405180910390a38473ffffffffffffffffffffffffffffffffffffffff166108fc829081150290604051600060405180830381858888f1935050505015801561123a573d6000803e3d6000fd5b505050505050565b61124a6118bb565b73ffffffffffffffffffffffffffffffffffffffff16611268610d2c565b73ffffffffffffffffffffffffffffffffffffffff16146112f1576040517f08c379a00000000000000000000000000000000000000000000000000000000081526004018080602001828103825260208152602001807f4f776e61626c653a2063616c6c6572206973206e6f7420746865206f776e657281525060200191505060405180910390fd5b80600360006101000a81548173ffffffffffffffffffffffffffffffffffffffff021916908373ffffffffffffffffffffffffffffffffffffffff16021790555050565b61133d6118bb565b73ffffffffffffffffffffffffffffffffffffffff1661135b610d2c565b73ffffffffffffffffffffffffffffffffffffffff16146113e4576040517f08c379a00000000000000000000000000000000000000000000000000000000081526004018080602001828103825260208152602001807f4f776e61626c653a2063616c6c6572206973206e6f7420746865206f776e657281525060200191505060405180910390fd5b600073ffffffffffffffffffffffffffffffffffffffff168173ffffffffffffffffffffffffffffffffffffffff16141561146a576040517f08c379a00000000000000000000000000000000000000000000000000000000081526004018080602001828103825260268152602001806120b16026913960400191505060405180910390fd5b8073ffffffffffffffffffffffffffffffffffffffff1660008054906101000a900473ffffffffffffffffffffffffffffffffffffffff1673ffffffffffffffffffffffffffffffffffffffff167f8be0079c531659141344cd1fd0a4f28419497f9722a3daafe3b4186f6b6457e060405160405180910390a3806000806101000a81548173ffffffffffffffffffffffffffffffffffffffff021916908373ffffffffffffffffffffffffffffffffffffffff16021790555050565b6000600460008973ffffffffffffffffffffffffffffffffffffffff1673ffffffffffffffffffffffffffffffffffffffff16815260200190815260200160002060008773ffffffffffffffffffffffffffffffffffffffff1673ffffffffffffffffffffffffffffffffffffffff168152602001908152602001600020549050838111611600576040517f08c379a00000000000000000000000000000000000000000000000000000000081526004018080602001828103825260348152602001806120d76034913960400191505060405180910390fd5b60008482039050600460008a73ffffffffffffffffffffffffffffffffffffffff1673ffffffffffffffffffffffffffffffffffffffff16815260200190815260200160002060008873ffffffffffffffffffffffffffffffffffffffff1673ffffffffffffffffffffffffffffffffffffffff168152602001908152602001600020600090558673ffffffffffffffffffffffffffffffffffffffff168873ffffffffffffffffffffffffffffffffffffffff168a73ffffffffffffffffffffffffffffffffffffffff167f30eb3583ad09933b693a45452ab07512244cdbc5868701aa004c27b7b267c249846040518082815260200191505060405180910390a461170e878983611c5e565b600085111561172357611722878787611c5e565b5b600073ffffffffffffffffffffffffffffffffffffffff168473ffffffffffffffffffffffffffffffffffffffff16146118b0578373ffffffffffffffffffffffffffffffffffffffff1663579073de828b8b8b8b8b8a6040518863ffffffff1660e01b8152600401808881526020018773ffffffffffffffffffffffffffffffffffffffff1681526020018673ffffffffffffffffffffffffffffffffffffffff1681526020018573ffffffffffffffffffffffffffffffffffffffff1681526020018473ffffffffffffffffffffffffffffffffffffffff16815260200183815260200180602001828103825283818151815260200191508051906020019080838360005b8381101561184557808201518184015260208101905061182a565b50505050905090810190601f1680156118725780820380516001836020036101000a031916815260200191505b5098505050505050505050600060405180830381600087803b15801561189757600080fd5b505af11580156118ab573d6000803e3d6000fd5b505050505b505050505050505050565b600033905090565b6000469050600081308c8c8c8c8c8c604051602001808981526020018873ffffffffffffffffffffffffffffffffffffffff1681526020018773ffffffffffffffffffffffffffffffffffffffff1681526020018673ffffffffffffffffffffffffffffffffffffffff1681526020018573ffffffffffffffffffffffffffffffffffffffff1681526020018481526020018373ffffffffffffffffffffffffffffffffffffffff16815260200180602001828103825283818151815260200191508051906020019080838360005b838110156119ad578082015181840152602081019050611992565b50505050905090810190601f1680156119da5780820380516001836020036101000a031916815260200191505b5099505050505050505050506040516020818303038152906040528051906020012060405160200180807f19457468657265756d205369676e6564204d6573736167653a0a333200000000815250601c01828152602001915050604051602081830303815290604052805190602001209050600060018287878760405160008152602001604052604051808581526020018460ff1681526020018381526020018281526020019450505050506020604051602081039080840390855afa158015611aa8573d6000803e3d6000fd5b505050602060405103519050600073ffffffffffffffffffffffffffffffffffffffff168173ffffffffffffffffffffffffffffffffffffffff1614158015611b1c57508c73ffffffffffffffffffffffffffffffffffffffff168173ffffffffffffffffffffffffffffffffffffffff16145b611b8e576040517f08c379a00000000000000000000000000000000000000000000000000000000081526004018080602001828103825260188152602001807f556d6272613a20496e76616c6964205369676e6174757265000000000000000081525060200191505060405180910390fd5b50505050505050505050505050565b611c58846323b872dd60e01b858585604051602401808473ffffffffffffffffffffffffffffffffffffffff1681526020018373ffffffffffffffffffffffffffffffffffffffff1681526020018281526020019350505050604051602081830303815290604052907bffffffffffffffffffffffffffffffffffffffffffffffffffffffff19166020820180517bffffffffffffffffffffffffffffffffffffffffffffffffffffffff8381831617835250505050611d00565b50505050565b611cfb8363a9059cbb60e01b8484604051602401808373ffffffffffffffffffffffffffffffffffffffff16815260200182815260200192505050604051602081830303815290604052907bffffffffffffffffffffffffffffffffffffffffffffffffffffffff19166020820180517bffffffffffffffffffffffffffffffffffffffffffffffffffffffff8381831617835250505050611d00565b505050565b6000611d62826040518060400160405280602081526020017f5361666545524332303a206c6f772d6c6576656c2063616c6c206661696c65648152508573ffffffffffffffffffffffffffffffffffffffff16611def9092919063ffffffff16565b9050600081511115611dea57808060200190516020811015611d8357600080fd5b8101908080519060200190929190505050611de9576040517f08c379a000000000000000000000000000000000000000000000000000000000815260040180806020018281038252602a81526020018061218c602a913960400191505060405180910390fd5b5b505050565b6060611dfe8484600085611e07565b90509392505050565b606082471015611e62576040517f08c379a00000000000000000000000000000000000000000000000000000000081526004018080602001828103825260268152602001806121356026913960400191505060405180910390fd5b611e6b85611faf565b611edd576040517f08c379a000000000000000000000000000000000000000000000000000000000815260040180806020018281038252601d8152602001807f416464726573733a2063616c6c20746f206e6f6e2d636f6e747261637400000081525060200191505060405180910390fd5b6000808673ffffffffffffffffffffffffffffffffffffffff1685876040518082805190602001908083835b60208310611f2c5780518252602082019150602081019050602083039250611f09565b6001836020036101000a03801982511681845116808217855250505050505090500191505060006040518083038185875af1925050503d8060008114611f8e576040519150601f19603f3d011682016040523d82523d6000602084013e611f93565b606091505b5091509150611fa3828286611fc2565b92505050949350505050565b600080823b905060008111915050919050565b60608315611fd257829050612087565b600083511115611fe55782518084602001fd5b816040517f08c379a00000000000000000000000000000000000000000000000000000000081526004018080602001828103825283818151815260200191508051906020019080838360005b8381101561204c578082015181840152602081019050612031565b50505050905090810190601f1680156120795780820380516001836020036101000a031916815260200191505b509250505060405180910390fd5b939250505056fe556d6272613a204d75737420706179206d6f7265207468616e2074686520746f6c6c4f776e61626c653a206e6577206f776e657220697320746865207a65726f2061646472657373556d6272613a204e6f2062616c616e636520746f207769746864726177206f722066656520657863656564732062616c616e6365556d6272613a20496e76616c6964206f72206f7574646174656420746f6c6c20636f6d6d69746d656e74416464726573733a20696e73756666696369656e742062616c616e636520666f722063616c6c556d6272613a2043616e6e6f742073656e64206d6f726520746f6b656e7320746f20737465616c746820616464726573735361666545524332303a204552433230206f7065726174696f6e20646964206e6f742073756363656564a26469706673582212205e254d7b699170d9a1cf44ff06a3b68122013e708b2765b975079610b20853f264736f6c63430007060033",
					"opcodes": "PUSH1 0x80 PUSH1 0x40 MSTORE CALLVALUE DUP1 ISZERO PUSH2 0x10 JUMPI PUSH1 0x0 DUP1 REVERT JUMPDEST POP PUSH1 0x40 MLOAD PUSH2 0x2399 CODESIZE SUB DUP1 PUSH2 0x2399 DUP4 CODECOPY DUP2 DUP2 ADD PUSH1 0x40 MSTORE PUSH1 0x60 DUP2 LT ISZERO PUSH2 0x33 JUMPI PUSH1 0x0 DUP1 REVERT JUMPDEST DUP2 ADD SWAP1 DUP1 DUP1 MLOAD SWAP1 PUSH1 0x20 ADD SWAP1 SWAP3 SWAP2 SWAP1 DUP1 MLOAD SWAP1 PUSH1 0x20 ADD SWAP1 SWAP3 SWAP2 SWAP1 DUP1 MLOAD SWAP1 PUSH1 0x20 ADD SWAP1 SWAP3 SWAP2 SWAP1 POP POP POP PUSH1 0x0 PUSH2 0x68 PUSH2 0x197 PUSH1 0x20 SHL PUSH1 0x20 SHR JUMP JUMPDEST SWAP1 POP DUP1 PUSH1 0x0 DUP1 PUSH2 0x100 EXP DUP2 SLOAD DUP2 PUSH20 0xFFFFFFFFFFFFFFFFFFFFFFFFFFFFFFFFFFFFFFFF MUL NOT AND SWAP1 DUP4 PUSH20 0xFFFFFFFFFFFFFFFFFFFFFFFFFFFFFFFFFFFFFFFF AND MUL OR SWAP1 SSTORE POP DUP1 PUSH20 0xFFFFFFFFFFFFFFFFFFFFFFFFFFFFFFFFFFFFFFFF AND PUSH1 0x0 PUSH20 0xFFFFFFFFFFFFFFFFFFFFFFFFFFFFFFFFFFFFFFFF AND PUSH32 0x8BE0079C531659141344CD1FD0A4F28419497F9722A3DAAFE3B4186F6B6457E0 PUSH1 0x40 MLOAD PUSH1 0x40 MLOAD DUP1 SWAP2 SUB SWAP1 LOG3 POP DUP3 PUSH1 0x1 DUP2 SWAP1 SSTORE POP DUP2 PUSH1 0x2 PUSH1 0x0 PUSH2 0x100 EXP DUP2 SLOAD DUP2 PUSH20 0xFFFFFFFFFFFFFFFFFFFFFFFFFFFFFFFFFFFFFFFF MUL NOT AND SWAP1 DUP4 PUSH20 0xFFFFFFFFFFFFFFFFFFFFFFFFFFFFFFFFFFFFFFFF AND MUL OR SWAP1 SSTORE POP DUP1 PUSH1 0x3 PUSH1 0x0 PUSH2 0x100 EXP DUP2 SLOAD DUP2 PUSH20 0xFFFFFFFFFFFFFFFFFFFFFFFFFFFFFFFFFFFFFFFF MUL NOT AND SWAP1 DUP4 PUSH20 0xFFFFFFFFFFFFFFFFFFFFFFFFFFFFFFFFFFFFFFFF AND MUL OR SWAP1 SSTORE POP POP POP POP PUSH2 0x19F JUMP JUMPDEST PUSH1 0x0 CALLER SWAP1 POP SWAP1 JUMP JUMPDEST PUSH2 0x21EB DUP1 PUSH2 0x1AE PUSH1 0x0 CODECOPY PUSH1 0x0 RETURN INVALID PUSH1 0x80 PUSH1 0x40 MSTORE PUSH1 0x4 CALLDATASIZE LT PUSH2 0xFE JUMPI PUSH1 0x0 CALLDATALOAD PUSH1 0xE0 SHR DUP1 PUSH4 0x81AB0FCD GT PUSH2 0x95 JUMPI DUP1 PUSH4 0xB400EE46 GT PUSH2 0x64 JUMPI DUP1 PUSH4 0xB400EE46 EQ PUSH2 0x6F9 JUMPI DUP1 PUSH4 0xB9BFABE1 EQ PUSH2 0x73A JUMPI DUP1 PUSH4 0xBEB9ADDF EQ PUSH2 0x7BC JUMPI DUP1 PUSH4 0xC0B9B4EA EQ PUSH2 0x81E JUMPI DUP1 PUSH4 0xF2FDE38B EQ PUSH2 0x86F JUMPI PUSH2 0xFE JUMP JUMPDEST DUP1 PUSH4 0x81AB0FCD EQ PUSH2 0x51B JUMPI DUP1 PUSH4 0x8DA5CB5B EQ PUSH2 0x5F8 JUMPI DUP1 PUSH4 0x8EF490B0 EQ PUSH2 0x639 JUMPI DUP1 PUSH4 0xA3DACE5D EQ PUSH2 0x6BE JUMPI PUSH2 0xFE JUMP JUMPDEST DUP1 PUSH4 0x285AAA20 GT PUSH2 0xD1 JUMPI DUP1 PUSH4 0x285AAA20 EQ PUSH2 0x427 JUMPI DUP1 PUSH4 0x3AEAC4E1 EQ PUSH2 0x452 JUMPI DUP1 PUSH4 0x715018A6 EQ PUSH2 0x4C3 JUMPI DUP1 PUSH4 0x7E8C2F94 EQ PUSH2 0x4DA JUMPI PUSH2 0xFE JUMP JUMPDEST DUP1 PUSH4 0x59CA2F5 EQ PUSH2 0x103 JUMPI DUP1 PUSH4 0xC6B7067 EQ PUSH2 0x22B JUMPI DUP1 PUSH4 0x185AD0A5 EQ PUSH2 0x27C JUMPI DUP1 PUSH4 0x23D0E7A1 EQ PUSH2 0x293 JUMPI JUMPDEST PUSH1 0x0 DUP1 REVERT JUMPDEST CALLVALUE DUP1 ISZERO PUSH2 0x10F JUMPI PUSH1 0x0 DUP1 REVERT JUMPDEST POP PUSH2 0x229 PUSH1 0x4 DUP1 CALLDATASIZE SUB PUSH1 0x80 DUP2 LT ISZERO PUSH2 0x126 JUMPI PUSH1 0x0 DUP1 REVERT JUMPDEST DUP2 ADD SWAP1 DUP1 DUP1 CALLDATALOAD PUSH20 0xFFFFFFFFFFFFFFFFFFFFFFFFFFFFFFFFFFFFFFFF AND SWAP1 PUSH1 0x20 ADD SWAP1 SWAP3 SWAP2 SWAP1 DUP1 CALLDATALOAD PUSH20 0xFFFFFFFFFFFFFFFFFFFFFFFFFFFFFFFFFFFFFFFF AND SWAP1 PUSH1 0x20 ADD SWAP1 SWAP3 SWAP2 SWAP1 DUP1 CALLDATALOAD PUSH20 0xFFFFFFFFFFFFFFFFFFFFFFFFFFFFFFFFFFFFFFFF AND SWAP1 PUSH1 0x20 ADD SWAP1 SWAP3 SWAP2 SWAP1 DUP1 CALLDATALOAD SWAP1 PUSH1 0x20 ADD SWAP1 PUSH5 0x100000000 DUP2 GT ISZERO PUSH2 0x1A3 JUMPI PUSH1 0x0 DUP1 REVERT JUMPDEST DUP3 ADD DUP4 PUSH1 0x20 DUP3 ADD GT ISZERO PUSH2 0x1B5 JUMPI PUSH1 0x0 DUP1 REVERT JUMPDEST DUP1 CALLDATALOAD SWAP1 PUSH1 0x20 ADD SWAP2 DUP5 PUSH1 0x1 DUP4 MUL DUP5 ADD GT PUSH5 0x100000000 DUP4 GT OR ISZERO PUSH2 0x1D7 JUMPI PUSH1 0x0 DUP1 REVERT JUMPDEST SWAP2 SWAP1 DUP1 DUP1 PUSH1 0x1F ADD PUSH1 0x20 DUP1 SWAP2 DIV MUL PUSH1 0x20 ADD PUSH1 0x40 MLOAD SWAP1 DUP2 ADD PUSH1 0x40 MSTORE DUP1 SWAP4 SWAP3 SWAP2 SWAP1 DUP2 DUP2 MSTORE PUSH1 0x20 ADD DUP4 DUP4 DUP1 DUP3 DUP5 CALLDATACOPY PUSH1 0x0 DUP2 DUP5 ADD MSTORE PUSH1 0x1F NOT PUSH1 0x1F DUP3 ADD AND SWAP1 POP DUP1 DUP4 ADD SWAP3 POP POP POP POP POP POP POP SWAP2 SWAP3 SWAP2 SWAP3 SWAP1 POP POP POP PUSH2 0x8C0 JUMP JUMPDEST STOP JUMPDEST CALLVALUE DUP1 ISZERO PUSH2 0x237 JUMPI PUSH1 0x0 DUP1 REVERT JUMPDEST POP PUSH2 0x27A PUSH1 0x4 DUP1 CALLDATASIZE SUB PUSH1 0x20 DUP2 LT ISZERO PUSH2 0x24E JUMPI PUSH1 0x0 DUP1 REVERT JUMPDEST DUP2 ADD SWAP1 DUP1 DUP1 CALLDATALOAD PUSH20 0xFFFFFFFFFFFFFFFFFFFFFFFFFFFFFFFFFFFFFFFF AND SWAP1 PUSH1 0x20 ADD SWAP1 SWAP3 SWAP2 SWAP1 POP POP POP PUSH2 0x8D6 JUMP JUMPDEST STOP JUMPDEST CALLVALUE DUP1 ISZERO PUSH2 0x288 JUMPI PUSH1 0x0 DUP1 REVERT JUMPDEST POP PUSH2 0x291 PUSH2 0x9C9 JUMP JUMPDEST STOP JUMPDEST CALLVALUE DUP1 ISZERO PUSH2 0x29F JUMPI PUSH1 0x0 DUP1 REVERT JUMPDEST POP PUSH2 0x425 PUSH1 0x4 DUP1 CALLDATASIZE SUB PUSH2 0x140 DUP2 LT ISZERO PUSH2 0x2B7 JUMPI PUSH1 0x0 DUP1 REVERT JUMPDEST DUP2 ADD SWAP1 DUP1 DUP1 CALLDATALOAD PUSH20 0xFFFFFFFFFFFFFFFFFFFFFFFFFFFFFFFFFFFFFFFF AND SWAP1 PUSH1 0x20 ADD SWAP1 SWAP3 SWAP2 SWAP1 DUP1 CALLDATALOAD PUSH20 0xFFFFFFFFFFFFFFFFFFFFFFFFFFFFFFFFFFFFFFFF AND SWAP1 PUSH1 0x20 ADD SWAP1 SWAP3 SWAP2 SWAP1 DUP1 CALLDATALOAD PUSH20 0xFFFFFFFFFFFFFFFFFFFFFFFFFFFFFFFFFFFFFFFF AND SWAP1 PUSH1 0x20 ADD SWAP1 SWAP3 SWAP2 SWAP1 DUP1 CALLDATALOAD PUSH20 0xFFFFFFFFFFFFFFFFFFFFFFFFFFFFFFFFFFFFFFFF AND SWAP1 PUSH1 0x20 ADD SWAP1 SWAP3 SWAP2 SWAP1 DUP1 CALLDATALOAD SWAP1 PUSH1 0x20 ADD SWAP1 SWAP3 SWAP2 SWAP1 DUP1 CALLDATALOAD PUSH20 0xFFFFFFFFFFFFFFFFFFFFFFFFFFFFFFFFFFFFFFFF AND SWAP1 PUSH1 0x20 ADD SWAP1 SWAP3 SWAP2 SWAP1 DUP1 CALLDATALOAD SWAP1 PUSH1 0x20 ADD SWAP1 PUSH5 0x100000000 DUP2 GT ISZERO PUSH2 0x37E JUMPI PUSH1 0x0 DUP1 REVERT JUMPDEST DUP3 ADD DUP4 PUSH1 0x20 DUP3 ADD GT ISZERO PUSH2 0x390 JUMPI PUSH1 0x0 DUP1 REVERT JUMPDEST DUP1 CALLDATALOAD SWAP1 PUSH1 0x20 ADD SWAP2 DUP5 PUSH1 0x1 DUP4 MUL DUP5 ADD GT PUSH5 0x100000000 DUP4 GT OR ISZERO PUSH2 0x3B2 JUMPI PUSH1 0x0 DUP1 REVERT JUMPDEST SWAP2 SWAP1 DUP1 DUP1 PUSH1 0x1F ADD PUSH1 0x20 DUP1 SWAP2 DIV MUL PUSH1 0x20 ADD PUSH1 0x40 MLOAD SWAP1 DUP2 ADD PUSH1 0x40 MSTORE DUP1 SWAP4 SWAP3 SWAP2 SWAP1 DUP2 DUP2 MSTORE PUSH1 0x20 ADD DUP4 DUP4 DUP1 DUP3 DUP5 CALLDATACOPY PUSH1 0x0 DUP2 DUP5 ADD MSTORE PUSH1 0x1F NOT PUSH1 0x1F DUP3 ADD AND SWAP1 POP DUP1 DUP4 ADD SWAP3 POP POP POP POP POP POP POP SWAP2 SWAP3 SWAP2 SWAP3 SWAP1 DUP1 CALLDATALOAD PUSH1 0xFF AND SWAP1 PUSH1 0x20 ADD SWAP1 SWAP3 SWAP2 SWAP1 DUP1 CALLDATALOAD SWAP1 PUSH1 0x20 ADD SWAP1 SWAP3 SWAP2 SWAP1 DUP1 CALLDATALOAD SWAP1 PUSH1 0x20 ADD SWAP1 SWAP3 SWAP2 SWAP1 POP POP POP PUSH2 0xAF7 JUMP JUMPDEST STOP JUMPDEST CALLVALUE DUP1 ISZERO PUSH2 0x433 JUMPI PUSH1 0x0 DUP1 REVERT JUMPDEST POP PUSH2 0x43C PUSH2 0xB24 JUMP JUMPDEST PUSH1 0x40 MLOAD DUP1 DUP3 DUP2 MSTORE PUSH1 0x20 ADD SWAP2 POP POP PUSH1 0x40 MLOAD DUP1 SWAP2 SUB SWAP1 RETURN JUMPDEST CALLVALUE DUP1 ISZERO PUSH2 0x45E JUMPI PUSH1 0x0 DUP1 REVERT JUMPDEST POP PUSH2 0x4C1 PUSH1 0x4 DUP1 CALLDATASIZE SUB PUSH1 0x40 DUP2 LT ISZERO PUSH2 0x475 JUMPI PUSH1 0x0 DUP1 REVERT JUMPDEST DUP2 ADD SWAP1 DUP1 DUP1 CALLDATALOAD PUSH20 0xFFFFFFFFFFFFFFFFFFFFFFFFFFFFFFFFFFFFFFFF AND SWAP1 PUSH1 0x20 ADD SWAP1 SWAP3 SWAP2 SWAP1 DUP1 CALLDATALOAD PUSH20 0xFFFFFFFFFFFFFFFFFFFFFFFFFFFFFFFFFFFFFFFF AND SWAP1 PUSH1 0x20 ADD SWAP1 SWAP3 SWAP2 SWAP1 POP POP POP PUSH2 0xB2A JUMP JUMPDEST STOP JUMPDEST CALLVALUE DUP1 ISZERO PUSH2 0x4CF JUMPI PUSH1 0x0 DUP1 REVERT JUMPDEST POP PUSH2 0x4D8 PUSH2 0xB4E JUMP JUMPDEST STOP JUMPDEST CALLVALUE DUP1 ISZERO PUSH2 0x4E6 JUMPI PUSH1 0x0 DUP1 REVERT JUMPDEST POP PUSH2 0x4EF PUSH2 0xCBB JUMP JUMPDEST PUSH1 0x40 MLOAD DUP1 DUP3 PUSH20 0xFFFFFFFFFFFFFFFFFFFFFFFFFFFFFFFFFFFFFFFF AND DUP2 MSTORE PUSH1 0x20 ADD SWAP2 POP POP PUSH1 0x40 MLOAD DUP1 SWAP2 SUB SWAP1 RETURN JUMPDEST CALLVALUE DUP1 ISZERO PUSH2 0x527 JUMPI PUSH1 0x0 DUP1 REVERT JUMPDEST POP PUSH2 0x5F6 PUSH1 0x4 DUP1 CALLDATASIZE SUB PUSH2 0x100 DUP2 LT ISZERO PUSH2 0x53F JUMPI PUSH1 0x0 DUP1 REVERT JUMPDEST DUP2 ADD SWAP1 DUP1 DUP1 CALLDATALOAD PUSH20 0xFFFFFFFFFFFFFFFFFFFFFFFFFFFFFFFFFFFFFFFF AND SWAP1 PUSH1 0x20 ADD SWAP1 SWAP3 SWAP2 SWAP1 DUP1 CALLDATALOAD PUSH20 0xFFFFFFFFFFFFFFFFFFFFFFFFFFFFFFFFFFFFFFFF AND SWAP1 PUSH1 0x20 ADD SWAP1 SWAP3 SWAP2 SWAP1 DUP1 CALLDATALOAD PUSH20 0xFFFFFFFFFFFFFFFFFFFFFFFFFFFFFFFFFFFFFFFF AND SWAP1 PUSH1 0x20 ADD SWAP1 SWAP3 SWAP2 SWAP1 DUP1 CALLDATALOAD PUSH20 0xFFFFFFFFFFFFFFFFFFFFFFFFFFFFFFFFFFFFFFFF AND SWAP1 PUSH1 0x20 ADD SWAP1 SWAP3 SWAP2 SWAP1 DUP1 CALLDATALOAD SWAP1 PUSH1 0x20 ADD SWAP1 SWAP3 SWAP2 SWAP1 DUP1 CALLDATALOAD PUSH1 0xFF AND SWAP1 PUSH1 0x20 ADD SWAP1 SWAP3 SWAP2 SWAP1 DUP1 CALLDATALOAD SWAP1 PUSH1 0x20 ADD SWAP1 SWAP3 SWAP2 SWAP1 DUP1 CALLDATALOAD SWAP1 PUSH1 0x20 ADD SWAP1 SWAP3 SWAP2 SWAP1 POP POP POP PUSH2 0xCE1 JUMP JUMPDEST STOP JUMPDEST CALLVALUE DUP1 ISZERO PUSH2 0x604 JUMPI PUSH1 0x0 DUP1 REVERT JUMPDEST POP PUSH2 0x60D PUSH2 0xD2C JUMP JUMPDEST PUSH1 0x40 MLOAD DUP1 DUP3 PUSH20 0xFFFFFFFFFFFFFFFFFFFFFFFFFFFFFFFFFFFFFFFF AND DUP2 MSTORE PUSH1 0x20 ADD SWAP2 POP POP PUSH1 0x40 MLOAD DUP1 SWAP2 SUB SWAP1 RETURN JUMPDEST CALLVALUE DUP1 ISZERO PUSH2 0x645 JUMPI PUSH1 0x0 DUP1 REVERT JUMPDEST POP PUSH2 0x6A8 PUSH1 0x4 DUP1 CALLDATASIZE SUB PUSH1 0x40 DUP2 LT ISZERO PUSH2 0x65C JUMPI PUSH1 0x0 DUP1 REVERT JUMPDEST DUP2 ADD SWAP1 DUP1 DUP1 CALLDATALOAD PUSH20 0xFFFFFFFFFFFFFFFFFFFFFFFFFFFFFFFFFFFFFFFF AND SWAP1 PUSH1 0x20 ADD SWAP1 SWAP3 SWAP2 SWAP1 DUP1 CALLDATALOAD PUSH20 0xFFFFFFFFFFFFFFFFFFFFFFFFFFFFFFFFFFFFFFFF AND SWAP1 PUSH1 0x20 ADD SWAP1 SWAP3 SWAP2 SWAP1 POP POP POP PUSH2 0xD55 JUMP JUMPDEST PUSH1 0x40 MLOAD DUP1 DUP3 DUP2 MSTORE PUSH1 0x20 ADD SWAP2 POP POP PUSH1 0x40 MLOAD DUP1 SWAP2 SUB SWAP1 RETURN JUMPDEST CALLVALUE DUP1 ISZERO PUSH2 0x6CA JUMPI PUSH1 0x0 DUP1 REVERT JUMPDEST POP PUSH2 0x6F7 PUSH1 0x4 DUP1 CALLDATASIZE SUB PUSH1 0x20 DUP2 LT ISZERO PUSH2 0x6E1 JUMPI PUSH1 0x0 DUP1 REVERT JUMPDEST DUP2 ADD SWAP1 DUP1 DUP1 CALLDATALOAD SWAP1 PUSH1 0x20 ADD SWAP1 SWAP3 SWAP2 SWAP1 POP POP POP PUSH2 0xD7A JUMP JUMPDEST STOP JUMPDEST CALLVALUE DUP1 ISZERO PUSH2 0x705 JUMPI PUSH1 0x0 DUP1 REVERT JUMPDEST POP PUSH2 0x70E PUSH2 0xE33 JUMP JUMPDEST PUSH1 0x40 MLOAD DUP1 DUP3 PUSH20 0xFFFFFFFFFFFFFFFFFFFFFFFFFFFFFFFFFFFFFFFF AND DUP2 MSTORE PUSH1 0x20 ADD SWAP2 POP POP PUSH1 0x40 MLOAD DUP1 SWAP2 SUB SWAP1 RETURN JUMPDEST PUSH2 0x7BA PUSH1 0x4 DUP1 CALLDATASIZE SUB PUSH1 0xA0 DUP2 LT ISZERO PUSH2 0x750 JUMPI PUSH1 0x0 DUP1 REVERT JUMPDEST DUP2 ADD SWAP1 DUP1 DUP1 CALLDATALOAD PUSH20 0xFFFFFFFFFFFFFFFFFFFFFFFFFFFFFFFFFFFFFFFF AND SWAP1 PUSH1 0x20 ADD SWAP1 SWAP3 SWAP2 SWAP1 DUP1 CALLDATALOAD PUSH20 0xFFFFFFFFFFFFFFFFFFFFFFFFFFFFFFFFFFFFFFFF AND SWAP1 PUSH1 0x20 ADD SWAP1 SWAP3 SWAP2 SWAP1 DUP1 CALLDATALOAD SWAP1 PUSH1 0x20 ADD SWAP1 SWAP3 SWAP2 SWAP1 DUP1 CALLDATALOAD SWAP1 PUSH1 0x20 ADD SWAP1 SWAP3 SWAP2 SWAP1 DUP1 CALLDATALOAD SWAP1 PUSH1 0x20 ADD SWAP1 SWAP3 SWAP2 SWAP1 POP POP POP PUSH2 0xE59 JUMP JUMPDEST STOP JUMPDEST PUSH2 0x81C PUSH1 0x4 DUP1 CALLDATASIZE SUB PUSH1 0x80 DUP2 LT ISZERO PUSH2 0x7D2 JUMPI PUSH1 0x0 DUP1 REVERT JUMPDEST DUP2 ADD SWAP1 DUP1 DUP1 CALLDATALOAD PUSH20 0xFFFFFFFFFFFFFFFFFFFFFFFFFFFFFFFFFFFFFFFF AND SWAP1 PUSH1 0x20 ADD SWAP1 SWAP3 SWAP2 SWAP1 DUP1 CALLDATALOAD SWAP1 PUSH1 0x20 ADD SWAP1 SWAP3 SWAP2 SWAP1 DUP1 CALLDATALOAD SWAP1 PUSH1 0x20 ADD SWAP1 SWAP3 SWAP2 SWAP1 DUP1 CALLDATALOAD SWAP1 PUSH1 0x20 ADD SWAP1 SWAP3 SWAP2 SWAP1 POP POP POP PUSH2 0x10AE JUMP JUMPDEST STOP JUMPDEST CALLVALUE DUP1 ISZERO PUSH2 0x82A JUMPI PUSH1 0x0 DUP1 REVERT JUMPDEST POP PUSH2 0x86D PUSH1 0x4 DUP1 CALLDATASIZE SUB PUSH1 0x20 DUP2 LT ISZERO PUSH2 0x841 JUMPI PUSH1 0x0 DUP1 REVERT JUMPDEST DUP2 ADD SWAP1 DUP1 DUP1 CALLDATALOAD PUSH20 0xFFFFFFFFFFFFFFFFFFFFFFFFFFFFFFFFFFFFFFFF AND SWAP1 PUSH1 0x20 ADD SWAP1 SWAP3 SWAP2 SWAP1 POP POP POP PUSH2 0x1242 JUMP JUMPDEST STOP JUMPDEST CALLVALUE DUP1 ISZERO PUSH2 0x87B JUMPI PUSH1 0x0 DUP1 REVERT JUMPDEST POP PUSH2 0x8BE PUSH1 0x4 DUP1 CALLDATASIZE SUB PUSH1 0x20 DUP2 LT ISZERO PUSH2 0x892 JUMPI PUSH1 0x0 DUP1 REVERT JUMPDEST DUP2 ADD SWAP1 DUP1 DUP1 CALLDATALOAD PUSH20 0xFFFFFFFFFFFFFFFFFFFFFFFFFFFFFFFFFFFFFFFF AND SWAP1 PUSH1 0x20 ADD SWAP1 SWAP3 SWAP2 SWAP1 POP POP POP PUSH2 0x1335 JUMP JUMPDEST STOP JUMPDEST PUSH2 0x8D0 CALLER DUP6 DUP6 PUSH1 0x0 DUP1 DUP8 DUP8 PUSH2 0x1527 JUMP JUMPDEST POP POP POP POP JUMP JUMPDEST PUSH2 0x8DE PUSH2 0x18BB JUMP JUMPDEST PUSH20 0xFFFFFFFFFFFFFFFFFFFFFFFFFFFFFFFFFFFFFFFF AND PUSH2 0x8FC PUSH2 0xD2C JUMP JUMPDEST PUSH20 0xFFFFFFFFFFFFFFFFFFFFFFFFFFFFFFFFFFFFFFFF AND EQ PUSH2 0x985 JUMPI PUSH1 0x40 MLOAD PUSH32 0x8C379A000000000000000000000000000000000000000000000000000000000 DUP2 MSTORE PUSH1 0x4 ADD DUP1 DUP1 PUSH1 0x20 ADD DUP3 DUP2 SUB DUP3 MSTORE PUSH1 0x20 DUP2 MSTORE PUSH1 0x20 ADD DUP1 PUSH32 0x4F776E61626C653A2063616C6C6572206973206E6F7420746865206F776E6572 DUP2 MSTORE POP PUSH1 0x20 ADD SWAP2 POP POP PUSH1 0x40 MLOAD DUP1 SWAP2 SUB SWAP1 REVERT JUMPDEST DUP1 PUSH1 0x2 PUSH1 0x0 PUSH2 0x100 EXP DUP2 SLOAD DUP2 PUSH20 0xFFFFFFFFFFFFFFFFFFFFFFFFFFFFFFFFFFFFFFFF MUL NOT AND SWAP1 DUP4 PUSH20 0xFFFFFFFFFFFFFFFFFFFFFFFFFFFFFFFFFFFFFFFF AND MUL OR SWAP1 SSTORE POP POP JUMP JUMPDEST PUSH1 0x2 PUSH1 0x0 SWAP1 SLOAD SWAP1 PUSH2 0x100 EXP SWAP1 DIV PUSH20 0xFFFFFFFFFFFFFFFFFFFFFFFFFFFFFFFFFFFFFFFF AND PUSH20 0xFFFFFFFFFFFFFFFFFFFFFFFFFFFFFFFFFFFFFFFF AND CALLER PUSH20 0xFFFFFFFFFFFFFFFFFFFFFFFFFFFFFFFFFFFFFFFF AND EQ PUSH2 0xA8C JUMPI PUSH1 0x40 MLOAD PUSH32 0x8C379A000000000000000000000000000000000000000000000000000000000 DUP2 MSTORE PUSH1 0x4 ADD DUP1 DUP1 PUSH1 0x20 ADD DUP3 DUP2 SUB DUP3 MSTORE PUSH1 0x19 DUP2 MSTORE PUSH1 0x20 ADD DUP1 PUSH32 0x556D6272613A204E6F7420746F6C6C20636F6C6C6563746F7200000000000000 DUP2 MSTORE POP PUSH1 0x20 ADD SWAP2 POP POP PUSH1 0x40 MLOAD DUP1 SWAP2 SUB SWAP1 REVERT JUMPDEST PUSH1 0x3 PUSH1 0x0 SWAP1 SLOAD SWAP1 PUSH2 0x100 EXP SWAP1 DIV PUSH20 0xFFFFFFFFFFFFFFFFFFFFFFFFFFFFFFFFFFFFFFFF AND PUSH20 0xFFFFFFFFFFFFFFFFFFFFFFFFFFFFFFFFFFFFFFFF AND PUSH2 0x8FC SELFBALANCE SWAP1 DUP2 ISZERO MUL SWAP1 PUSH1 0x40 MLOAD PUSH1 0x0 PUSH1 0x40 MLOAD DUP1 DUP4 SUB DUP2 DUP6 DUP9 DUP9 CALL SWAP4 POP POP POP POP ISZERO DUP1 ISZERO PUSH2 0xAF4 JUMPI RETURNDATASIZE PUSH1 0x0 DUP1 RETURNDATACOPY RETURNDATASIZE PUSH1 0x0 REVERT JUMPDEST POP JUMP JUMPDEST PUSH2 0xB09 DUP11 DUP11 DUP11 DUP11 DUP11 DUP11 DUP11 DUP11 DUP11 DUP11 PUSH2 0x18C3 JUMP JUMPDEST PUSH2 0xB18 DUP11 DUP11 DUP11 DUP11 DUP11 DUP11 DUP11 PUSH2 0x1527 JUMP JUMPDEST POP POP POP POP POP POP POP POP POP POP JUMP JUMPDEST PUSH1 0x1 SLOAD DUP2 JUMP JUMPDEST PUSH2 0xB4A CALLER DUP4 DUP4 PUSH1 0x0 DUP1 PUSH1 0x0 PUSH1 0x40 MLOAD DUP1 PUSH1 0x20 ADD PUSH1 0x40 MSTORE DUP1 PUSH1 0x0 DUP2 MSTORE POP PUSH2 0x1527 JUMP JUMPDEST POP POP JUMP JUMPDEST PUSH2 0xB56 PUSH2 0x18BB JUMP JUMPDEST PUSH20 0xFFFFFFFFFFFFFFFFFFFFFFFFFFFFFFFFFFFFFFFF AND PUSH2 0xB74 PUSH2 0xD2C JUMP JUMPDEST PUSH20 0xFFFFFFFFFFFFFFFFFFFFFFFFFFFFFFFFFFFFFFFF AND EQ PUSH2 0xBFD JUMPI PUSH1 0x40 MLOAD PUSH32 0x8C379A000000000000000000000000000000000000000000000000000000000 DUP2 MSTORE PUSH1 0x4 ADD DUP1 DUP1 PUSH1 0x20 ADD DUP3 DUP2 SUB DUP3 MSTORE PUSH1 0x20 DUP2 MSTORE PUSH1 0x20 ADD DUP1 PUSH32 0x4F776E61626C653A2063616C6C6572206973206E6F7420746865206F776E6572 DUP2 MSTORE POP PUSH1 0x20 ADD SWAP2 POP POP PUSH1 0x40 MLOAD DUP1 SWAP2 SUB SWAP1 REVERT JUMPDEST PUSH1 0x0 PUSH20 0xFFFFFFFFFFFFFFFFFFFFFFFFFFFFFFFFFFFFFFFF AND PUSH1 0x0 DUP1 SLOAD SWAP1 PUSH2 0x100 EXP SWAP1 DIV PUSH20 0xFFFFFFFFFFFFFFFFFFFFFFFFFFFFFFFFFFFFFFFF AND PUSH20 0xFFFFFFFFFFFFFFFFFFFFFFFFFFFFFFFFFFFFFFFF AND PUSH32 0x8BE0079C531659141344CD1FD0A4F28419497F9722A3DAAFE3B4186F6B6457E0 PUSH1 0x40 MLOAD PUSH1 0x40 MLOAD DUP1 SWAP2 SUB SWAP1 LOG3 PUSH1 0x0 DUP1 PUSH1 0x0 PUSH2 0x100 EXP DUP2 SLOAD DUP2 PUSH20 0xFFFFFFFFFFFFFFFFFFFFFFFFFFFFFFFFFFFFFFFF MUL NOT AND SWAP1 DUP4 PUSH20 0xFFFFFFFFFFFFFFFFFFFFFFFFFFFFFFFFFFFFFFFF AND MUL OR SWAP1 SSTORE POP JUMP JUMPDEST PUSH1 0x2 PUSH1 0x0 SWAP1 SLOAD SWAP1 PUSH2 0x100 EXP SWAP1 DIV PUSH20 0xFFFFFFFFFFFFFFFFFFFFFFFFFFFFFFFFFFFFFFFF AND DUP2 JUMP JUMPDEST PUSH2 0xD03 DUP9 DUP9 DUP9 DUP9 DUP9 PUSH1 0x0 PUSH1 0x40 MLOAD DUP1 PUSH1 0x20 ADD PUSH1 0x40 MSTORE DUP1 PUSH1 0x0 DUP2 MSTORE POP DUP11 DUP11 DUP11 PUSH2 0x18C3 JUMP JUMPDEST PUSH2 0xD22 DUP9 DUP9 DUP9 DUP9 DUP9 PUSH1 0x0 PUSH1 0x40 MLOAD DUP1 PUSH1 0x20 ADD PUSH1 0x40 MSTORE DUP1 PUSH1 0x0 DUP2 MSTORE POP PUSH2 0x1527 JUMP JUMPDEST POP POP POP POP POP POP POP POP JUMP JUMPDEST PUSH1 0x0 DUP1 PUSH1 0x0 SWAP1 SLOAD SWAP1 PUSH2 0x100 EXP SWAP1 DIV PUSH20 0xFFFFFFFFFFFFFFFFFFFFFFFFFFFFFFFFFFFFFFFF AND SWAP1 POP SWAP1 JUMP JUMPDEST PUSH1 0x4 PUSH1 0x20 MSTORE DUP2 PUSH1 0x0 MSTORE PUSH1 0x40 PUSH1 0x0 KECCAK256 PUSH1 0x20 MSTORE DUP1 PUSH1 0x0 MSTORE PUSH1 0x40 PUSH1 0x0 KECCAK256 PUSH1 0x0 SWAP2 POP SWAP2 POP POP SLOAD DUP2 JUMP JUMPDEST PUSH2 0xD82 PUSH2 0x18BB JUMP JUMPDEST PUSH20 0xFFFFFFFFFFFFFFFFFFFFFFFFFFFFFFFFFFFFFFFF AND PUSH2 0xDA0 PUSH2 0xD2C JUMP JUMPDEST PUSH20 0xFFFFFFFFFFFFFFFFFFFFFFFFFFFFFFFFFFFFFFFF AND EQ PUSH2 0xE29 JUMPI PUSH1 0x40 MLOAD PUSH32 0x8C379A000000000000000000000000000000000000000000000000000000000 DUP2 MSTORE PUSH1 0x4 ADD DUP1 DUP1 PUSH1 0x20 ADD DUP3 DUP2 SUB DUP3 MSTORE PUSH1 0x20 DUP2 MSTORE PUSH1 0x20 ADD DUP1 PUSH32 0x4F776E61626C653A2063616C6C6572206973206E6F7420746865206F776E6572 DUP2 MSTORE POP PUSH1 0x20 ADD SWAP2 POP POP PUSH1 0x40 MLOAD DUP1 SWAP2 SUB SWAP1 REVERT JUMPDEST DUP1 PUSH1 0x1 DUP2 SWAP1 SSTORE POP POP JUMP JUMPDEST PUSH1 0x3 PUSH1 0x0 SWAP1 SLOAD SWAP1 PUSH2 0x100 EXP SWAP1 DIV PUSH20 0xFFFFFFFFFFFFFFFFFFFFFFFFFFFFFFFFFFFFFFFF AND DUP2 JUMP JUMPDEST PUSH1 0x1 SLOAD CALLVALUE EQ PUSH2 0xED0 JUMPI PUSH1 0x40 MLOAD PUSH32 0x8C379A000000000000000000000000000000000000000000000000000000000 DUP2 MSTORE PUSH1 0x4 ADD DUP1 DUP1 PUSH1 0x20 ADD DUP3 DUP2 SUB DUP3 MSTORE PUSH1 0x1E DUP2 MSTORE PUSH1 0x20 ADD DUP1 PUSH32 0x556D6272613A204D757374207061792074686520657861637420746F6C6C0000 DUP2 MSTORE POP PUSH1 0x20 ADD SWAP2 POP POP PUSH1 0x40 MLOAD DUP1 SWAP2 SUB SWAP1 REVERT JUMPDEST PUSH1 0x0 PUSH1 0x4 PUSH1 0x0 DUP8 PUSH20 0xFFFFFFFFFFFFFFFFFFFFFFFFFFFFFFFFFFFFFFFF AND PUSH20 0xFFFFFFFFFFFFFFFFFFFFFFFFFFFFFFFFFFFFFFFF AND DUP2 MSTORE PUSH1 0x20 ADD SWAP1 DUP2 MSTORE PUSH1 0x20 ADD PUSH1 0x0 KECCAK256 PUSH1 0x0 DUP7 PUSH20 0xFFFFFFFFFFFFFFFFFFFFFFFFFFFFFFFFFFFFFFFF AND PUSH20 0xFFFFFFFFFFFFFFFFFFFFFFFFFFFFFFFFFFFFFFFF AND DUP2 MSTORE PUSH1 0x20 ADD SWAP1 DUP2 MSTORE PUSH1 0x20 ADD PUSH1 0x0 KECCAK256 SLOAD EQ PUSH2 0xFA5 JUMPI PUSH1 0x40 MLOAD PUSH32 0x8C379A000000000000000000000000000000000000000000000000000000000 DUP2 MSTORE PUSH1 0x4 ADD DUP1 DUP1 PUSH1 0x20 ADD DUP3 DUP2 SUB DUP3 MSTORE PUSH1 0x31 DUP2 MSTORE PUSH1 0x20 ADD DUP1 PUSH2 0x215B PUSH1 0x31 SWAP2 CODECOPY PUSH1 0x40 ADD SWAP2 POP POP PUSH1 0x40 MLOAD DUP1 SWAP2 SUB SWAP1 REVERT JUMPDEST DUP3 PUSH1 0x4 PUSH1 0x0 DUP8 PUSH20 0xFFFFFFFFFFFFFFFFFFFFFFFFFFFFFFFFFFFFFFFF AND PUSH20 0xFFFFFFFFFFFFFFFFFFFFFFFFFFFFFFFFFFFFFFFF AND DUP2 MSTORE PUSH1 0x20 ADD SWAP1 DUP2 MSTORE PUSH1 0x20 ADD PUSH1 0x0 KECCAK256 PUSH1 0x0 DUP7 PUSH20 0xFFFFFFFFFFFFFFFFFFFFFFFFFFFFFFFFFFFFFFFF AND PUSH20 0xFFFFFFFFFFFFFFFFFFFFFFFFFFFFFFFFFFFFFFFF AND DUP2 MSTORE PUSH1 0x20 ADD SWAP1 DUP2 MSTORE PUSH1 0x20 ADD PUSH1 0x0 KECCAK256 DUP2 SWAP1 SSTORE POP DUP4 PUSH20 0xFFFFFFFFFFFFFFFFFFFFFFFFFFFFFFFFFFFFFFFF AND DUP6 PUSH20 0xFFFFFFFFFFFFFFFFFFFFFFFFFFFFFFFFFFFFFFFF AND PUSH32 0x29877766FA2BFE3B90008D6D92F965ECA91CBC5757ED775740E460799FB92219 DUP6 DUP6 DUP6 PUSH1 0x40 MLOAD DUP1 DUP5 DUP2 MSTORE PUSH1 0x20 ADD DUP4 DUP2 MSTORE PUSH1 0x20 ADD DUP3 DUP2 MSTORE PUSH1 0x20 ADD SWAP4 POP POP POP POP PUSH1 0x40 MLOAD DUP1 SWAP2 SUB SWAP1 LOG3 PUSH2 0x10A7 DUP5 CALLER ADDRESS DUP7 PUSH2 0x1B9D JUMP JUMPDEST POP POP POP POP POP JUMP JUMPDEST PUSH1 0x1 SLOAD DUP4 EQ PUSH2 0x1108 JUMPI PUSH1 0x40 MLOAD PUSH32 0x8C379A000000000000000000000000000000000000000000000000000000000 DUP2 MSTORE PUSH1 0x4 ADD DUP1 DUP1 PUSH1 0x20 ADD DUP3 DUP2 SUB DUP3 MSTORE PUSH1 0x2A DUP2 MSTORE PUSH1 0x20 ADD DUP1 PUSH2 0x210B PUSH1 0x2A SWAP2 CODECOPY PUSH1 0x40 ADD SWAP2 POP POP PUSH1 0x40 MLOAD DUP1 SWAP2 SUB SWAP1 REVERT JUMPDEST PUSH1 0x1 SLOAD CALLVALUE GT PUSH2 0x1162 JUMPI PUSH1 0x40 MLOAD PUSH32 0x8C379A000000000000000000000000000000000000000000000000000000000 DUP2 MSTORE PUSH1 0x4 ADD DUP1 DUP1 PUSH1 0x20 ADD DUP3 DUP2 SUB DUP3 MSTORE PUSH1 0x22 DUP2 MSTORE PUSH1 0x20 ADD DUP1 PUSH2 0x208F PUSH1 0x22 SWAP2 CODECOPY PUSH1 0x40 ADD SWAP2 POP POP PUSH1 0x40 MLOAD DUP1 SWAP2 SUB SWAP1 REVERT JUMPDEST PUSH1 0x0 PUSH1 0x1 SLOAD CALLVALUE SUB SWAP1 POP PUSH20 0xEEEEEEEEEEEEEEEEEEEEEEEEEEEEEEEEEEEEEEEE PUSH20 0xFFFFFFFFFFFFFFFFFFFFFFFFFFFFFFFFFFFFFFFF AND DUP6 PUSH20 0xFFFFFFFFFFFFFFFFFFFFFFFFFFFFFFFFFFFFFFFF AND PUSH32 0x29877766FA2BFE3B90008D6D92F965ECA91CBC5757ED775740E460799FB92219 DUP4 DUP7 DUP7 PUSH1 0x40 MLOAD DUP1 DUP5 DUP2 MSTORE PUSH1 0x20 ADD DUP4 DUP2 MSTORE PUSH1 0x20 ADD DUP3 DUP2 MSTORE PUSH1 0x20 ADD SWAP4 POP POP POP POP PUSH1 0x40 MLOAD DUP1 SWAP2 SUB SWAP1 LOG3 DUP5 PUSH20 0xFFFFFFFFFFFFFFFFFFFFFFFFFFFFFFFFFFFFFFFF AND PUSH2 0x8FC DUP3 SWAP1 DUP2 ISZERO MUL SWAP1 PUSH1 0x40 MLOAD PUSH1 0x0 PUSH1 0x40 MLOAD DUP1 DUP4 SUB DUP2 DUP6 DUP9 DUP9 CALL SWAP4 POP POP POP POP ISZERO DUP1 ISZERO PUSH2 0x123A JUMPI RETURNDATASIZE PUSH1 0x0 DUP1 RETURNDATACOPY RETURNDATASIZE PUSH1 0x0 REVERT JUMPDEST POP POP POP POP POP POP JUMP JUMPDEST PUSH2 0x124A PUSH2 0x18BB JUMP JUMPDEST PUSH20 0xFFFFFFFFFFFFFFFFFFFFFFFFFFFFFFFFFFFFFFFF AND PUSH2 0x1268 PUSH2 0xD2C JUMP JUMPDEST PUSH20 0xFFFFFFFFFFFFFFFFFFFFFFFFFFFFFFFFFFFFFFFF AND EQ PUSH2 0x12F1 JUMPI PUSH1 0x40 MLOAD PUSH32 0x8C379A000000000000000000000000000000000000000000000000000000000 DUP2 MSTORE PUSH1 0x4 ADD DUP1 DUP1 PUSH1 0x20 ADD DUP3 DUP2 SUB DUP3 MSTORE PUSH1 0x20 DUP2 MSTORE PUSH1 0x20 ADD DUP1 PUSH32 0x4F776E61626C653A2063616C6C6572206973206E6F7420746865206F776E6572 DUP2 MSTORE POP PUSH1 0x20 ADD SWAP2 POP POP PUSH1 0x40 MLOAD DUP1 SWAP2 SUB SWAP1 REVERT JUMPDEST DUP1 PUSH1 0x3 PUSH1 0x0 PUSH2 0x100 EXP DUP2 SLOAD DUP2 PUSH20 0xFFFFFFFFFFFFFFFFFFFFFFFFFFFFFFFFFFFFFFFF MUL NOT AND SWAP1 DUP4 PUSH20 0xFFFFFFFFFFFFFFFFFFFFFFFFFFFFFFFFFFFFFFFF AND MUL OR SWAP1 SSTORE POP POP JUMP JUMPDEST PUSH2 0x133D PUSH2 0x18BB JUMP JUMPDEST PUSH20 0xFFFFFFFFFFFFFFFFFFFFFFFFFFFFFFFFFFFFFFFF AND PUSH2 0x135B PUSH2 0xD2C JUMP JUMPDEST PUSH20 0xFFFFFFFFFFFFFFFFFFFFFFFFFFFFFFFFFFFFFFFF AND EQ PUSH2 0x13E4 JUMPI PUSH1 0x40 MLOAD PUSH32 0x8C379A000000000000000000000000000000000000000000000000000000000 DUP2 MSTORE PUSH1 0x4 ADD DUP1 DUP1 PUSH1 0x20 ADD DUP3 DUP2 SUB DUP3 MSTORE PUSH1 0x20 DUP2 MSTORE PUSH1 0x20 ADD DUP1 PUSH32 0x4F776E61626C653A2063616C6C6572206973206E6F7420746865206F776E6572 DUP2 MSTORE POP PUSH1 0x20 ADD SWAP2 POP POP PUSH1 0x40 MLOAD DUP1 SWAP2 SUB SWAP1 REVERT JUMPDEST PUSH1 0x0 PUSH20 0xFFFFFFFFFFFFFFFFFFFFFFFFFFFFFFFFFFFFFFFF AND DUP2 PUSH20 0xFFFFFFFFFFFFFFFFFFFFFFFFFFFFFFFFFFFFFFFF AND EQ ISZERO PUSH2 0x146A JUMPI PUSH1 0x40 MLOAD PUSH32 0x8C379A000000000000000000000000000000000000000000000000000000000 DUP2 MSTORE PUSH1 0x4 ADD DUP1 DUP1 PUSH1 0x20 ADD DUP3 DUP2 SUB DUP3 MSTORE PUSH1 0x26 DUP2 MSTORE PUSH1 0x20 ADD DUP1 PUSH2 0x20B1 PUSH1 0x26 SWAP2 CODECOPY PUSH1 0x40 ADD SWAP2 POP POP PUSH1 0x40 MLOAD DUP1 SWAP2 SUB SWAP1 REVERT JUMPDEST DUP1 PUSH20 0xFFFFFFFFFFFFFFFFFFFFFFFFFFFFFFFFFFFFFFFF AND PUSH1 0x0 DUP1 SLOAD SWAP1 PUSH2 0x100 EXP SWAP1 DIV PUSH20 0xFFFFFFFFFFFFFFFFFFFFFFFFFFFFFFFFFFFFFFFF AND PUSH20 0xFFFFFFFFFFFFFFFFFFFFFFFFFFFFFFFFFFFFFFFF AND PUSH32 0x8BE0079C531659141344CD1FD0A4F28419497F9722A3DAAFE3B4186F6B6457E0 PUSH1 0x40 MLOAD PUSH1 0x40 MLOAD DUP1 SWAP2 SUB SWAP1 LOG3 DUP1 PUSH1 0x0 DUP1 PUSH2 0x100 EXP DUP2 SLOAD DUP2 PUSH20 0xFFFFFFFFFFFFFFFFFFFFFFFFFFFFFFFFFFFFFFFF MUL NOT AND SWAP1 DUP4 PUSH20 0xFFFFFFFFFFFFFFFFFFFFFFFFFFFFFFFFFFFFFFFF AND MUL OR SWAP1 SSTORE POP POP JUMP JUMPDEST PUSH1 0x0 PUSH1 0x4 PUSH1 0x0 DUP10 PUSH20 0xFFFFFFFFFFFFFFFFFFFFFFFFFFFFFFFFFFFFFFFF AND PUSH20 0xFFFFFFFFFFFFFFFFFFFFFFFFFFFFFFFFFFFFFFFF AND DUP2 MSTORE PUSH1 0x20 ADD SWAP1 DUP2 MSTORE PUSH1 0x20 ADD PUSH1 0x0 KECCAK256 PUSH1 0x0 DUP8 PUSH20 0xFFFFFFFFFFFFFFFFFFFFFFFFFFFFFFFFFFFFFFFF AND PUSH20 0xFFFFFFFFFFFFFFFFFFFFFFFFFFFFFFFFFFFFFFFF AND DUP2 MSTORE PUSH1 0x20 ADD SWAP1 DUP2 MSTORE PUSH1 0x20 ADD PUSH1 0x0 KECCAK256 SLOAD SWAP1 POP DUP4 DUP2 GT PUSH2 0x1600 JUMPI PUSH1 0x40 MLOAD PUSH32 0x8C379A000000000000000000000000000000000000000000000000000000000 DUP2 MSTORE PUSH1 0x4 ADD DUP1 DUP1 PUSH1 0x20 ADD DUP3 DUP2 SUB DUP3 MSTORE PUSH1 0x34 DUP2 MSTORE PUSH1 0x20 ADD DUP1 PUSH2 0x20D7 PUSH1 0x34 SWAP2 CODECOPY PUSH1 0x40 ADD SWAP2 POP POP PUSH1 0x40 MLOAD DUP1 SWAP2 SUB SWAP1 REVERT JUMPDEST PUSH1 0x0 DUP5 DUP3 SUB SWAP1 POP PUSH1 0x4 PUSH1 0x0 DUP11 PUSH20 0xFFFFFFFFFFFFFFFFFFFFFFFFFFFFFFFFFFFFFFFF AND PUSH20 0xFFFFFFFFFFFFFFFFFFFFFFFFFFFFFFFFFFFFFFFF AND DUP2 MSTORE PUSH1 0x20 ADD SWAP1 DUP2 MSTORE PUSH1 0x20 ADD PUSH1 0x0 KECCAK256 PUSH1 0x0 DUP9 PUSH20 0xFFFFFFFFFFFFFFFFFFFFFFFFFFFFFFFFFFFFFFFF AND PUSH20 0xFFFFFFFFFFFFFFFFFFFFFFFFFFFFFFFFFFFFFFFF AND DUP2 MSTORE PUSH1 0x20 ADD SWAP1 DUP2 MSTORE PUSH1 0x20 ADD PUSH1 0x0 KECCAK256 PUSH1 0x0 SWAP1 SSTORE DUP7 PUSH20 0xFFFFFFFFFFFFFFFFFFFFFFFFFFFFFFFFFFFFFFFF AND DUP9 PUSH20 0xFFFFFFFFFFFFFFFFFFFFFFFFFFFFFFFFFFFFFFFF AND DUP11 PUSH20 0xFFFFFFFFFFFFFFFFFFFFFFFFFFFFFFFFFFFFFFFF AND PUSH32 0x30EB3583AD09933B693A45452AB07512244CDBC5868701AA004C27B7B267C249 DUP5 PUSH1 0x40 MLOAD DUP1 DUP3 DUP2 MSTORE PUSH1 0x20 ADD SWAP2 POP POP PUSH1 0x40 MLOAD DUP1 SWAP2 SUB SWAP1 LOG4 PUSH2 0x170E DUP8 DUP10 DUP4 PUSH2 0x1C5E JUMP JUMPDEST PUSH1 0x0 DUP6 GT ISZERO PUSH2 0x1723 JUMPI PUSH2 0x1722 DUP8 DUP8 DUP8 PUSH2 0x1C5E JUMP JUMPDEST JUMPDEST PUSH1 0x0 PUSH20 0xFFFFFFFFFFFFFFFFFFFFFFFFFFFFFFFFFFFFFFFF AND DUP5 PUSH20 0xFFFFFFFFFFFFFFFFFFFFFFFFFFFFFFFFFFFFFFFF AND EQ PUSH2 0x18B0 JUMPI DUP4 PUSH20 0xFFFFFFFFFFFFFFFFFFFFFFFFFFFFFFFFFFFFFFFF AND PUSH4 0x579073DE DUP3 DUP12 DUP12 DUP12 DUP12 DUP12 DUP11 PUSH1 0x40 MLOAD DUP9 PUSH4 0xFFFFFFFF AND PUSH1 0xE0 SHL DUP2 MSTORE PUSH1 0x4 ADD DUP1 DUP9 DUP2 MSTORE PUSH1 0x20 ADD DUP8 PUSH20 0xFFFFFFFFFFFFFFFFFFFFFFFFFFFFFFFFFFFFFFFF AND DUP2 MSTORE PUSH1 0x20 ADD DUP7 PUSH20 0xFFFFFFFFFFFFFFFFFFFFFFFFFFFFFFFFFFFFFFFF AND DUP2 MSTORE PUSH1 0x20 ADD DUP6 PUSH20 0xFFFFFFFFFFFFFFFFFFFFFFFFFFFFFFFFFFFFFFFF AND DUP2 MSTORE PUSH1 0x20 ADD DUP5 PUSH20 0xFFFFFFFFFFFFFFFFFFFFFFFFFFFFFFFFFFFFFFFF AND DUP2 MSTORE PUSH1 0x20 ADD DUP4 DUP2 MSTORE PUSH1 0x20 ADD DUP1 PUSH1 0x20 ADD DUP3 DUP2 SUB DUP3 MSTORE DUP4 DUP2 DUP2 MLOAD DUP2 MSTORE PUSH1 0x20 ADD SWAP2 POP DUP1 MLOAD SWAP1 PUSH1 0x20 ADD SWAP1 DUP1 DUP4 DUP4 PUSH1 0x0 JUMPDEST DUP4 DUP2 LT ISZERO PUSH2 0x1845 JUMPI DUP1 DUP3 ADD MLOAD DUP2 DUP5 ADD MSTORE PUSH1 0x20 DUP2 ADD SWAP1 POP PUSH2 0x182A JUMP JUMPDEST POP POP POP POP SWAP1 POP SWAP1 DUP2 ADD SWAP1 PUSH1 0x1F AND DUP1 ISZERO PUSH2 0x1872 JUMPI DUP1 DUP3 SUB DUP1 MLOAD PUSH1 0x1 DUP4 PUSH1 0x20 SUB PUSH2 0x100 EXP SUB NOT AND DUP2 MSTORE PUSH1 0x20 ADD SWAP2 POP JUMPDEST POP SWAP9 POP POP POP POP POP POP POP POP POP PUSH1 0x0 PUSH1 0x40 MLOAD DUP1 DUP4 SUB DUP2 PUSH1 0x0 DUP8 DUP1 EXTCODESIZE ISZERO DUP1 ISZERO PUSH2 0x1897 JUMPI PUSH1 0x0 DUP1 REVERT JUMPDEST POP GAS CALL ISZERO DUP1 ISZERO PUSH2 0x18AB JUMPI RETURNDATASIZE PUSH1 0x0 DUP1 RETURNDATACOPY RETURNDATASIZE PUSH1 0x0 REVERT JUMPDEST POP POP POP POP JUMPDEST POP POP POP POP POP POP POP POP POP JUMP JUMPDEST PUSH1 0x0 CALLER SWAP1 POP SWAP1 JUMP JUMPDEST PUSH1 0x0 CHAINID SWAP1 POP PUSH1 0x0 DUP2 ADDRESS DUP13 DUP13 DUP13 DUP13 DUP13 DUP13 PUSH1 0x40 MLOAD PUSH1 0x20 ADD DUP1 DUP10 DUP2 MSTORE PUSH1 0x20 ADD DUP9 PUSH20 0xFFFFFFFFFFFFFFFFFFFFFFFFFFFFFFFFFFFFFFFF AND DUP2 MSTORE PUSH1 0x20 ADD DUP8 PUSH20 0xFFFFFFFFFFFFFFFFFFFFFFFFFFFFFFFFFFFFFFFF AND DUP2 MSTORE PUSH1 0x20 ADD DUP7 PUSH20 0xFFFFFFFFFFFFFFFFFFFFFFFFFFFFFFFFFFFFFFFF AND DUP2 MSTORE PUSH1 0x20 ADD DUP6 PUSH20 0xFFFFFFFFFFFFFFFFFFFFFFFFFFFFFFFFFFFFFFFF AND DUP2 MSTORE PUSH1 0x20 ADD DUP5 DUP2 MSTORE PUSH1 0x20 ADD DUP4 PUSH20 0xFFFFFFFFFFFFFFFFFFFFFFFFFFFFFFFFFFFFFFFF AND DUP2 MSTORE PUSH1 0x20 ADD DUP1 PUSH1 0x20 ADD DUP3 DUP2 SUB DUP3 MSTORE DUP4 DUP2 DUP2 MLOAD DUP2 MSTORE PUSH1 0x20 ADD SWAP2 POP DUP1 MLOAD SWAP1 PUSH1 0x20 ADD SWAP1 DUP1 DUP4 DUP4 PUSH1 0x0 JUMPDEST DUP4 DUP2 LT ISZERO PUSH2 0x19AD JUMPI DUP1 DUP3 ADD MLOAD DUP2 DUP5 ADD MSTORE PUSH1 0x20 DUP2 ADD SWAP1 POP PUSH2 0x1992 JUMP JUMPDEST POP POP POP POP SWAP1 POP SWAP1 DUP2 ADD SWAP1 PUSH1 0x1F AND DUP1 ISZERO PUSH2 0x19DA JUMPI DUP1 DUP3 SUB DUP1 MLOAD PUSH1 0x1 DUP4 PUSH1 0x20 SUB PUSH2 0x100 EXP SUB NOT AND DUP2 MSTORE PUSH1 0x20 ADD SWAP2 POP JUMPDEST POP SWAP10 POP POP POP POP POP POP POP POP POP POP PUSH1 0x40 MLOAD PUSH1 0x20 DUP2 DUP4 SUB SUB DUP2 MSTORE SWAP1 PUSH1 0x40 MSTORE DUP1 MLOAD SWAP1 PUSH1 0x20 ADD KECCAK256 PUSH1 0x40 MLOAD PUSH1 0x20 ADD DUP1 DUP1 PUSH32 0x19457468657265756D205369676E6564204D6573736167653A0A333200000000 DUP2 MSTORE POP PUSH1 0x1C ADD DUP3 DUP2 MSTORE PUSH1 0x20 ADD SWAP2 POP POP PUSH1 0x40 MLOAD PUSH1 0x20 DUP2 DUP4 SUB SUB DUP2 MSTORE SWAP1 PUSH1 0x40 MSTORE DUP1 MLOAD SWAP1 PUSH1 0x20 ADD KECCAK256 SWAP1 POP PUSH1 0x0 PUSH1 0x1 DUP3 DUP8 DUP8 DUP8 PUSH1 0x40 MLOAD PUSH1 0x0 DUP2 MSTORE PUSH1 0x20 ADD PUSH1 0x40 MSTORE PUSH1 0x40 MLOAD DUP1 DUP6 DUP2 MSTORE PUSH1 0x20 ADD DUP5 PUSH1 0xFF AND DUP2 MSTORE PUSH1 0x20 ADD DUP4 DUP2 MSTORE PUSH1 0x20 ADD DUP3 DUP2 MSTORE PUSH1 0x20 ADD SWAP5 POP POP POP POP POP PUSH1 0x20 PUSH1 0x40 MLOAD PUSH1 0x20 DUP2 SUB SWAP1 DUP1 DUP5 SUB SWAP1 DUP6 GAS STATICCALL ISZERO DUP1 ISZERO PUSH2 0x1AA8 JUMPI RETURNDATASIZE PUSH1 0x0 DUP1 RETURNDATACOPY RETURNDATASIZE PUSH1 0x0 REVERT JUMPDEST POP POP POP PUSH1 0x20 PUSH1 0x40 MLOAD SUB MLOAD SWAP1 POP PUSH1 0x0 PUSH20 0xFFFFFFFFFFFFFFFFFFFFFFFFFFFFFFFFFFFFFFFF AND DUP2 PUSH20 0xFFFFFFFFFFFFFFFFFFFFFFFFFFFFFFFFFFFFFFFF AND EQ ISZERO DUP1 ISZERO PUSH2 0x1B1C JUMPI POP DUP13 PUSH20 0xFFFFFFFFFFFFFFFFFFFFFFFFFFFFFFFFFFFFFFFF AND DUP2 PUSH20 0xFFFFFFFFFFFFFFFFFFFFFFFFFFFFFFFFFFFFFFFF AND EQ JUMPDEST PUSH2 0x1B8E JUMPI PUSH1 0x40 MLOAD PUSH32 0x8C379A000000000000000000000000000000000000000000000000000000000 DUP2 MSTORE PUSH1 0x4 ADD DUP1 DUP1 PUSH1 0x20 ADD DUP3 DUP2 SUB DUP3 MSTORE PUSH1 0x18 DUP2 MSTORE PUSH1 0x20 ADD DUP1 PUSH32 0x556D6272613A20496E76616C6964205369676E61747572650000000000000000 DUP2 MSTORE POP PUSH1 0x20 ADD SWAP2 POP POP PUSH1 0x40 MLOAD DUP1 SWAP2 SUB SWAP1 REVERT JUMPDEST POP POP POP POP POP POP POP POP POP POP POP POP POP JUMP JUMPDEST PUSH2 0x1C58 DUP5 PUSH4 0x23B872DD PUSH1 0xE0 SHL DUP6 DUP6 DUP6 PUSH1 0x40 MLOAD PUSH1 0x24 ADD DUP1 DUP5 PUSH20 0xFFFFFFFFFFFFFFFFFFFFFFFFFFFFFFFFFFFFFFFF AND DUP2 MSTORE PUSH1 0x20 ADD DUP4 PUSH20 0xFFFFFFFFFFFFFFFFFFFFFFFFFFFFFFFFFFFFFFFF AND DUP2 MSTORE PUSH1 0x20 ADD DUP3 DUP2 MSTORE PUSH1 0x20 ADD SWAP4 POP POP POP POP PUSH1 0x40 MLOAD PUSH1 0x20 DUP2 DUP4 SUB SUB DUP2 MSTORE SWAP1 PUSH1 0x40 MSTORE SWAP1 PUSH28 0xFFFFFFFFFFFFFFFFFFFFFFFFFFFFFFFFFFFFFFFFFFFFFFFFFFFFFFFF NOT AND PUSH1 0x20 DUP3 ADD DUP1 MLOAD PUSH28 0xFFFFFFFFFFFFFFFFFFFFFFFFFFFFFFFFFFFFFFFFFFFFFFFFFFFFFFFF DUP4 DUP2 DUP4 AND OR DUP4 MSTORE POP POP POP POP PUSH2 0x1D00 JUMP JUMPDEST POP POP POP POP JUMP JUMPDEST PUSH2 0x1CFB DUP4 PUSH4 0xA9059CBB PUSH1 0xE0 SHL DUP5 DUP5 PUSH1 0x40 MLOAD PUSH1 0x24 ADD DUP1 DUP4 PUSH20 0xFFFFFFFFFFFFFFFFFFFFFFFFFFFFFFFFFFFFFFFF AND DUP2 MSTORE PUSH1 0x20 ADD DUP3 DUP2 MSTORE PUSH1 0x20 ADD SWAP3 POP POP POP PUSH1 0x40 MLOAD PUSH1 0x20 DUP2 DUP4 SUB SUB DUP2 MSTORE SWAP1 PUSH1 0x40 MSTORE SWAP1 PUSH28 0xFFFFFFFFFFFFFFFFFFFFFFFFFFFFFFFFFFFFFFFFFFFFFFFFFFFFFFFF NOT AND PUSH1 0x20 DUP3 ADD DUP1 MLOAD PUSH28 0xFFFFFFFFFFFFFFFFFFFFFFFFFFFFFFFFFFFFFFFFFFFFFFFFFFFFFFFF DUP4 DUP2 DUP4 AND OR DUP4 MSTORE POP POP POP POP PUSH2 0x1D00 JUMP JUMPDEST POP POP POP JUMP JUMPDEST PUSH1 0x0 PUSH2 0x1D62 DUP3 PUSH1 0x40 MLOAD DUP1 PUSH1 0x40 ADD PUSH1 0x40 MSTORE DUP1 PUSH1 0x20 DUP2 MSTORE PUSH1 0x20 ADD PUSH32 0x5361666545524332303A206C6F772D6C6576656C2063616C6C206661696C6564 DUP2 MSTORE POP DUP6 PUSH20 0xFFFFFFFFFFFFFFFFFFFFFFFFFFFFFFFFFFFFFFFF AND PUSH2 0x1DEF SWAP1 SWAP3 SWAP2 SWAP1 PUSH4 0xFFFFFFFF AND JUMP JUMPDEST SWAP1 POP PUSH1 0x0 DUP2 MLOAD GT ISZERO PUSH2 0x1DEA JUMPI DUP1 DUP1 PUSH1 0x20 ADD SWAP1 MLOAD PUSH1 0x20 DUP2 LT ISZERO PUSH2 0x1D83 JUMPI PUSH1 0x0 DUP1 REVERT JUMPDEST DUP2 ADD SWAP1 DUP1 DUP1 MLOAD SWAP1 PUSH1 0x20 ADD SWAP1 SWAP3 SWAP2 SWAP1 POP POP POP PUSH2 0x1DE9 JUMPI PUSH1 0x40 MLOAD PUSH32 0x8C379A000000000000000000000000000000000000000000000000000000000 DUP2 MSTORE PUSH1 0x4 ADD DUP1 DUP1 PUSH1 0x20 ADD DUP3 DUP2 SUB DUP3 MSTORE PUSH1 0x2A DUP2 MSTORE PUSH1 0x20 ADD DUP1 PUSH2 0x218C PUSH1 0x2A SWAP2 CODECOPY PUSH1 0x40 ADD SWAP2 POP POP PUSH1 0x40 MLOAD DUP1 SWAP2 SUB SWAP1 REVERT JUMPDEST JUMPDEST POP POP POP JUMP JUMPDEST PUSH1 0x60 PUSH2 0x1DFE DUP5 DUP5 PUSH1 0x0 DUP6 PUSH2 0x1E07 JUMP JUMPDEST SWAP1 POP SWAP4 SWAP3 POP POP POP JUMP JUMPDEST PUSH1 0x60 DUP3 SELFBALANCE LT ISZERO PUSH2 0x1E62 JUMPI PUSH1 0x40 MLOAD PUSH32 0x8C379A000000000000000000000000000000000000000000000000000000000 DUP2 MSTORE PUSH1 0x4 ADD DUP1 DUP1 PUSH1 0x20 ADD DUP3 DUP2 SUB DUP3 MSTORE PUSH1 0x26 DUP2 MSTORE PUSH1 0x20 ADD DUP1 PUSH2 0x2135 PUSH1 0x26 SWAP2 CODECOPY PUSH1 0x40 ADD SWAP2 POP POP PUSH1 0x40 MLOAD DUP1 SWAP2 SUB SWAP1 REVERT JUMPDEST PUSH2 0x1E6B DUP6 PUSH2 0x1FAF JUMP JUMPDEST PUSH2 0x1EDD JUMPI PUSH1 0x40 MLOAD PUSH32 0x8C379A000000000000000000000000000000000000000000000000000000000 DUP2 MSTORE PUSH1 0x4 ADD DUP1 DUP1 PUSH1 0x20 ADD DUP3 DUP2 SUB DUP3 MSTORE PUSH1 0x1D DUP2 MSTORE PUSH1 0x20 ADD DUP1 PUSH32 0x416464726573733A2063616C6C20746F206E6F6E2D636F6E7472616374000000 DUP2 MSTORE POP PUSH1 0x20 ADD SWAP2 POP POP PUSH1 0x40 MLOAD DUP1 SWAP2 SUB SWAP1 REVERT JUMPDEST PUSH1 0x0 DUP1 DUP7 PUSH20 0xFFFFFFFFFFFFFFFFFFFFFFFFFFFFFFFFFFFFFFFF AND DUP6 DUP8 PUSH1 0x40 MLOAD DUP1 DUP3 DUP1 MLOAD SWAP1 PUSH1 0x20 ADD SWAP1 DUP1 DUP4 DUP4 JUMPDEST PUSH1 0x20 DUP4 LT PUSH2 0x1F2C JUMPI DUP1 MLOAD DUP3 MSTORE PUSH1 0x20 DUP3 ADD SWAP2 POP PUSH1 0x20 DUP2 ADD SWAP1 POP PUSH1 0x20 DUP4 SUB SWAP3 POP PUSH2 0x1F09 JUMP JUMPDEST PUSH1 0x1 DUP4 PUSH1 0x20 SUB PUSH2 0x100 EXP SUB DUP1 NOT DUP3 MLOAD AND DUP2 DUP5 MLOAD AND DUP1 DUP3 OR DUP6 MSTORE POP POP POP POP POP POP SWAP1 POP ADD SWAP2 POP POP PUSH1 0x0 PUSH1 0x40 MLOAD DUP1 DUP4 SUB DUP2 DUP6 DUP8 GAS CALL SWAP3 POP POP POP RETURNDATASIZE DUP1 PUSH1 0x0 DUP2 EQ PUSH2 0x1F8E JUMPI PUSH1 0x40 MLOAD SWAP2 POP PUSH1 0x1F NOT PUSH1 0x3F RETURNDATASIZE ADD AND DUP3 ADD PUSH1 0x40 MSTORE RETURNDATASIZE DUP3 MSTORE RETURNDATASIZE PUSH1 0x0 PUSH1 0x20 DUP5 ADD RETURNDATACOPY PUSH2 0x1F93 JUMP JUMPDEST PUSH1 0x60 SWAP2 POP JUMPDEST POP SWAP2 POP SWAP2 POP PUSH2 0x1FA3 DUP3 DUP3 DUP7 PUSH2 0x1FC2 JUMP JUMPDEST SWAP3 POP POP POP SWAP5 SWAP4 POP POP POP POP JUMP JUMPDEST PUSH1 0x0 DUP1 DUP3 EXTCODESIZE SWAP1 POP PUSH1 0x0 DUP2 GT SWAP2 POP POP SWAP2 SWAP1 POP JUMP JUMPDEST PUSH1 0x60 DUP4 ISZERO PUSH2 0x1FD2 JUMPI DUP3 SWAP1 POP PUSH2 0x2087 JUMP JUMPDEST PUSH1 0x0 DUP4 MLOAD GT ISZERO PUSH2 0x1FE5 JUMPI DUP3 MLOAD DUP1 DUP5 PUSH1 0x20 ADD REVERT JUMPDEST DUP2 PUSH1 0x40 MLOAD PUSH32 0x8C379A000000000000000000000000000000000000000000000000000000000 DUP2 MSTORE PUSH1 0x4 ADD DUP1 DUP1 PUSH1 0x20 ADD DUP3 DUP2 SUB DUP3 MSTORE DUP4 DUP2 DUP2 MLOAD DUP2 MSTORE PUSH1 0x20 ADD SWAP2 POP DUP1 MLOAD SWAP1 PUSH1 0x20 ADD SWAP1 DUP1 DUP4 DUP4 PUSH1 0x0 JUMPDEST DUP4 DUP2 LT ISZERO PUSH2 0x204C JUMPI DUP1 DUP3 ADD MLOAD DUP2 DUP5 ADD MSTORE PUSH1 0x20 DUP2 ADD SWAP1 POP PUSH2 0x2031 JUMP JUMPDEST POP POP POP POP SWAP1 POP SWAP1 DUP2 ADD SWAP1 PUSH1 0x1F AND DUP1 ISZERO PUSH2 0x2079 JUMPI DUP1 DUP3 SUB DUP1 MLOAD PUSH1 0x1 DUP4 PUSH1 0x20 SUB PUSH2 0x100 EXP SUB NOT AND DUP2 MSTORE PUSH1 0x20 ADD SWAP2 POP JUMPDEST POP SWAP3 POP POP POP PUSH1 0x40 MLOAD DUP1 SWAP2 SUB SWAP1 REVERT JUMPDEST SWAP4 SWAP3 POP POP POP JUMP INVALID SSTORE PUSH14 0x6272613A204D7573742070617920 PUSH14 0x6F7265207468616E207468652074 PUSH16 0x6C6C4F776E61626C653A206E6577206F PUSH24 0x6E657220697320746865207A65726F206164647265737355 PUSH14 0x6272613A204E6F2062616C616E63 PUSH6 0x20746F207769 PUSH21 0x6864726177206F7220666565206578636565647320 PUSH3 0x616C61 PUSH15 0x6365556D6272613A20496E76616C69 PUSH5 0x206F72206F PUSH22 0x74646174656420746F6C6C20636F6D6D69746D656E74 COINBASE PUSH5 0x6472657373 GASPRICE KECCAK256 PUSH10 0x6E73756666696369656E PUSH21 0x2062616C616E636520666F722063616C6C556D6272 PUSH2 0x3A20 NUMBER PUSH2 0x6E6E PUSH16 0x742073656E64206D6F726520746F6B65 PUSH15 0x7320746F20737465616C7468206164 PUSH5 0x7265737353 PUSH2 0x6665 GASLIMIT MSTORE NUMBER ORIGIN ADDRESS GASPRICE KECCAK256 GASLIMIT MSTORE NUMBER ORIGIN ADDRESS KECCAK256 PUSH16 0x7065726174696F6E20646964206E6F74 KECCAK256 PUSH20 0x756363656564A26469706673582212205E254D7B PUSH10 0x9170D9A1CF44FF06A3B6 DUP2 0x22 ADD RETURNDATACOPY PUSH17 0x8B2765B975079610B20853F264736F6C63 NUMBER STOP SMOD MOD STOP CALLER "
				},
				"gasEstimates": {
					"creation": {
						"codeDepositCost": "1736600",
						"executionCost": "infinite",
						"totalCost": "infinite"
					},
					"external": {
						"collectTolls()": "infinite",
						"owner()": "1100",
						"renounceOwnership()": "24396",
						"sendEth(address,uint256,bytes32,bytes32)": "infinite",
						"sendToken(address,address,uint256,bytes32,bytes32)": "infinite",
						"setToll(uint256)": "21271",
						"setTollCollector(address)": "22087",
						"setTollReceiver(address)": "22129",
						"tokenPayments(address,address)": "1334",
						"toll()": "1028",
						"tollCollector()": "1136",
						"tollReceiver()": "1069",
						"transferOwnership(address)": "infinite",
						"withdrawToken(address,address)": "infinite",
						"withdrawTokenAndCall(address,address,address,bytes)": "infinite",
						"withdrawTokenAndCallOnBehalf(address,address,address,address,uint256,address,bytes,uint8,bytes32,bytes32)": "infinite",
						"withdrawTokenOnBehalf(address,address,address,address,uint256,uint8,bytes32,bytes32)": "infinite"
					},
					"internal": {
						"_validateWithdrawSignature(address,address,address,address,uint256,contract IUmbraHookReceiver,bytes memory,uint8,bytes32,bytes32)": "infinite",
						"_withdrawTokenInternal(address,address,address,address,uint256,contract IUmbraHookReceiver,bytes memory)": "infinite"
					}
				},
				"methodIdentifiers": {
					"collectTolls()": "185ad0a5",
					"owner()": "8da5cb5b",
					"renounceOwnership()": "715018a6",
					"sendEth(address,uint256,bytes32,bytes32)": "beb9addf",
					"sendToken(address,address,uint256,bytes32,bytes32)": "b9bfabe1",
					"setToll(uint256)": "a3dace5d",
					"setTollCollector(address)": "0c6b7067",
					"setTollReceiver(address)": "c0b9b4ea",
					"tokenPayments(address,address)": "8ef490b0",
					"toll()": "285aaa20",
					"tollCollector()": "7e8c2f94",
					"tollReceiver()": "b400ee46",
					"transferOwnership(address)": "f2fde38b",
					"withdrawToken(address,address)": "3aeac4e1",
					"withdrawTokenAndCall(address,address,address,bytes)": "059ca2f5",
					"withdrawTokenAndCallOnBehalf(address,address,address,address,uint256,address,bytes,uint8,bytes32,bytes32)": "23d0e7a1",
					"withdrawTokenOnBehalf(address,address,address,address,uint256,uint8,bytes32,bytes32)": "81ab0fcd"
				}
			},
			"storageLayout": {
				"storage": [
					{
						"astId": 7,
						"contract": "Umbra-Cash/contracts/Umbra.sol:Umbra",
						"label": "_owner",
						"offset": 0,
						"slot": "0",
						"type": "t_address"
					},
					{
						"astId": 1134,
						"contract": "Umbra-Cash/contracts/Umbra.sol:Umbra",
						"label": "toll",
						"offset": 0,
						"slot": "1",
						"type": "t_uint256"
					},
					{
						"astId": 1137,
						"contract": "Umbra-Cash/contracts/Umbra.sol:Umbra",
						"label": "tollCollector",
						"offset": 0,
						"slot": "2",
						"type": "t_address"
					},
					{
						"astId": 1140,
						"contract": "Umbra-Cash/contracts/Umbra.sol:Umbra",
						"label": "tollReceiver",
						"offset": 0,
						"slot": "3",
						"type": "t_address_payable"
					},
					{
						"astId": 1147,
						"contract": "Umbra-Cash/contracts/Umbra.sol:Umbra",
						"label": "tokenPayments",
						"offset": 0,
						"slot": "4",
						"type": "t_mapping(t_address,t_mapping(t_address,t_uint256))"
					}
				],
				"types": {
					"t_address": {
						"encoding": "inplace",
						"label": "address",
						"numberOfBytes": "20"
					},
					"t_address_payable": {
						"encoding": "inplace",
						"label": "address payable",
						"numberOfBytes": "20"
					},
					"t_mapping(t_address,t_mapping(t_address,t_uint256))": {
						"encoding": "mapping",
						"key": "t_address",
						"label": "mapping(address => mapping(address => uint256))",
						"numberOfBytes": "32",
						"value": "t_mapping(t_address,t_uint256)"
					},
					"t_mapping(t_address,t_uint256)": {
						"encoding": "mapping",
						"key": "t_address",
						"label": "mapping(address => uint256)",
						"numberOfBytes": "32",
						"value": "t_uint256"
					},
					"t_uint256": {
						"encoding": "inplace",
						"label": "uint256",
						"numberOfBytes": "32"
					}
				}
			},
			"userdoc": {
				"events": {
					"Announcement(address,uint256,address,bytes32,bytes32)": {
						"notice": "Emitted when a payment is sent"
					},
					"TokenWithdrawal(address,address,uint256,address)": {
						"notice": "Emitted when a token is withdrawn"
					}
				},
				"kind": "user",
				"methods": {
					"collectTolls()": {
						"notice": "Function only the toll collector can call to sweep funds to the toll receiver"
					},
					"sendEth(address,uint256,bytes32,bytes32)": {
						"notice": "Send and announce ETH payment to a stealth address"
					},
					"sendToken(address,address,uint256,bytes32,bytes32)": {
						"notice": "Send and announce an ERC20 payment to a stealth address"
					},
					"setToll(uint256)": {
						"notice": "Admin only function to update the toll"
					},
					"setTollCollector(address)": {
						"notice": "Admin only function to update the toll collector"
					},
					"setTollReceiver(address)": {
						"notice": "Admin only function to update the toll receiver"
					},
					"tokenPayments(address,address)": {
						"notice": "Token payments pending withdrawal; stealth address => token address => amount"
					},
					"toll()": {
						"notice": "An ETH amount that must be sent alongside each payment; used as an anti-spam measure"
					},
					"tollCollector()": {
						"notice": "A privileged address, set by the admin, that can sweep all collected ETH tolls"
					},
					"tollReceiver()": {
						"notice": "The address where ETH funds are sent when collected by the tollCollector"
					},
					"withdrawToken(address,address)": {
						"notice": "Withdraw an ERC20 token payment sent to a stealth address"
					},
					"withdrawTokenAndCall(address,address,address,bytes)": {
						"notice": "Withdraw an ERC20 token payment sent to a stealth address"
					},
					"withdrawTokenAndCallOnBehalf(address,address,address,address,uint256,address,bytes,uint8,bytes32,bytes32)": {
						"notice": "Withdraw an ERC20 token payment on behalf of a stealth address via signed authorization"
					},
					"withdrawTokenOnBehalf(address,address,address,address,uint256,uint8,bytes32,bytes32)": {
						"notice": "Withdraw an ERC20 token payment on behalf of a stealth address via signed authorization"
					}
				},
				"version": 1
			}
		}
	}
}